{
  "_format": "hh-sol-artifact-1",
  "contractName": "Lens",
  "sourceName": "contracts/Lens.sol",
  "abi": [
    {
      "inputs": [
        {
          "internalType": "address[]",
          "name": "tokens",
          "type": "address[]"
        },
        {
          "internalType": "address",
          "name": "owner",
          "type": "address"
        },
        {
          "internalType": "address",
          "name": "spender",
          "type": "address"
        }
      ],
      "name": "batchCheckAllowances",
      "outputs": [
        {
          "internalType": "uint256[]",
          "name": "",
          "type": "uint256[]"
        }
      ],
      "stateMutability": "view",
      "type": "function"
    },
    {
      "inputs": [
        {
          "internalType": "address[]",
          "name": "tokens",
          "type": "address[]"
        },
        {
          "internalType": "address",
          "name": "account",
          "type": "address"
        }
      ],
      "name": "batchCheckTokenBalances",
      "outputs": [
        {
          "internalType": "uint256[]",
          "name": "",
          "type": "uint256[]"
        }
      ],
      "stateMutability": "view",
      "type": "function"
    },
    {
      "inputs": [
        {
          "internalType": "address[]",
          "name": "tokens",
          "type": "address[]"
        }
      ],
      "name": "batchGetTokenMetadata",
      "outputs": [
        {
          "components": [
            {
              "internalType": "address",
              "name": "token",
              "type": "address"
            },
            {
              "internalType": "uint8",
              "name": "decimals",
              "type": "uint8"
            },
            {
              "internalType": "string",
              "name": "symbol",
              "type": "string"
            },
            {
              "internalType": "string",
              "name": "name",
              "type": "string"
            },
            {
              "internalType": "bool",
              "name": "exists",
              "type": "bool"
            }
          ],
          "internalType": "struct Lens.TokenMetadata[]",
          "name": "results",
          "type": "tuple[]"
        }
      ],
      "stateMutability": "view",
      "type": "function"
    },
    {
      "inputs": [
        {
          "internalType": "address[]",
          "name": "pools",
          "type": "address[]"
        }
      ],
      "name": "batchGetV2PoolData",
      "outputs": [
        {
          "components": [
            {
              "internalType": "address",
              "name": "pool",
              "type": "address"
            },
            {
              "internalType": "uint112",
              "name": "reserve0",
              "type": "uint112"
            },
            {
              "internalType": "uint112",
              "name": "reserve1",
              "type": "uint112"
            },
            {
              "internalType": "address",
              "name": "token0",
              "type": "address"
            },
            {
              "internalType": "address",
              "name": "token1",
              "type": "address"
            },
            {
              "internalType": "bool",
              "name": "exists",
              "type": "bool"
            }
          ],
          "internalType": "struct Lens.V2PoolData[]",
          "name": "results",
          "type": "tuple[]"
        }
      ],
      "stateMutability": "view",
      "type": "function"
    },
    {
      "inputs": [
        {
          "internalType": "address[]",
          "name": "pools",
          "type": "address[]"
        }
      ],
      "name": "batchGetV3PoolData",
      "outputs": [
        {
          "components": [
            {
              "internalType": "address",
              "name": "pool",
              "type": "address"
            },
            {
              "internalType": "uint160",
              "name": "sqrtPriceX96",
              "type": "uint160"
            },
            {
              "internalType": "int24",
              "name": "tick",
              "type": "int24"
            },
            {
              "internalType": "uint128",
              "name": "liquidity",
              "type": "uint128"
            },
            {
              "internalType": "address",
              "name": "token0",
              "type": "address"
            },
            {
              "internalType": "address",
              "name": "token1",
              "type": "address"
            },
            {
              "internalType": "uint24",
              "name": "fee",
              "type": "uint24"
            },
            {
              "internalType": "bool",
              "name": "exists",
              "type": "bool"
            }
          ],
          "internalType": "struct Lens.V3PoolData[]",
          "name": "results",
          "type": "tuple[]"
        }
      ],
      "stateMutability": "view",
      "type": "function"
    },
    {
      "inputs": [
        {
          "internalType": "address",
          "name": "token",
          "type": "address"
        }
      ],
      "name": "getTokenMetadataSingle",
      "outputs": [
        {
          "components": [
            {
              "internalType": "address",
              "name": "token",
              "type": "address"
            },
            {
              "internalType": "uint8",
              "name": "decimals",
              "type": "uint8"
            },
            {
              "internalType": "string",
              "name": "symbol",
              "type": "string"
            },
            {
              "internalType": "string",
              "name": "name",
              "type": "string"
            },
            {
              "internalType": "bool",
              "name": "exists",
              "type": "bool"
            }
          ],
          "internalType": "struct Lens.TokenMetadata",
          "name": "data",
          "type": "tuple"
        }
      ],
      "stateMutability": "view",
      "type": "function"
    },
    {
      "inputs": [
        {
          "internalType": "address",
          "name": "pool",
          "type": "address"
        }
      ],
      "name": "getV2PoolDataSingle",
      "outputs": [
        {
          "components": [
            {
              "internalType": "address",
              "name": "pool",
              "type": "address"
            },
            {
              "internalType": "uint112",
              "name": "reserve0",
              "type": "uint112"
            },
            {
              "internalType": "uint112",
              "name": "reserve1",
              "type": "uint112"
            },
            {
              "internalType": "address",
              "name": "token0",
              "type": "address"
            },
            {
              "internalType": "address",
              "name": "token1",
              "type": "address"
            },
            {
              "internalType": "bool",
              "name": "exists",
              "type": "bool"
            }
          ],
          "internalType": "struct Lens.V2PoolData",
          "name": "data",
          "type": "tuple"
        }
      ],
      "stateMutability": "view",
      "type": "function"
    },
    {
      "inputs": [
        {
          "internalType": "address",
          "name": "pool",
          "type": "address"
        }
      ],
      "name": "getV3PoolDataSingle",
      "outputs": [
        {
          "components": [
            {
              "internalType": "address",
              "name": "pool",
              "type": "address"
            },
            {
              "internalType": "uint160",
              "name": "sqrtPriceX96",
              "type": "uint160"
            },
            {
              "internalType": "int24",
              "name": "tick",
              "type": "int24"
            },
            {
              "internalType": "uint128",
              "name": "liquidity",
              "type": "uint128"
            },
            {
              "internalType": "address",
              "name": "token0",
              "type": "address"
            },
            {
              "internalType": "address",
              "name": "token1",
              "type": "address"
            },
            {
              "internalType": "uint24",
              "name": "fee",
              "type": "uint24"
            },
            {
              "internalType": "bool",
              "name": "exists",
              "type": "bool"
            }
          ],
          "internalType": "struct Lens.V3PoolData",
          "name": "data",
          "type": "tuple"
        }
      ],
      "stateMutability": "view",
      "type": "function"
    }
  ],
  "bytecode": "0x608060405234801561000f575f80fd5b50611eb38061001d5f395ff3fe608060405234801561000f575f80fd5b5060043610610085575f3560e01c8063b35afa7f11610058578063b35afa7f14610112578063edf50b3014610132578063f7f2846614610152578063ff8f622a14610172575f80fd5b80633e82ae2214610089578063569a542f146100b25780637e5108e0146100d25780638c99c4d1146100f2575b5f80fd5b61009c61009736600461142b565b610185565b6040516100a9919061150d565b60405180910390f35b6100c56100c0366004611567565b61037e565b6040516100a991906115a6565b6100e56100e0366004611567565b6105e9565b6040516100a9919061165c565b6101056101003660046116dc565b61084e565b6040516100a99190611740565b610125610120366004611567565b610a0b565b6040516100a9919061180f565b61014561014036600461142b565b610c7f565b6040516100a99190611851565b61016561016036600461142b565b611011565b6040516100a99190611866565b6101056101803660046118dd565b611253565b6101cf6040518060a001604052805f73ffffffffffffffffffffffffffffffffffffffff1681526020015f60ff16815260200160608152602001606081526020015f151581525090565b73ffffffffffffffffffffffffffffffffffffffff8216808252604080517f313ce567000000000000000000000000000000000000000000000000000000008152905163313ce567916004808201926020929091908290030181865afa15801561023b573d5f803e3d5ffd5b505050506040513d601f19601f8201168201806040525081019061025f9190611945565b60ff166020820152604080517f95d89b41000000000000000000000000000000000000000000000000000000008152905173ffffffffffffffffffffffffffffffffffffffff8416916395d89b41916004808301925f9291908290030181865afa1580156102cf573d5f803e3d5ffd5b505050506040513d5f823e601f3d908101601f191682016040526102f69190810190611a39565b81604001819052508173ffffffffffffffffffffffffffffffffffffffff166306fdde036040518163ffffffff1660e01b81526004015f60405180830381865afa158015610346573d5f803e3d5ffd5b505050506040513d5f823e601f3d908101601f1916820160405261036d9190810190611a39565b606082015260016080820152919050565b60608167ffffffffffffffff8111156103995761039961195e565b60405190808252806020026020018201604052801561041657816020015b6040805160c0810182525f8082526020808301829052928201819052606082018190526080820181905260a082015282527fffffffffffffffffffffffffffffffffffffffffffffffffffffffffffffffff9092019101816103b75790505b5090505f5b828110156105e25783838281811061043557610435611a73565b905060200201602081019061044a919061142b565b82828151811061045c5761045c611a73565b602090810291909101015173ffffffffffffffffffffffffffffffffffffffff909116905283838281811061049357610493611a73565b90506020020160208101906104a8919061142b565b73ffffffffffffffffffffffffffffffffffffffff163b5f036104f1575f8282815181106104d8576104d8611a73565b602090810291909101015190151560a0909101526105da565b3063f7f2846685858481811061050957610509611a73565b905060200201602081019061051e919061142b565b6040517fffffffff0000000000000000000000000000000000000000000000000000000060e084901b16815273ffffffffffffffffffffffffffffffffffffffff909116600482015260240160c060405180830381865afa9250505080156105a3575060408051601f3d908101601f191682019092526105a091810190611ad7565b60015b6105ba575f8282815181106104d8576104d8611a73565b808383815181106105cd576105cd611a73565b6020026020010181905250505b60010161041b565b5092915050565b60608167ffffffffffffffff8111156106045761060461195e565b60405190808252806020026020018201604052801561067f57816020015b61066c6040518060a001604052805f73ffffffffffffffffffffffffffffffffffffffff1681526020015f60ff16815260200160608152602001606081526020015f151581525090565b8152602001906001900390816106225790505b5090505f5b828110156105e25783838281811061069e5761069e611a73565b90506020020160208101906106b3919061142b565b8282815181106106c5576106c5611a73565b602090810291909101015173ffffffffffffffffffffffffffffffffffffffff90911690528383828181106106fc576106fc611a73565b9050602002016020810190610711919061142b565b73ffffffffffffffffffffffffffffffffffffffff163b5f0361075a575f82828151811061074157610741611a73565b6020908102919091010151901515608090910152610846565b30633e82ae2285858481811061077257610772611a73565b9050602002016020810190610787919061142b565b6040517fffffffff0000000000000000000000000000000000000000000000000000000060e084901b16815273ffffffffffffffffffffffffffffffffffffffff90911660048201526024015f60405180830381865afa92505050801561080f57506040513d5f823e601f3d908101601f1916820160405261080c9190810190611b7a565b60015b610826575f82828151811061074157610741611a73565b8083838151811061083957610839611a73565b6020026020010181905250505b600101610684565b60605f8467ffffffffffffffff81111561086a5761086a61195e565b604051908082528060200260200182016040528015610893578160200160208202803683370190505b5090505f5b85811015610a01578686828181106108b2576108b2611a73565b90506020020160208101906108c7919061142b565b73ffffffffffffffffffffffffffffffffffffffff163b5f03610908575f8282815181106108f7576108f7611a73565b6020026020010181815250506109f9565b86868281811061091a5761091a611a73565b905060200201602081019061092f919061142b565b6040517fdd62ed3e00000000000000000000000000000000000000000000000000000000815273ffffffffffffffffffffffffffffffffffffffff87811660048301528681166024830152919091169063dd62ed3e90604401602060405180830381865afa9250505080156109c1575060408051601f3d908101601f191682019092526109be91810190611c3a565b60015b6109d8575f8282815181106108f7576108f7611a73565b808383815181106109eb576109eb611a73565b602002602001018181525050505b600101610898565b5095945050505050565b60608167ffffffffffffffff811115610a2657610a2661195e565b604051908082528060200260200182016040528015610ab257816020015b60408051610100810182525f8082526020808301829052928201819052606082018190526080820181905260a0820181905260c0820181905260e082015282527fffffffffffffffffffffffffffffffffffffffffffffffffffffffffffffffff909201910181610a445790505b5090505f5b828110156105e257838382818110610ad157610ad1611a73565b9050602002016020810190610ae6919061142b565b828281518110610af857610af8611a73565b602090810291909101015173ffffffffffffffffffffffffffffffffffffffff9091169052838382818110610b2f57610b2f611a73565b9050602002016020810190610b44919061142b565b73ffffffffffffffffffffffffffffffffffffffff163b5f03610b8d575f828281518110610b7457610b74611a73565b602090810291909101015190151560e090910152610c77565b3063edf50b30858584818110610ba557610ba5611a73565b9050602002016020810190610bba919061142b565b6040517fffffffff0000000000000000000000000000000000000000000000000000000060e084901b16815273ffffffffffffffffffffffffffffffffffffffff909116600482015260240161010060405180830381865afa925050508015610c40575060408051601f3d908101601f19168201909252610c3d91810190611c93565b60015b610c57575f828281518110610b7457610b74611a73565b80838381518110610c6a57610c6a611a73565b6020026020010181905250505b600101610ab7565b60408051610100810182525f60208201819052818301819052606082018190526080820181905260a0820181905260c0820181905260e080830182905273ffffffffffffffffffffffffffffffffffffffff851680845284517f3850c7bd00000000000000000000000000000000000000000000000000000000815294519394929384939192633850c7bd92600480820193918290030181865afa158015610d29573d5f803e3d5ffd5b505050506040513d601f19601f82011682018060405250810190610d4d9190611d6c565b50505050509150915081836020019073ffffffffffffffffffffffffffffffffffffffff16908173ffffffffffffffffffffffffffffffffffffffff168152505080836040019060020b908160020b815250508373ffffffffffffffffffffffffffffffffffffffff16631a6865026040518163ffffffff1660e01b8152600401602060405180830381865afa158015610de9573d5f803e3d5ffd5b505050506040513d601f19601f82011682018060405250810190610e0d9190611def565b6fffffffffffffffffffffffffffffffff166060840152604080517f0dfe1681000000000000000000000000000000000000000000000000000000008152905173ffffffffffffffffffffffffffffffffffffffff861691630dfe16819160048083019260209291908290030181865afa158015610e8d573d5f803e3d5ffd5b505050506040513d601f19601f82011682018060405250810190610eb19190611e08565b836080019073ffffffffffffffffffffffffffffffffffffffff16908173ffffffffffffffffffffffffffffffffffffffff16815250508373ffffffffffffffffffffffffffffffffffffffff1663d21220a76040518163ffffffff1660e01b8152600401602060405180830381865afa158015610f31573d5f803e3d5ffd5b505050506040513d601f19601f82011682018060405250810190610f559190611e08565b8360a0019073ffffffffffffffffffffffffffffffffffffffff16908173ffffffffffffffffffffffffffffffffffffffff16815250508373ffffffffffffffffffffffffffffffffffffffff1663ddca3f436040518163ffffffff1660e01b8152600401602060405180830381865afa158015610fd5573d5f803e3d5ffd5b505050506040513d601f19601f82011682018060405250810190610ff99190611e23565b62ffffff1660c08401525050600160e0820152919050565b6040805160c0810182525f6020820181905281830181905260608083018290526080830182905260a0830182905273ffffffffffffffffffffffffffffffffffffffff851680845284517f0902f1ac00000000000000000000000000000000000000000000000000000000815294519394929384939192630902f1ac92600480820193918290030181865afa1580156110ac573d5f803e3d5ffd5b505050506040513d601f19601f820116820180604052508101906110d09190611e3c565b506dffffffffffffffffffffffffffff80831660208088019190915290821660408088019190915280517f0dfe1681000000000000000000000000000000000000000000000000000000008152905193955091935073ffffffffffffffffffffffffffffffffffffffff871692630dfe16819260048082019392918290030181865afa158015611162573d5f803e3d5ffd5b505050506040513d601f19601f820116820180604052508101906111869190611e08565b836060019073ffffffffffffffffffffffffffffffffffffffff16908173ffffffffffffffffffffffffffffffffffffffff16815250508373ffffffffffffffffffffffffffffffffffffffff1663d21220a76040518163ffffffff1660e01b8152600401602060405180830381865afa158015611206573d5f803e3d5ffd5b505050506040513d601f19601f8201168201806040525081019061122a9190611e08565b73ffffffffffffffffffffffffffffffffffffffff1660808401525050600160a0820152919050565b60605f8367ffffffffffffffff81111561126f5761126f61195e565b604051908082528060200260200182016040528015611298578160200160208202803683370190505b5090505f5b848110156113fe578585828181106112b7576112b7611a73565b90506020020160208101906112cc919061142b565b73ffffffffffffffffffffffffffffffffffffffff163b5f0361130d575f8282815181106112fc576112fc611a73565b6020026020010181815250506113f6565b85858281811061131f5761131f611a73565b9050602002016020810190611334919061142b565b6040517f70a0823100000000000000000000000000000000000000000000000000000000815273ffffffffffffffffffffffffffffffffffffffff868116600483015291909116906370a0823190602401602060405180830381865afa9250505080156113be575060408051601f3d908101601f191682019092526113bb91810190611c3a565b60015b6113d5575f8282815181106112fc576112fc611a73565b808383815181106113e8576113e8611a73565b602002602001018181525050505b60010161129d565b50949350505050565b73ffffffffffffffffffffffffffffffffffffffff81168114611428575f80fd5b50565b5f6020828403121561143b575f80fd5b813561144681611407565b9392505050565b5f5b8381101561146757818101518382015260200161144f565b50505f910152565b5f815180845261148681602086016020860161144d565b601f01601f19169290920160200192915050565b73ffffffffffffffffffffffffffffffffffffffff815116825260ff60208201511660208301525f604082015160a060408501526114db60a085018261146f565b9050606083015184820360608601526114f4828261146f565b9150506080830151151560808501528091505092915050565b602081525f611446602083018461149a565b5f8083601f84011261152f575f80fd5b50813567ffffffffffffffff811115611546575f80fd5b6020830191508360208260051b8501011115611560575f80fd5b9250929050565b5f8060208385031215611578575f80fd5b823567ffffffffffffffff81111561158e575f80fd5b61159a8582860161151f565b90969095509350505050565b602080825282518282018190525f9190848201906040850190845b818110156116505761163d83855173ffffffffffffffffffffffffffffffffffffffff80825116835260208201516dffffffffffffffffffffffffffff808216602086015280604085015116604086015250508060608301511660608401528060808301511660808401525060a0810151151560a08301525050565b9284019260c092909201916001016115c1565b50909695505050505050565b5f60208083016020845280855180835260408601915060408160051b8701019250602087015f5b828110156116cf577fffffffffffffffffffffffffffffffffffffffffffffffffffffffffffffffc08886030184526116bd85835161149a565b94509285019290850190600101611683565b5092979650505050505050565b5f805f80606085870312156116ef575f80fd5b843567ffffffffffffffff811115611705575f80fd5b6117118782880161151f565b909550935050602085013561172581611407565b9150604085013561173581611407565b939692955090935050565b602080825282518282018190525f9190848201906040850190845b818110156116505783518352928401929184019160010161175b565b73ffffffffffffffffffffffffffffffffffffffff808251168352806020830151166020840152604082015160020b60408401526fffffffffffffffffffffffffffffffff60608301511660608401528060808301511660808401528060a08301511660a08401525060c08101516117f660c084018262ffffff169052565b5060e081015161180a60e084018215159052565b505050565b602080825282518282018190525f9190848201906040850190845b818110156116505761183d838551611777565b92840192610100929092019160010161182a565b61010081016118608284611777565b92915050565b60c08101611860828473ffffffffffffffffffffffffffffffffffffffff80825116835260208201516dffffffffffffffffffffffffffff808216602086015280604085015116604086015250508060608301511660608401528060808301511660808401525060a0810151151560a08301525050565b5f805f604084860312156118ef575f80fd5b833567ffffffffffffffff811115611905575f80fd5b6119118682870161151f565b909450925050602084013561192581611407565b809150509250925092565b805160ff81168114611940575f80fd5b919050565b5f60208284031215611955575f80fd5b61144682611930565b7f4e487b71000000000000000000000000000000000000000000000000000000005f52604160045260245ffd5b60405160a0810167ffffffffffffffff811182821017156119ae576119ae61195e565b60405290565b5f82601f8301126119c3575f80fd5b815167ffffffffffffffff808211156119de576119de61195e565b604051601f8301601f19908116603f01168101908282118183101715611a0657611a0661195e565b81604052838152866020858801011115611a1e575f80fd5b611a2f84602083016020890161144d565b9695505050505050565b5f60208284031215611a49575f80fd5b815167ffffffffffffffff811115611a5f575f80fd5b611a6b848285016119b4565b949350505050565b7f4e487b71000000000000000000000000000000000000000000000000000000005f52603260045260245ffd5b805161194081611407565b80516dffffffffffffffffffffffffffff81168114611940575f80fd5b80518015158114611940575f80fd5b5f60c08284031215611ae7575f80fd5b60405160c0810181811067ffffffffffffffff82111715611b0a57611b0a61195e565b6040528251611b1881611407565b8152611b2660208401611aab565b6020820152611b3760408401611aab565b60408201526060830151611b4a81611407565b60608201526080830151611b5d81611407565b6080820152611b6e60a08401611ac8565b60a08201529392505050565b5f60208284031215611b8a575f80fd5b815167ffffffffffffffff80821115611ba1575f80fd5b9083019060a08286031215611bb4575f80fd5b611bbc61198b565b8251611bc781611407565b8152611bd560208401611930565b6020820152604083015182811115611beb575f80fd5b611bf7878286016119b4565b604083015250606083015182811115611c0e575f80fd5b611c1a878286016119b4565b606083015250611c2c60808401611ac8565b608082015295945050505050565b5f60208284031215611c4a575f80fd5b5051919050565b8051600281900b8114611940575f80fd5b80516fffffffffffffffffffffffffffffffff81168114611940575f80fd5b805162ffffff81168114611940575f80fd5b5f610100808385031215611ca5575f80fd5b6040519081019067ffffffffffffffff82118183101715611cc857611cc861195e565b8160405283519150611cd982611407565b818152611ce860208501611aa0565b6020820152611cf960408501611c51565b6040820152611d0a60608501611c62565b6060820152611d1b60808501611aa0565b6080820152611d2c60a08501611aa0565b60a0820152611d3d60c08501611c81565b60c0820152611d4e60e08501611ac8565b60e0820152949350505050565b805161ffff81168114611940575f80fd5b5f805f805f805f60e0888a031215611d82575f80fd5b8751611d8d81611407565b9650611d9b60208901611c51565b9550611da960408901611d5b565b9450611db760608901611d5b565b9350611dc560808901611d5b565b9250611dd360a08901611930565b9150611de160c08901611ac8565b905092959891949750929550565b5f60208284031215611dff575f80fd5b61144682611c62565b5f60208284031215611e18575f80fd5b815161144681611407565b5f60208284031215611e33575f80fd5b61144682611c81565b5f805f60608486031215611e4e575f80fd5b611e5784611aab565b9250611e6560208501611aab565b9150604084015163ffffffff81168114611925575f80fdfea26469706673582212204574ae5173f7a6c85f52ef07b4e20ac4688bc6e0e8640fa2c860c28843d0390b64736f6c63430008180033",
  "linkReferences": {},
  "deployedLinkReferences": {}
}