{"contracts/test/MockPools.sol":{"MockUniswapV2Pair":{"abi":[{"inputs":[{"internalType":"address","name":"token0_","type":"address"},{"internalType":"address","name":"token1_","type":"address"},{"internalType":"uint112","name":"reserve0_","type":"uint112"},{"internalType":"uint112","name":"reserve1_","type":"uint112"}],"stateMutability":"nonpayable","type":"constructor"},{"inputs":[],"name":"getReserves","outputs":[{"internalType":"uint112","name":"","type":"uint112"},{"internalType":"uint112","name":"","type":"uint112"},{"internalType":"uint32","name":"","type":"uint32"}],"stateMutability":"view","type":"function"},{"inputs":[],"name":"token0","outputs":[{"internalType":"address","name":"","type":"address"}],"stateMutability":"view","type":"function"},{"inputs":[],"name":"token1","outputs":[{"internalType":"address","name":"","type":"address"}],"stateMutability":"view","type":"function"}],"evm":{"bytecode":{"linkReferences":{},"object":"608060405234801561000f575f80fd5b5060405161023a38038061023a83398101604081905261002e916100c0565b600180546001600160a01b03199081166001600160a01b03968716179091556002805490911693909416929092179092555f80546001600160701b039384166001600160e01b031990911617600160701b9390921692909202179055610111565b80516001600160a01b03811681146100a5575f80fd5b919050565b80516001600160701b03811681146100a5575f80fd5b5f805f80608085870312156100d3575f80fd5b6100dc8561008f565b93506100ea6020860161008f565b92506100f8604086016100aa565b9150610106606086016100aa565b905092959194509250565b61011c8061011e5f395ff3fe6080604052348015600e575f80fd5b5060043610603a575f3560e01c80630902f1ac14603e5780630dfe168114608b578063d21220a71460c9575b5f80fd5b5f54604080516dffffffffffffffffffffffffffff80841682526e010000000000000000000000000000909304909216602083015263ffffffff4216908201526060015b60405180910390f35b60015473ffffffffffffffffffffffffffffffffffffffff165b60405173ffffffffffffffffffffffffffffffffffffffff90911681526020016082565b60025473ffffffffffffffffffffffffffffffffffffffff1660a556fea26469706673582212201bb4fa92ebb7bbb47037e23f75417e879a20311920f3f0f8d72c20ccab24a3d964736f6c63430008180033","opcodes":"PUSH1 0x80 PUSH1 0x40 MSTORE CALLVALUE DUP1 ISZERO PUSH2 0xF JUMPI PUSH0 DUP1 REVERT JUMPDEST POP PUSH1 0x40 MLOAD PUSH2 0x23A CODESIZE SUB DUP1 PUSH2 0x23A DUP4 CODECOPY DUP2 ADD PUSH1 0x40 DUP2 SWAP1 MSTORE PUSH2 0x2E SWAP2 PUSH2 0xC0 JUMP JUMPDEST PUSH1 0x1 DUP1 SLOAD PUSH1 0x1 PUSH1 0x1 PUSH1 0xA0 SHL SUB NOT SWAP1 DUP2 AND PUSH1 0x1 PUSH1 0x1 PUSH1 0xA0 SHL SUB SWAP7 DUP8 AND OR SWAP1 SWAP2 SSTORE PUSH1 0x2 DUP1 SLOAD SWAP1 SWAP2 AND SWAP4 SWAP1 SWAP5 AND SWAP3 SWAP1 SWAP3 OR SWAP1 SWAP3 SSTORE PUSH0 DUP1 SLOAD PUSH1 0x1 PUSH1 0x1 PUSH1 0x70 SHL SUB SWAP4 DUP5 AND PUSH1 0x1 PUSH1 0x1 PUSH1 0xE0 SHL SUB NOT SWAP1 SWAP2 AND OR PUSH1 0x1 PUSH1 0x70 SHL SWAP4 SWAP1 SWAP3 AND SWAP3 SWAP1 SWAP3 MUL OR SWAP1 SSTORE PUSH2 0x111 JUMP JUMPDEST DUP1 MLOAD PUSH1 0x1 PUSH1 0x1 PUSH1 0xA0 SHL SUB DUP2 AND DUP2 EQ PUSH2 0xA5 JUMPI PUSH0 DUP1 REVERT JUMPDEST SWAP2 SWAP1 POP JUMP JUMPDEST DUP1 MLOAD PUSH1 0x1 PUSH1 0x1 PUSH1 0x70 SHL SUB DUP2 AND DUP2 EQ PUSH2 0xA5 JUMPI PUSH0 DUP1 REVERT JUMPDEST PUSH0 DUP1 PUSH0 DUP1 PUSH1 0x80 DUP6 DUP8 SUB SLT ISZERO PUSH2 0xD3 JUMPI PUSH0 DUP1 REVERT JUMPDEST PUSH2 0xDC DUP6 PUSH2 0x8F JUMP JUMPDEST SWAP4 POP PUSH2 0xEA PUSH1 0x20 DUP7 ADD PUSH2 0x8F JUMP JUMPDEST SWAP3 POP PUSH2 0xF8 PUSH1 0x40 DUP7 ADD PUSH2 0xAA JUMP JUMPDEST SWAP2 POP PUSH2 0x106 PUSH1 0x60 DUP7 ADD PUSH2 0xAA JUMP JUMPDEST SWAP1 POP SWAP3 SWAP6 SWAP2 SWAP5 POP SWAP3 POP JUMP JUMPDEST PUSH2 0x11C DUP1 PUSH2 0x11E PUSH0 CODECOPY PUSH0 RETURN INVALID PUSH1 0x80 PUSH1 0x40 MSTORE CALLVALUE DUP1 ISZERO PUSH1 0xE JUMPI PUSH0 DUP1 REVERT JUMPDEST POP PUSH1 0x4 CALLDATASIZE LT PUSH1 0x3A JUMPI PUSH0 CALLDATALOAD PUSH1 0xE0 SHR DUP1 PUSH4 0x902F1AC EQ PUSH1 0x3E JUMPI DUP1 PUSH4 0xDFE1681 EQ PUSH1 0x8B JUMPI DUP1 PUSH4 0xD21220A7 EQ PUSH1 0xC9 JUMPI JUMPDEST PUSH0 DUP1 REVERT JUMPDEST PUSH0 SLOAD PUSH1 0x40 DUP1 MLOAD PUSH14 0xFFFFFFFFFFFFFFFFFFFFFFFFFFFF DUP1 DUP5 AND DUP3 MSTORE PUSH15 0x10000000000000000000000000000 SWAP1 SWAP4 DIV SWAP1 SWAP3 AND PUSH1 0x20 DUP4 ADD MSTORE PUSH4 0xFFFFFFFF TIMESTAMP AND SWAP1 DUP3 ADD MSTORE PUSH1 0x60 ADD JUMPDEST PUSH1 0x40 MLOAD DUP1 SWAP2 SUB SWAP1 RETURN JUMPDEST PUSH1 0x1 SLOAD PUSH20 0xFFFFFFFFFFFFFFFFFFFFFFFFFFFFFFFFFFFFFFFF AND JUMPDEST PUSH1 0x40 MLOAD PUSH20 0xFFFFFFFFFFFFFFFFFFFFFFFFFFFFFFFFFFFFFFFF SWAP1 SWAP2 AND DUP2 MSTORE PUSH1 0x20 ADD PUSH1 0x82 JUMP JUMPDEST PUSH1 0x2 SLOAD PUSH20 0xFFFFFFFFFFFFFFFFFFFFFFFFFFFFFFFFFFFFFFFF AND PUSH1 0xA5 JUMP INVALID LOG2 PUSH5 0x6970667358 0x22 SLT KECCAK256 SHL 0xB4 STATICCALL SWAP3 0xEB 0xB7 0xBB 0xB4 PUSH17 0x37E23F75417E879A20311920F3F0F8D72C KECCAK256 0xCC 0xAB 0x24 LOG3 0xD9 PUSH5 0x736F6C6343 STOP ADDMOD XOR STOP CALLER "},"methodIdentifiers":{"getReserves()":"0902f1ac","token0()":"0dfe1681","token1()":"d21220a7"}}}}}