{"contracts/test/MockPools.sol":{"MockUniswapV3Pool":{"abi":[{"inputs":[{"internalType":"address","name":"token0_","type":"address"},{"internalType":"address","name":"token1_","type":"address"},{"internalType":"uint24","name":"fee_","type":"uint24"},{"internalType":"uint160","name":"sqrtPriceX96_","type":"uint160"},{"internalType":"int24","name":"tick_","type":"int24"},{"internalType":"uint128","name":"liquidity_","type":"uint128"}],"stateMutability":"nonpayable","type":"constructor"},{"inputs":[],"name":"fee","outputs":[{"internalType":"uint24","name":"","type":"uint24"}],"stateMutability":"view","type":"function"},{"inputs":[],"name":"liquidity","outputs":[{"internalType":"uint128","name":"","type":"uint128"}],"stateMutability":"view","type":"function"},{"inputs":[],"name":"slot0","outputs":[{"internalType":"uint160","name":"","type":"uint160"},{"internalType":"int24","name":"","type":"int24"},{"internalType":"uint16","name":"","type":"uint16"},{"internalType":"uint16","name":"","type":"uint16"},{"internalType":"uint16","name":"","type":"uint16"},{"internalType":"uint8","name":"","type":"uint8"},{"internalType":"bool","name":"","type":"bool"}],"stateMutability":"view","type":"function"},{"inputs":[],"name":"token0","outputs":[{"internalType":"address","name":"","type":"address"}],"stateMutability":"view","type":"function"},{"inputs":[],"name":"token1","outputs":[{"internalType":"address","name":"","type":"address"}],"stateMutability":"view","type":"function"}],"evm":{"bytecode":{"linkReferences":{},"object":"608060405234801561000f575f80fd5b5060405161034138038061034183398101604081905261002e916100d8565b5f80546001600160a01b03199081166001600160a01b039889161790915560018054909116958716959095179094556003805460028054949097166001600160b81b031990941693909317600160a01b62ffffff93841602179095556001600160981b0319909116600160801b92909116919091026001600160801b031916176001600160801b03909116179055610173565b6001600160a01b03811681146100d5575f80fd5b50565b5f805f805f8060c087890312156100ed575f80fd5b86516100f8816100c1565b6020880151909650610109816100c1565b604088015190955062ffffff81168114610121575f80fd5b6060880151909450610132816100c1565b8093505060808701518060020b8114610149575f80fd5b60a08801519092506001600160801b0381168114610165575f80fd5b809150509295509295509295565b6101c1806101805f395ff3fe608060405234801561000f575f80fd5b5060043610610064575f3560e01c80633850c7bd1161004d5780633850c7bd146100cf578063d21220a71461013d578063ddca3f431461015b575f80fd5b80630dfe1681146100685780631a686502146100ab575b5f80fd5b5f5473ffffffffffffffffffffffffffffffffffffffff165b60405173ffffffffffffffffffffffffffffffffffffffff90911681526020015b60405180910390f35b6003546040516fffffffffffffffffffffffffffffffff90911681526020016100a2565b600280546040805173ffffffffffffffffffffffffffffffffffffffff831681527401000000000000000000000000000000000000000090920490920b60208201525f918101829052606081018290526080810182905260a0810191909152600160c082015260e0016100a2565b60015473ffffffffffffffffffffffffffffffffffffffff16610081565b600354700100000000000000000000000000000000900462ffffff1660405162ffffff90911681526020016100a256fea264697066735822122029aaeed485bd08a93dc470bc16e6da20a8fd8efa640eef3a7b70046b302de5e564736f6c63430008180033","opcodes":"PUSH1 0x80 PUSH1 0x40 MSTORE CALLVALUE DUP1 ISZERO PUSH2 0xF JUMPI PUSH0 DUP1 REVERT JUMPDEST POP PUSH1 0x40 MLOAD PUSH2 0x341 CODESIZE SUB DUP1 PUSH2 0x341 DUP4 CODECOPY DUP2 ADD PUSH1 0x40 DUP2 SWAP1 MSTORE PUSH2 0x2E SWAP2 PUSH2 0xD8 JUMP JUMPDEST PUSH0 DUP1 SLOAD PUSH1 0x1 PUSH1 0x1 PUSH1 0xA0 SHL SUB NOT SWAP1 DUP2 AND PUSH1 0x1 PUSH1 0x1 PUSH1 0xA0 SHL SUB SWAP9 DUP10 AND OR SWAP1 SWAP2 SSTORE PUSH1 0x1 DUP1 SLOAD SWAP1 SWAP2 AND SWAP6 DUP8 AND SWAP6 SWAP1 SWAP6 OR SWAP1 SWAP5 SSTORE PUSH1 0x3 DUP1 SLOAD PUSH1 0x2 DUP1 SLOAD SWAP5 SWAP1 SWAP8 AND PUSH1 0x1 PUSH1 0x1 PUSH1 0xB8 SHL SUB NOT SWAP1 SWAP5 AND SWAP4 SWAP1 SWAP4 OR PUSH1 0x1 PUSH1 0xA0 SHL PUSH3 0xFFFFFF SWAP4 DUP5 AND MUL OR SWAP1 SWAP6 SSTORE PUSH1 0x1 PUSH1 0x1 PUSH1 0x98 SHL SUB NOT SWAP1 SWAP2 AND PUSH1 0x1 PUSH1 0x80 SHL SWAP3 SWAP1 SWAP2 AND SWAP2 SWAP1 SWAP2 MUL PUSH1 0x1 PUSH1 0x1 PUSH1 0x80 SHL SUB NOT AND OR PUSH1 0x1 PUSH1 0x1 PUSH1 0x80 SHL SUB SWAP1 SWAP2 AND OR SWAP1 SSTORE PUSH2 0x173 JUMP JUMPDEST PUSH1 0x1 PUSH1 0x1 PUSH1 0xA0 SHL SUB DUP2 AND DUP2 EQ PUSH2 0xD5 JUMPI PUSH0 DUP1 REVERT JUMPDEST POP JUMP JUMPDEST PUSH0 DUP1 PUSH0 DUP1 PUSH0 DUP1 PUSH1 0xC0 DUP8 DUP10 SUB SLT ISZERO PUSH2 0xED JUMPI PUSH0 DUP1 REVERT JUMPDEST DUP7 MLOAD PUSH2 0xF8 DUP2 PUSH2 0xC1 JUMP JUMPDEST PUSH1 0x20 DUP9 ADD MLOAD SWAP1 SWAP7 POP PUSH2 0x109 DUP2 PUSH2 0xC1 JUMP JUMPDEST PUSH1 0x40 DUP9 ADD MLOAD SWAP1 SWAP6 POP PUSH3 0xFFFFFF DUP2 AND DUP2 EQ PUSH2 0x121 JUMPI PUSH0 DUP1 REVERT JUMPDEST PUSH1 0x60 DUP9 ADD MLOAD SWAP1 SWAP5 POP PUSH2 0x132 DUP2 PUSH2 0xC1 JUMP JUMPDEST DUP1 SWAP4 POP POP PUSH1 0x80 DUP8 ADD MLOAD DUP1 PUSH1 0x2 SIGNEXTEND DUP2 EQ PUSH2 0x149 JUMPI PUSH0 DUP1 REVERT JUMPDEST PUSH1 0xA0 DUP9 ADD MLOAD SWAP1 SWAP3 POP PUSH1 0x1 PUSH1 0x1 PUSH1 0x80 SHL SUB DUP2 AND DUP2 EQ PUSH2 0x165 JUMPI PUSH0 DUP1 REVERT JUMPDEST DUP1 SWAP2 POP POP SWAP3 SWAP6 POP SWAP3 SWAP6 POP SWAP3 SWAP6 JUMP JUMPDEST PUSH2 0x1C1 DUP1 PUSH2 0x180 PUSH0 CODECOPY PUSH0 RETURN INVALID PUSH1 0x80 PUSH1 0x40 MSTORE CALLVALUE DUP1 ISZERO PUSH2 0xF JUMPI PUSH0 DUP1 REVERT JUMPDEST POP PUSH1 0x4 CALLDATASIZE LT PUSH2 0x64 JUMPI PUSH0 CALLDATALOAD PUSH1 0xE0 SHR DUP1 PUSH4 0x3850C7BD GT PUSH2 0x4D JUMPI DUP1 PUSH4 0x3850C7BD EQ PUSH2 0xCF JUMPI DUP1 PUSH4 0xD21220A7 EQ PUSH2 0x13D JUMPI DUP1 PUSH4 0xDDCA3F43 EQ PUSH2 0x15B JUMPI PUSH0 DUP1 REVERT JUMPDEST DUP1 PUSH4 0xDFE1681 EQ PUSH2 0x68 JUMPI DUP1 PUSH4 0x1A686502 EQ PUSH2 0xAB JUMPI JUMPDEST PUSH0 DUP1 REVERT JUMPDEST PUSH0 SLOAD PUSH20 0xFFFFFFFFFFFFFFFFFFFFFFFFFFFFFFFFFFFFFFFF AND JUMPDEST PUSH1 0x40 MLOAD PUSH20 0xFFFFFFFFFFFFFFFFFFFFFFFFFFFFFFFFFFFFFFFF SWAP1 SWAP2 AND DUP2 MSTORE PUSH1 0x20 ADD JUMPDEST PUSH1 0x40 MLOAD DUP1 SWAP2 SUB SWAP1 RETURN JUMPDEST PUSH1 0x3 SLOAD PUSH1 0x40 MLOAD PUSH16 0xFFFFFFFFFFFFFFFFFFFFFFFFFFFFFFFF SWAP1 SWAP2 AND DUP2 MSTORE PUSH1 0x20 ADD PUSH2 0xA2 JUMP JUMPDEST PUSH1 0x2 DUP1 SLOAD PUSH1 0x40 DUP1 MLOAD PUSH20 0xFFFFFFFFFFFFFFFFFFFFFFFFFFFFFFFFFFFFFFFF DUP4 AND DUP2 MSTORE PUSH21 0x10000000000000000000000000000000000000000 SWAP1 SWAP3 DIV SWAP1 SWAP3 SIGNEXTEND PUSH1 0x20 DUP3 ADD MSTORE PUSH0 SWAP2 DUP2 ADD DUP3 SWAP1 MSTORE PUSH1 0x60 DUP2 ADD DUP3 SWAP1 MSTORE PUSH1 0x80 DUP2 ADD DUP3 SWAP1 MSTORE PUSH1 0xA0 DUP2 ADD SWAP2 SWAP1 SWAP2 MSTORE PUSH1 0x1 PUSH1 0xC0 DUP3 ADD MSTORE PUSH1 0xE0 ADD PUSH2 0xA2 JUMP JUMPDEST PUSH1 0x1 SLOAD PUSH20 0xFFFFFFFFFFFFFFFFFFFFFFFFFFFFFFFFFFFFFFFF AND PUSH2 0x81 JUMP JUMPDEST PUSH1 0x3 SLOAD PUSH17 0x100000000000000000000000000000000 SWAP1 DIV PUSH3 0xFFFFFF AND PUSH1 0x40 MLOAD PUSH3 0xFFFFFF SWAP1 SWAP2 AND DUP2 MSTORE PUSH1 0x20 ADD PUSH2 0xA2 JUMP INVALID LOG2 PUSH5 0x6970667358 0x22 SLT KECCAK256 0x29 0xAA 0xEE 0xD4 DUP6 0xBD ADDMOD 0xA9 RETURNDATASIZE 0xC4 PUSH17 0xBC16E6DA20A8FD8EFA640EEF3A7B70046B ADDRESS 0x2D 0xE5 0xE5 PUSH5 0x736F6C6343 STOP ADDMOD XOR STOP CALLER "},"methodIdentifiers":{"fee()":"ddca3f43","liquidity()":"1a686502","slot0()":"3850c7bd","token0()":"0dfe1681","token1()":"d21220a7"}}}}}