{"contracts/Executor.sol":{"Executor":{"abi":[{"inputs":[{"internalType":"address","name":"initialOwner","type":"address"}],"stateMutability":"nonpayable","type":"constructor"},{"inputs":[],"name":"EnforcedPause","type":"error"},{"inputs":[{"internalType":"uint256","name":"index","type":"uint256"},{"internalType":"address","name":"target","type":"address"},{"internalType":"bytes","name":"reason","type":"bytes"}],"name":"ExecutionFailed","type":"error"},{"inputs":[],"name":"ExpectedPause","type":"error"},{"inputs":[],"name":"FailedCall","type":"error"},{"inputs":[{"internalType":"uint256","name":"balance","type":"uint256"},{"internalType":"uint256","name":"needed","type":"uint256"}],"name":"InsufficientBalance","type":"error"},{"inputs":[{"internalType":"uint256","name":"offset","type":"uint256"},{"internalType":"uint256","name":"length","type":"uint256"}],"name":"InvalidInjectionOffset","type":"error"},{"inputs":[{"internalType":"address","name":"owner","type":"address"}],"name":"OwnableInvalidOwner","type":"error"},{"inputs":[{"internalType":"address","name":"account","type":"address"}],"name":"OwnableUnauthorizedAccount","type":"error"},{"inputs":[],"name":"ReentrancyGuardReentrantCall","type":"error"},{"inputs":[{"internalType":"address","name":"token","type":"address"}],"name":"SafeERC20FailedOperation","type":"error"},{"inputs":[],"name":"ZeroAmountInjection","type":"error"},{"anonymous":false,"inputs":[{"indexed":true,"internalType":"address","name":"previousOwner","type":"address"},{"indexed":true,"internalType":"address","name":"newOwner","type":"address"}],"name":"OwnershipTransferred","type":"event"},{"anonymous":false,"inputs":[{"indexed":false,"internalType":"address","name":"account","type":"address"}],"name":"Paused","type":"event"},{"anonymous":false,"inputs":[{"indexed":false,"internalType":"address","name":"account","type":"address"}],"name":"Unpaused","type":"event"},{"inputs":[{"components":[{"internalType":"address","name":"token","type":"address"},{"internalType":"uint256","name":"amount","type":"uint256"}],"internalType":"struct Executor.TokenPull[]","name":"pulls","type":"tuple[]"},{"components":[{"internalType":"address","name":"token","type":"address"},{"internalType":"address","name":"spender","type":"address"},{"internalType":"uint256","name":"amount","type":"uint256"},{"internalType":"bool","name":"revokeAfter","type":"bool"}],"internalType":"struct Executor.Approval[]","name":"approvals","type":"tuple[]"},{"components":[{"internalType":"address","name":"target","type":"address"},{"internalType":"uint256","name":"value","type":"uint256"},{"internalType":"bytes","name":"data","type":"bytes"},{"internalType":"address","name":"injectToken","type":"address"},{"internalType":"uint256","name":"injectOffset","type":"uint256"}],"internalType":"struct Executor.Call[]","name":"calls","type":"tuple[]"},{"internalType":"address[]","name":"tokensToFlush","type":"address[]"}],"name":"execute","outputs":[{"internalType":"bytes[]","name":"results","type":"bytes[]"}],"stateMutability":"payable","type":"function"},{"inputs":[],"name":"owner","outputs":[{"internalType":"address","name":"","type":"address"}],"stateMutability":"view","type":"function"},{"inputs":[],"name":"pause","outputs":[],"stateMutability":"nonpayable","type":"function"},{"inputs":[],"name":"paused","outputs":[{"internalType":"bool","name":"","type":"bool"}],"stateMutability":"view","type":"function"},{"inputs":[],"name":"renounceOwnership","outputs":[],"stateMutability":"nonpayable","type":"function"},{"inputs":[{"internalType":"address payable","name":"to","type":"address"},{"internalType":"uint256","name":"amount","type":"uint256"}],"name":"rescueETH","outputs":[],"stateMutability":"nonpayable","type":"function"},{"inputs":[{"internalType":"address","name":"token","type":"address"},{"internalType":"address","name":"to","type":"address"},{"internalType":"uint256","name":"amount","type":"uint256"}],"name":"rescueFunds","outputs":[],"stateMutability":"nonpayable","type":"function"},{"inputs":[{"internalType":"address","name":"newOwner","type":"address"}],"name":"transferOwnership","outputs":[],"stateMutability":"nonpayable","type":"function"},{"inputs":[],"name":"unpause","outputs":[],"stateMutability":"nonpayable","type":"function"},{"stateMutability":"payable","type":"receive"}],"evm":{"bytecode":{"linkReferences":{},"object":"608060405234801561000f575f80fd5b5060405161164b38038061164b83398101604081905261002e916100bf565b806001600160a01b03811661005c57604051631e4fbdf760e01b81525f600482015260240160405180910390fd5b61006581610070565b5050600180556100ec565b5f80546001600160a01b038381166001600160a01b0319831681178455604051919092169283917f8be0079c531659141344cd1fd0a4f28419497f9722a3daafe3b4186f6b6457e09190a35050565b5f602082840312156100cf575f80fd5b81516001600160a01b03811681146100e5575f80fd5b9392505050565b611552806100f95f395ff3fe608060405260043610610096575f3560e01c80636ccae054116100665780638456cb591161004c5780638456cb591461016b5780638da5cb5b1461017f578063f2fde38b146101b2575f80fd5b80636ccae05414610138578063715018a614610157575f80fd5b806305825102146100a1578063099a04e5146100ca5780633f4ba83a146100eb5780635c975abb146100ff575f80fd5b3661009d57005b5f80fd5b6100b46100af366004611124565b6101d1565b6040516100c1919061122c565b60405180910390f35b3480156100d5575f80fd5b506100e96100e4366004611301565b61024b565b005b3480156100f6575f80fd5b506100e9610261565b34801561010a575f80fd5b505f5474010000000000000000000000000000000000000000900460ff1660405190151581526020016100c1565b348015610143575f80fd5b506100e961015236600461132b565b610273565b348015610162575f80fd5b506100e96102a1565b348015610176575f80fd5b506100e96102b2565b34801561018a575f80fd5b505f5460405173ffffffffffffffffffffffffffffffffffffffff90911681526020016100c1565b3480156101bd575f80fd5b506100e96101cc366004611369565b6102c2565b60606101db61032a565b6101e361036d565b5f6101ee34476113b8565b90505f6101fb85856103c1565b90506102078b8b6104f3565b6102118989610558565b61021b87876105cb565b92506102278989610925565b610234338686848661098c565b505061023f60018055565b98975050505050505050565b610253610b0a565b61025d8282610b5c565b5050565b610269610b0a565b610271610c14565b565b61027b610b0a565b61029c73ffffffffffffffffffffffffffffffffffffffff84168383610c90565b505050565b6102a9610b0a565b6102715f610d11565b6102ba610b0a565b610271610d85565b6102ca610b0a565b73ffffffffffffffffffffffffffffffffffffffff811661031e576040517f1e4fbdf70000000000000000000000000000000000000000000000000000000081525f60048201526024015b60405180910390fd5b61032781610d11565b50565b600260015403610366576040517f3ee5aeb500000000000000000000000000000000000000000000000000000000815260040160405180910390fd5b6002600155565b5f5474010000000000000000000000000000000000000000900460ff1615610271576040517fd93c066500000000000000000000000000000000000000000000000000000000815260040160405180910390fd5b60608167ffffffffffffffff8111156103dc576103dc6113cb565b604051908082528060200260200182016040528015610405578160200160208202803683370190505b5090505f5b828110156104ec57838382818110610424576104246113f8565b90506020020160208101906104399190611369565b6040517f70a0823100000000000000000000000000000000000000000000000000000000815230600482015273ffffffffffffffffffffffffffffffffffffffff91909116906370a0823190602401602060405180830381865afa1580156104a3573d5f803e3d5ffd5b505050506040513d601f19601f820116820180604052508101906104c79190611425565b8282815181106104d9576104d96113f8565b602090810291909101015260010161040a565b5092915050565b5f5b8181101561029c5736838383818110610510576105106113f8565b60400291909101915061054f90503330602084018035906105319086611369565b73ffffffffffffffffffffffffffffffffffffffff16929190610df3565b506001016104f5565b5f5b8181101561029c5736838383818110610575576105756113f8565b90506080020190506105c28160200160208101906105939190611369565b60408301356105a56020850185611369565b73ffffffffffffffffffffffffffffffffffffffff169190610e39565b5060010161055a565b60608167ffffffffffffffff8111156105e6576105e66113cb565b60405190808252806020026020018201604052801561061957816020015b60608152602001906001900390816106045790505b5090505f5b828110156104ec5736848483818110610639576106396113f8565b905060200281019061064b919061143c565b90505f61065b6040830183611478565b8080601f0160208091040260200160405190810160405280939291908181526020018383808284375f9201829052509394506106a1925050506080840160608501611369565b73ffffffffffffffffffffffffffffffffffffffff16146107fb575f6106cd6080840160608501611369565b6040517f70a0823100000000000000000000000000000000000000000000000000000000815230600482015273ffffffffffffffffffffffffffffffffffffffff91909116906370a0823190602401602060405180830381865afa158015610737573d5f803e3d5ffd5b505050506040513d601f19601f8201168201806040525081019061075b9190611425565b9050805f03610796576040517f8f348c7b00000000000000000000000000000000000000000000000000000000815260040160405180910390fd5b81516107a7608085013560206114d9565b11156107ef5781516040517fce1957cf000000000000000000000000000000000000000000000000000000008152608085013560048201526024810191909152604401610315565b60808301358201602001525b5f8061080a6020850185611369565b73ffffffffffffffffffffffffffffffffffffffff1684602001358460405161083391906114ec565b5f6040518083038185875af1925050503d805f811461086d576040519150601f19603f3d011682016040523d82523d5f602084013e610872565b606091505b5091509150816108f85780511561088c5780518082602001fd5b8461089a6020860186611369565b6040517fbe44d5fa000000000000000000000000000000000000000000000000000000008152600481019290925273ffffffffffffffffffffffffffffffffffffffff166024820152606060448201525f6064820152608401610315565b8086868151811061090b5761090b6113f8565b60200260200101819052508460010194505050505061061e565b5f5b8181101561029c5736838383818110610942576109426113f8565b905060800201905080606001602081019061095d91906114fd565b15610983576109836109756040830160208401611369565b5f6105a56020850185611369565b50600101610927565b5f5b83811015610ae5575f8585838181106109a9576109a96113f8565b90506020020160208101906109be9190611369565b6040517f70a0823100000000000000000000000000000000000000000000000000000000815230600482015273ffffffffffffffffffffffffffffffffffffffff91909116906370a0823190602401602060405180830381865afa158015610a28573d5f803e3d5ffd5b505050506040513d601f19601f82011682018060405250810190610a4c9190611425565b9050838281518110610a6057610a606113f8565b6020026020010151811115610adc57610adc87858481518110610a8557610a856113f8565b602002602001015183610a9891906113b8565b888886818110610aaa57610aaa6113f8565b9050602002016020810190610abf9190611369565b73ffffffffffffffffffffffffffffffffffffffff169190610c90565b5060010161098e565b504781811115610b0257610b0286610afd84846113b8565b610b5c565b505050505050565b5f5473ffffffffffffffffffffffffffffffffffffffff163314610271576040517f118cdaa7000000000000000000000000000000000000000000000000000000008152336004820152602401610315565b80471015610b9f576040517fcf47918100000000000000000000000000000000000000000000000000000000815247600482015260248101829052604401610315565b5f808373ffffffffffffffffffffffffffffffffffffffff16836040515f6040518083038185875af1925050503d805f8114610bf6576040519150601f19603f3d011682016040523d82523d5f602084013e610bfb565b606091505b509150915081610c0e57610c0e81610f10565b50505050565b610c1c610f51565b5f80547fffffffffffffffffffffff00ffffffffffffffffffffffffffffffffffffffff1690557f5db9ee0a495bf2e6ff9c91a7834c1ba4fdd244a5e8aa4e537bd38aeae4b073aa335b60405173ffffffffffffffffffffffffffffffffffffffff909116815260200160405180910390a1565b60405173ffffffffffffffffffffffffffffffffffffffff83811660248301526044820183905261029c91859182169063a9059cbb906064015b604051602081830303815290604052915060e01b6020820180517bffffffffffffffffffffffffffffffffffffffffffffffffffffffff8381831617835250505050610fa4565b5f805473ffffffffffffffffffffffffffffffffffffffff8381167fffffffffffffffffffffffff0000000000000000000000000000000000000000831681178455604051919092169283917f8be0079c531659141344cd1fd0a4f28419497f9722a3daafe3b4186f6b6457e09190a35050565b610d8d61036d565b5f80547fffffffffffffffffffffff00ffffffffffffffffffffffffffffffffffffffff16740100000000000000000000000000000000000000001790557f62e78cea01bee320cd4e420270b5ea74000d11b0c9f74754ebdbfc544b05a258610c663390565b60405173ffffffffffffffffffffffffffffffffffffffff8481166024830152838116604483015260648201839052610c0e9186918216906323b872dd90608401610cca565b6040805173ffffffffffffffffffffffffffffffffffffffff8416602482015260448082018490528251808303909101815260649091019091526020810180517bffffffffffffffffffffffffffffffffffffffffffffffffffffffff167f095ea7b300000000000000000000000000000000000000000000000000000000179052610ec58482611043565b610c0e5760405173ffffffffffffffffffffffffffffffffffffffff84811660248301525f6044830152610f0691869182169063095ea7b390606401610cca565b610c0e8482610fa4565b805115610f1f57805160208201fd5b6040517fd6bda27500000000000000000000000000000000000000000000000000000000815260040160405180910390fd5b5f5474010000000000000000000000000000000000000000900460ff16610271576040517f8dfc202b00000000000000000000000000000000000000000000000000000000815260040160405180910390fd5b5f8060205f8451602086015f885af180610fc3576040513d5f823e3d81fd5b50505f513d91508115610fda578060011415610ff4565b73ffffffffffffffffffffffffffffffffffffffff84163b155b15610c0e576040517f5274afe700000000000000000000000000000000000000000000000000000000815273ffffffffffffffffffffffffffffffffffffffff85166004820152602401610315565b5f805f8060205f8651602088015f8a5af192503d91505f51905082801561108f57508115611074578060011461108f565b5f8673ffffffffffffffffffffffffffffffffffffffff163b115b93505050505b92915050565b5f8083601f8401126110ab575f80fd5b50813567ffffffffffffffff8111156110c2575f80fd5b6020830191508360208260071b85010111156110dc575f80fd5b9250929050565b5f8083601f8401126110f3575f80fd5b50813567ffffffffffffffff81111561110a575f80fd5b6020830191508360208260051b85010111156110dc575f80fd5b5f805f805f805f806080898b03121561113b575f80fd5b883567ffffffffffffffff80821115611152575f80fd5b818b0191508b601f830112611165575f80fd5b813581811115611173575f80fd5b8c60208260061b8501011115611187575f80fd5b60209283019a509850908a013590808211156111a1575f80fd5b6111ad8c838d0161109b565b909850965060408b01359150808211156111c5575f80fd5b6111d18c838d016110e3565b909650945060608b01359150808211156111e9575f80fd5b506111f68b828c016110e3565b999c989b5096995094979396929594505050565b5f5b8381101561122457818101518382015260200161120c565b50505f910152565b5f602080830181845280855180835260408601915060408160051b87010192508387015f5b828110156112d3577fffffffffffffffffffffffffffffffffffffffffffffffffffffffffffffffc088860301845281518051808752611296818989018a850161120a565b601f017fffffffffffffffffffffffffffffffffffffffffffffffffffffffffffffffe01695909501860194509285019290850190600101611251565b5092979650505050505050565b73ffffffffffffffffffffffffffffffffffffffff81168114610327575f80fd5b5f8060408385031215611312575f80fd5b823561131d816112e0565b946020939093013593505050565b5f805f6060848603121561133d575f80fd5b8335611348816112e0565b92506020840135611358816112e0565b929592945050506040919091013590565b5f60208284031215611379575f80fd5b8135611384816112e0565b9392505050565b7f4e487b71000000000000000000000000000000000000000000000000000000005f52601160045260245ffd5b818103818111156110955761109561138b565b7f4e487b71000000000000000000000000000000000000000000000000000000005f52604160045260245ffd5b7f4e487b71000000000000000000000000000000000000000000000000000000005f52603260045260245ffd5b5f60208284031215611435575f80fd5b5051919050565b5f82357fffffffffffffffffffffffffffffffffffffffffffffffffffffffffffffff6183360301811261146e575f80fd5b9190910192915050565b5f8083357fffffffffffffffffffffffffffffffffffffffffffffffffffffffffffffffe18436030181126114ab575f80fd5b83018035915067ffffffffffffffff8211156114c5575f80fd5b6020019150368190038213156110dc575f80fd5b808201808211156110955761109561138b565b5f825161146e81846020870161120a565b5f6020828403121561150d575f80fd5b81358015158114611384575f80fdfea2646970667358221220f0c59c307a57443ed7a243833eddf18c05e24c4adcfd694899b9ceea06cf7b0f64736f6c63430008180033","opcodes":"PUSH1 0x80 PUSH1 0x40 MSTORE CALLVALUE DUP1 ISZERO PUSH2 0xF JUMPI PUSH0 DUP1 REVERT JUMPDEST POP PUSH1 0x40 MLOAD PUSH2 0x164B CODESIZE SUB DUP1 PUSH2 0x164B DUP4 CODECOPY DUP2 ADD PUSH1 0x40 DUP2 SWAP1 MSTORE PUSH2 0x2E SWAP2 PUSH2 0xBF JUMP JUMPDEST DUP1 PUSH1 0x1 PUSH1 0x1 PUSH1 0xA0 SHL SUB DUP2 AND PUSH2 0x5C JUMPI PUSH1 0x40 MLOAD PUSH4 0x1E4FBDF7 PUSH1 0xE0 SHL DUP2 MSTORE PUSH0 PUSH1 0x4 DUP3 ADD MSTORE PUSH1 0x24 ADD PUSH1 0x40 MLOAD DUP1 SWAP2 SUB SWAP1 REVERT JUMPDEST PUSH2 0x65 DUP2 PUSH2 0x70 JUMP JUMPDEST POP POP PUSH1 0x1 DUP1 SSTORE PUSH2 0xEC JUMP JUMPDEST PUSH0 DUP1 SLOAD PUSH1 0x1 PUSH1 0x1 PUSH1 0xA0 SHL SUB DUP4 DUP2 AND PUSH1 0x1 PUSH1 0x1 PUSH1 0xA0 SHL SUB NOT DUP4 AND DUP2 OR DUP5 SSTORE PUSH1 0x40 MLOAD SWAP2 SWAP1 SWAP3 AND SWAP3 DUP4 SWAP2 PUSH32 0x8BE0079C531659141344CD1FD0A4F28419497F9722A3DAAFE3B4186F6B6457E0 SWAP2 SWAP1 LOG3 POP POP JUMP JUMPDEST PUSH0 PUSH1 0x20 DUP3 DUP5 SUB SLT ISZERO PUSH2 0xCF JUMPI PUSH0 DUP1 REVERT JUMPDEST DUP2 MLOAD PUSH1 0x1 PUSH1 0x1 PUSH1 0xA0 SHL SUB DUP2 AND DUP2 EQ PUSH2 0xE5 JUMPI PUSH0 DUP1 REVERT JUMPDEST SWAP4 SWAP3 POP POP POP JUMP JUMPDEST PUSH2 0x1552 DUP1 PUSH2 0xF9 PUSH0 CODECOPY PUSH0 RETURN INVALID PUSH1 0x80 PUSH1 0x40 MSTORE PUSH1 0x4 CALLDATASIZE LT PUSH2 0x96 JUMPI PUSH0 CALLDATALOAD PUSH1 0xE0 SHR DUP1 PUSH4 0x6CCAE054 GT PUSH2 0x66 JUMPI DUP1 PUSH4 0x8456CB59 GT PUSH2 0x4C JUMPI DUP1 PUSH4 0x8456CB59 EQ PUSH2 0x16B JUMPI DUP1 PUSH4 0x8DA5CB5B EQ PUSH2 0x17F JUMPI DUP1 PUSH4 0xF2FDE38B EQ PUSH2 0x1B2 JUMPI PUSH0 DUP1 REVERT JUMPDEST DUP1 PUSH4 0x6CCAE054 EQ PUSH2 0x138 JUMPI DUP1 PUSH4 0x715018A6 EQ PUSH2 0x157 JUMPI PUSH0 DUP1 REVERT JUMPDEST DUP1 PUSH4 0x5825102 EQ PUSH2 0xA1 JUMPI DUP1 PUSH4 0x99A04E5 EQ PUSH2 0xCA JUMPI DUP1 PUSH4 0x3F4BA83A EQ PUSH2 0xEB JUMPI DUP1 PUSH4 0x5C975ABB EQ PUSH2 0xFF JUMPI PUSH0 DUP1 REVERT JUMPDEST CALLDATASIZE PUSH2 0x9D JUMPI STOP JUMPDEST PUSH0 DUP1 REVERT JUMPDEST PUSH2 0xB4 PUSH2 0xAF CALLDATASIZE PUSH1 0x4 PUSH2 0x1124 JUMP JUMPDEST PUSH2 0x1D1 JUMP JUMPDEST PUSH1 0x40 MLOAD PUSH2 0xC1 SWAP2 SWAP1 PUSH2 0x122C JUMP JUMPDEST PUSH1 0x40 MLOAD DUP1 SWAP2 SUB SWAP1 RETURN JUMPDEST CALLVALUE DUP1 ISZERO PUSH2 0xD5 JUMPI PUSH0 DUP1 REVERT JUMPDEST POP PUSH2 0xE9 PUSH2 0xE4 CALLDATASIZE PUSH1 0x4 PUSH2 0x1301 JUMP JUMPDEST PUSH2 0x24B JUMP JUMPDEST STOP JUMPDEST CALLVALUE DUP1 ISZERO PUSH2 0xF6 JUMPI PUSH0 DUP1 REVERT JUMPDEST POP PUSH2 0xE9 PUSH2 0x261 JUMP JUMPDEST CALLVALUE DUP1 ISZERO PUSH2 0x10A JUMPI PUSH0 DUP1 REVERT JUMPDEST POP PUSH0 SLOAD PUSH21 0x10000000000000000000000000000000000000000 SWAP1 DIV PUSH1 0xFF AND PUSH1 0x40 MLOAD SWAP1 ISZERO ISZERO DUP2 MSTORE PUSH1 0x20 ADD PUSH2 0xC1 JUMP JUMPDEST CALLVALUE DUP1 ISZERO PUSH2 0x143 JUMPI PUSH0 DUP1 REVERT JUMPDEST POP PUSH2 0xE9 PUSH2 0x152 CALLDATASIZE PUSH1 0x4 PUSH2 0x132B JUMP JUMPDEST PUSH2 0x273 JUMP JUMPDEST CALLVALUE DUP1 ISZERO PUSH2 0x162 JUMPI PUSH0 DUP1 REVERT JUMPDEST POP PUSH2 0xE9 PUSH2 0x2A1 JUMP JUMPDEST CALLVALUE DUP1 ISZERO PUSH2 0x176 JUMPI PUSH0 DUP1 REVERT JUMPDEST POP PUSH2 0xE9 PUSH2 0x2B2 JUMP JUMPDEST CALLVALUE DUP1 ISZERO PUSH2 0x18A JUMPI PUSH0 DUP1 REVERT JUMPDEST POP PUSH0 SLOAD PUSH1 0x40 MLOAD PUSH20 0xFFFFFFFFFFFFFFFFFFFFFFFFFFFFFFFFFFFFFFFF SWAP1 SWAP2 AND DUP2 MSTORE PUSH1 0x20 ADD PUSH2 0xC1 JUMP JUMPDEST CALLVALUE DUP1 ISZERO PUSH2 0x1BD JUMPI PUSH0 DUP1 REVERT JUMPDEST POP PUSH2 0xE9 PUSH2 0x1CC CALLDATASIZE PUSH1 0x4 PUSH2 0x1369 JUMP JUMPDEST PUSH2 0x2C2 JUMP JUMPDEST PUSH1 0x60 PUSH2 0x1DB PUSH2 0x32A JUMP JUMPDEST PUSH2 0x1E3 PUSH2 0x36D JUMP JUMPDEST PUSH0 PUSH2 0x1EE CALLVALUE SELFBALANCE PUSH2 0x13B8 JUMP JUMPDEST SWAP1 POP PUSH0 PUSH2 0x1FB DUP6 DUP6 PUSH2 0x3C1 JUMP JUMPDEST SWAP1 POP PUSH2 0x207 DUP12 DUP12 PUSH2 0x4F3 JUMP JUMPDEST PUSH2 0x211 DUP10 DUP10 PUSH2 0x558 JUMP JUMPDEST PUSH2 0x21B DUP8 DUP8 PUSH2 0x5CB JUMP JUMPDEST SWAP3 POP PUSH2 0x227 DUP10 DUP10 PUSH2 0x925 JUMP JUMPDEST PUSH2 0x234 CALLER DUP7 DUP7 DUP5 DUP7 PUSH2 0x98C JUMP JUMPDEST POP POP PUSH2 0x23F PUSH1 0x1 DUP1 SSTORE JUMP JUMPDEST SWAP9 SWAP8 POP POP POP POP POP POP POP POP JUMP JUMPDEST PUSH2 0x253 PUSH2 0xB0A JUMP JUMPDEST PUSH2 0x25D DUP3 DUP3 PUSH2 0xB5C JUMP JUMPDEST POP POP JUMP JUMPDEST PUSH2 0x269 PUSH2 0xB0A JUMP JUMPDEST PUSH2 0x271 PUSH2 0xC14 JUMP JUMPDEST JUMP JUMPDEST PUSH2 0x27B PUSH2 0xB0A JUMP JUMPDEST PUSH2 0x29C PUSH20 0xFFFFFFFFFFFFFFFFFFFFFFFFFFFFFFFFFFFFFFFF DUP5 AND DUP4 DUP4 PUSH2 0xC90 JUMP JUMPDEST POP POP POP JUMP JUMPDEST PUSH2 0x2A9 PUSH2 0xB0A JUMP JUMPDEST PUSH2 0x271 PUSH0 PUSH2 0xD11 JUMP JUMPDEST PUSH2 0x2BA PUSH2 0xB0A JUMP JUMPDEST PUSH2 0x271 PUSH2 0xD85 JUMP JUMPDEST PUSH2 0x2CA PUSH2 0xB0A JUMP JUMPDEST PUSH20 0xFFFFFFFFFFFFFFFFFFFFFFFFFFFFFFFFFFFFFFFF DUP2 AND PUSH2 0x31E JUMPI PUSH1 0x40 MLOAD PUSH32 0x1E4FBDF700000000000000000000000000000000000000000000000000000000 DUP2 MSTORE PUSH0 PUSH1 0x4 DUP3 ADD MSTORE PUSH1 0x24 ADD JUMPDEST PUSH1 0x40 MLOAD DUP1 SWAP2 SUB SWAP1 REVERT JUMPDEST PUSH2 0x327 DUP2 PUSH2 0xD11 JUMP JUMPDEST POP JUMP JUMPDEST PUSH1 0x2 PUSH1 0x1 SLOAD SUB PUSH2 0x366 JUMPI PUSH1 0x40 MLOAD PUSH32 0x3EE5AEB500000000000000000000000000000000000000000000000000000000 DUP2 MSTORE PUSH1 0x4 ADD PUSH1 0x40 MLOAD DUP1 SWAP2 SUB SWAP1 REVERT JUMPDEST PUSH1 0x2 PUSH1 0x1 SSTORE JUMP JUMPDEST PUSH0 SLOAD PUSH21 0x10000000000000000000000000000000000000000 SWAP1 DIV PUSH1 0xFF AND ISZERO PUSH2 0x271 JUMPI PUSH1 0x40 MLOAD PUSH32 0xD93C066500000000000000000000000000000000000000000000000000000000 DUP2 MSTORE PUSH1 0x4 ADD PUSH1 0x40 MLOAD DUP1 SWAP2 SUB SWAP1 REVERT JUMPDEST PUSH1 0x60 DUP2 PUSH8 0xFFFFFFFFFFFFFFFF DUP2 GT ISZERO PUSH2 0x3DC JUMPI PUSH2 0x3DC PUSH2 0x13CB JUMP JUMPDEST PUSH1 0x40 MLOAD SWAP1 DUP1 DUP3 MSTORE DUP1 PUSH1 0x20 MUL PUSH1 0x20 ADD DUP3 ADD PUSH1 0x40 MSTORE DUP1 ISZERO PUSH2 0x405 JUMPI DUP2 PUSH1 0x20 ADD PUSH1 0x20 DUP3 MUL DUP1 CALLDATASIZE DUP4 CALLDATACOPY ADD SWAP1 POP JUMPDEST POP SWAP1 POP PUSH0 JUMPDEST DUP3 DUP2 LT ISZERO PUSH2 0x4EC JUMPI DUP4 DUP4 DUP3 DUP2 DUP2 LT PUSH2 0x424 JUMPI PUSH2 0x424 PUSH2 0x13F8 JUMP JUMPDEST SWAP1 POP PUSH1 0x20 MUL ADD PUSH1 0x20 DUP2 ADD SWAP1 PUSH2 0x439 SWAP2 SWAP1 PUSH2 0x1369 JUMP JUMPDEST PUSH1 0x40 MLOAD PUSH32 0x70A0823100000000000000000000000000000000000000000000000000000000 DUP2 MSTORE ADDRESS PUSH1 0x4 DUP3 ADD MSTORE PUSH20 0xFFFFFFFFFFFFFFFFFFFFFFFFFFFFFFFFFFFFFFFF SWAP2 SWAP1 SWAP2 AND SWAP1 PUSH4 0x70A08231 SWAP1 PUSH1 0x24 ADD PUSH1 0x20 PUSH1 0x40 MLOAD DUP1 DUP4 SUB DUP2 DUP7 GAS STATICCALL ISZERO DUP1 ISZERO PUSH2 0x4A3 JUMPI RETURNDATASIZE PUSH0 DUP1 RETURNDATACOPY RETURNDATASIZE PUSH0 REVERT JUMPDEST POP POP POP POP PUSH1 0x40 MLOAD RETURNDATASIZE PUSH1 0x1F NOT PUSH1 0x1F DUP3 ADD AND DUP3 ADD DUP1 PUSH1 0x40 MSTORE POP DUP2 ADD SWAP1 PUSH2 0x4C7 SWAP2 SWAP1 PUSH2 0x1425 JUMP JUMPDEST DUP3 DUP3 DUP2 MLOAD DUP2 LT PUSH2 0x4D9 JUMPI PUSH2 0x4D9 PUSH2 0x13F8 JUMP JUMPDEST PUSH1 0x20 SWAP1 DUP2 MUL SWAP2 SWAP1 SWAP2 ADD ADD MSTORE PUSH1 0x1 ADD PUSH2 0x40A JUMP JUMPDEST POP SWAP3 SWAP2 POP POP JUMP JUMPDEST PUSH0 JUMPDEST DUP2 DUP2 LT ISZERO PUSH2 0x29C JUMPI CALLDATASIZE DUP4 DUP4 DUP4 DUP2 DUP2 LT PUSH2 0x510 JUMPI PUSH2 0x510 PUSH2 0x13F8 JUMP JUMPDEST PUSH1 0x40 MUL SWAP2 SWAP1 SWAP2 ADD SWAP2 POP PUSH2 0x54F SWAP1 POP CALLER ADDRESS PUSH1 0x20 DUP5 ADD DUP1 CALLDATALOAD SWAP1 PUSH2 0x531 SWAP1 DUP7 PUSH2 0x1369 JUMP JUMPDEST PUSH20 0xFFFFFFFFFFFFFFFFFFFFFFFFFFFFFFFFFFFFFFFF AND SWAP3 SWAP2 SWAP1 PUSH2 0xDF3 JUMP JUMPDEST POP PUSH1 0x1 ADD PUSH2 0x4F5 JUMP JUMPDEST PUSH0 JUMPDEST DUP2 DUP2 LT ISZERO PUSH2 0x29C JUMPI CALLDATASIZE DUP4 DUP4 DUP4 DUP2 DUP2 LT PUSH2 0x575 JUMPI PUSH2 0x575 PUSH2 0x13F8 JUMP JUMPDEST SWAP1 POP PUSH1 0x80 MUL ADD SWAP1 POP PUSH2 0x5C2 DUP2 PUSH1 0x20 ADD PUSH1 0x20 DUP2 ADD SWAP1 PUSH2 0x593 SWAP2 SWAP1 PUSH2 0x1369 JUMP JUMPDEST PUSH1 0x40 DUP4 ADD CALLDATALOAD PUSH2 0x5A5 PUSH1 0x20 DUP6 ADD DUP6 PUSH2 0x1369 JUMP JUMPDEST PUSH20 0xFFFFFFFFFFFFFFFFFFFFFFFFFFFFFFFFFFFFFFFF AND SWAP2 SWAP1 PUSH2 0xE39 JUMP JUMPDEST POP PUSH1 0x1 ADD PUSH2 0x55A JUMP JUMPDEST PUSH1 0x60 DUP2 PUSH8 0xFFFFFFFFFFFFFFFF DUP2 GT ISZERO PUSH2 0x5E6 JUMPI PUSH2 0x5E6 PUSH2 0x13CB JUMP JUMPDEST PUSH1 0x40 MLOAD SWAP1 DUP1 DUP3 MSTORE DUP1 PUSH1 0x20 MUL PUSH1 0x20 ADD DUP3 ADD PUSH1 0x40 MSTORE DUP1 ISZERO PUSH2 0x619 JUMPI DUP2 PUSH1 0x20 ADD JUMPDEST PUSH1 0x60 DUP2 MSTORE PUSH1 0x20 ADD SWAP1 PUSH1 0x1 SWAP1 SUB SWAP1 DUP2 PUSH2 0x604 JUMPI SWAP1 POP JUMPDEST POP SWAP1 POP PUSH0 JUMPDEST DUP3 DUP2 LT ISZERO PUSH2 0x4EC JUMPI CALLDATASIZE DUP5 DUP5 DUP4 DUP2 DUP2 LT PUSH2 0x639 JUMPI PUSH2 0x639 PUSH2 0x13F8 JUMP JUMPDEST SWAP1 POP PUSH1 0x20 MUL DUP2 ADD SWAP1 PUSH2 0x64B SWAP2 SWAP1 PUSH2 0x143C JUMP JUMPDEST SWAP1 POP PUSH0 PUSH2 0x65B PUSH1 0x40 DUP4 ADD DUP4 PUSH2 0x1478 JUMP JUMPDEST DUP1 DUP1 PUSH1 0x1F ADD PUSH1 0x20 DUP1 SWAP2 DIV MUL PUSH1 0x20 ADD PUSH1 0x40 MLOAD SWAP1 DUP2 ADD PUSH1 0x40 MSTORE DUP1 SWAP4 SWAP3 SWAP2 SWAP1 DUP2 DUP2 MSTORE PUSH1 0x20 ADD DUP4 DUP4 DUP1 DUP3 DUP5 CALLDATACOPY PUSH0 SWAP3 ADD DUP3 SWAP1 MSTORE POP SWAP4 SWAP5 POP PUSH2 0x6A1 SWAP3 POP POP POP PUSH1 0x80 DUP5 ADD PUSH1 0x60 DUP6 ADD PUSH2 0x1369 JUMP JUMPDEST PUSH20 0xFFFFFFFFFFFFFFFFFFFFFFFFFFFFFFFFFFFFFFFF AND EQ PUSH2 0x7FB JUMPI PUSH0 PUSH2 0x6CD PUSH1 0x80 DUP5 ADD PUSH1 0x60 DUP6 ADD PUSH2 0x1369 JUMP JUMPDEST PUSH1 0x40 MLOAD PUSH32 0x70A0823100000000000000000000000000000000000000000000000000000000 DUP2 MSTORE ADDRESS PUSH1 0x4 DUP3 ADD MSTORE PUSH20 0xFFFFFFFFFFFFFFFFFFFFFFFFFFFFFFFFFFFFFFFF SWAP2 SWAP1 SWAP2 AND SWAP1 PUSH4 0x70A08231 SWAP1 PUSH1 0x24 ADD PUSH1 0x20 PUSH1 0x40 MLOAD DUP1 DUP4 SUB DUP2 DUP7 GAS STATICCALL ISZERO DUP1 ISZERO PUSH2 0x737 JUMPI RETURNDATASIZE PUSH0 DUP1 RETURNDATACOPY RETURNDATASIZE PUSH0 REVERT JUMPDEST POP POP POP POP PUSH1 0x40 MLOAD RETURNDATASIZE PUSH1 0x1F NOT PUSH1 0x1F DUP3 ADD AND DUP3 ADD DUP1 PUSH1 0x40 MSTORE POP DUP2 ADD SWAP1 PUSH2 0x75B SWAP2 SWAP1 PUSH2 0x1425 JUMP JUMPDEST SWAP1 POP DUP1 PUSH0 SUB PUSH2 0x796 JUMPI PUSH1 0x40 MLOAD PUSH32 0x8F348C7B00000000000000000000000000000000000000000000000000000000 DUP2 MSTORE PUSH1 0x4 ADD PUSH1 0x40 MLOAD DUP1 SWAP2 SUB SWAP1 REVERT JUMPDEST DUP2 MLOAD PUSH2 0x7A7 PUSH1 0x80 DUP6 ADD CALLDATALOAD PUSH1 0x20 PUSH2 0x14D9 JUMP JUMPDEST GT ISZERO PUSH2 0x7EF JUMPI DUP2 MLOAD PUSH1 0x40 MLOAD PUSH32 0xCE1957CF00000000000000000000000000000000000000000000000000000000 DUP2 MSTORE PUSH1 0x80 DUP6 ADD CALLDATALOAD PUSH1 0x4 DUP3 ADD MSTORE PUSH1 0x24 DUP2 ADD SWAP2 SWAP1 SWAP2 MSTORE PUSH1 0x44 ADD PUSH2 0x315 JUMP JUMPDEST PUSH1 0x80 DUP4 ADD CALLDATALOAD DUP3 ADD PUSH1 0x20 ADD MSTORE JUMPDEST PUSH0 DUP1 PUSH2 0x80A PUSH1 0x20 DUP6 ADD DUP6 PUSH2 0x1369 JUMP JUMPDEST PUSH20 0xFFFFFFFFFFFFFFFFFFFFFFFFFFFFFFFFFFFFFFFF AND DUP5 PUSH1 0x20 ADD CALLDATALOAD DUP5 PUSH1 0x40 MLOAD PUSH2 0x833 SWAP2 SWAP1 PUSH2 0x14EC JUMP JUMPDEST PUSH0 PUSH1 0x40 MLOAD DUP1 DUP4 SUB DUP2 DUP6 DUP8 GAS CALL SWAP3 POP POP POP RETURNDATASIZE DUP1 PUSH0 DUP2 EQ PUSH2 0x86D JUMPI PUSH1 0x40 MLOAD SWAP2 POP PUSH1 0x1F NOT PUSH1 0x3F RETURNDATASIZE ADD AND DUP3 ADD PUSH1 0x40 MSTORE RETURNDATASIZE DUP3 MSTORE RETURNDATASIZE PUSH0 PUSH1 0x20 DUP5 ADD RETURNDATACOPY PUSH2 0x872 JUMP JUMPDEST PUSH1 0x60 SWAP2 POP JUMPDEST POP SWAP2 POP SWAP2 POP DUP2 PUSH2 0x8F8 JUMPI DUP1 MLOAD ISZERO PUSH2 0x88C JUMPI DUP1 MLOAD DUP1 DUP3 PUSH1 0x20 ADD REVERT JUMPDEST DUP5 PUSH2 0x89A PUSH1 0x20 DUP7 ADD DUP7 PUSH2 0x1369 JUMP JUMPDEST PUSH1 0x40 MLOAD PUSH32 0xBE44D5FA00000000000000000000000000000000000000000000000000000000 DUP2 MSTORE PUSH1 0x4 DUP2 ADD SWAP3 SWAP1 SWAP3 MSTORE PUSH20 0xFFFFFFFFFFFFFFFFFFFFFFFFFFFFFFFFFFFFFFFF AND PUSH1 0x24 DUP3 ADD MSTORE PUSH1 0x60 PUSH1 0x44 DUP3 ADD MSTORE PUSH0 PUSH1 0x64 DUP3 ADD MSTORE PUSH1 0x84 ADD PUSH2 0x315 JUMP JUMPDEST DUP1 DUP7 DUP7 DUP2 MLOAD DUP2 LT PUSH2 0x90B JUMPI PUSH2 0x90B PUSH2 0x13F8 JUMP JUMPDEST PUSH1 0x20 MUL PUSH1 0x20 ADD ADD DUP2 SWAP1 MSTORE POP DUP5 PUSH1 0x1 ADD SWAP5 POP POP POP POP POP PUSH2 0x61E JUMP JUMPDEST PUSH0 JUMPDEST DUP2 DUP2 LT ISZERO PUSH2 0x29C JUMPI CALLDATASIZE DUP4 DUP4 DUP4 DUP2 DUP2 LT PUSH2 0x942 JUMPI PUSH2 0x942 PUSH2 0x13F8 JUMP JUMPDEST SWAP1 POP PUSH1 0x80 MUL ADD SWAP1 POP DUP1 PUSH1 0x60 ADD PUSH1 0x20 DUP2 ADD SWAP1 PUSH2 0x95D SWAP2 SWAP1 PUSH2 0x14FD JUMP JUMPDEST ISZERO PUSH2 0x983 JUMPI PUSH2 0x983 PUSH2 0x975 PUSH1 0x40 DUP4 ADD PUSH1 0x20 DUP5 ADD PUSH2 0x1369 JUMP JUMPDEST PUSH0 PUSH2 0x5A5 PUSH1 0x20 DUP6 ADD DUP6 PUSH2 0x1369 JUMP JUMPDEST POP PUSH1 0x1 ADD PUSH2 0x927 JUMP JUMPDEST PUSH0 JUMPDEST DUP4 DUP2 LT ISZERO PUSH2 0xAE5 JUMPI PUSH0 DUP6 DUP6 DUP4 DUP2 DUP2 LT PUSH2 0x9A9 JUMPI PUSH2 0x9A9 PUSH2 0x13F8 JUMP JUMPDEST SWAP1 POP PUSH1 0x20 MUL ADD PUSH1 0x20 DUP2 ADD SWAP1 PUSH2 0x9BE SWAP2 SWAP1 PUSH2 0x1369 JUMP JUMPDEST PUSH1 0x40 MLOAD PUSH32 0x70A0823100000000000000000000000000000000000000000000000000000000 DUP2 MSTORE ADDRESS PUSH1 0x4 DUP3 ADD MSTORE PUSH20 0xFFFFFFFFFFFFFFFFFFFFFFFFFFFFFFFFFFFFFFFF SWAP2 SWAP1 SWAP2 AND SWAP1 PUSH4 0x70A08231 SWAP1 PUSH1 0x24 ADD PUSH1 0x20 PUSH1 0x40 MLOAD DUP1 DUP4 SUB DUP2 DUP7 GAS STATICCALL ISZERO DUP1 ISZERO PUSH2 0xA28 JUMPI RETURNDATASIZE PUSH0 DUP1 RETURNDATACOPY RETURNDATASIZE PUSH0 REVERT JUMPDEST POP POP POP POP PUSH1 0x40 MLOAD RETURNDATASIZE PUSH1 0x1F NOT PUSH1 0x1F DUP3 ADD AND DUP3 ADD DUP1 PUSH1 0x40 MSTORE POP DUP2 ADD SWAP1 PUSH2 0xA4C SWAP2 SWAP1 PUSH2 0x1425 JUMP JUMPDEST SWAP1 POP DUP4 DUP3 DUP2 MLOAD DUP2 LT PUSH2 0xA60 JUMPI PUSH2 0xA60 PUSH2 0x13F8 JUMP JUMPDEST PUSH1 0x20 MUL PUSH1 0x20 ADD ADD MLOAD DUP2 GT ISZERO PUSH2 0xADC JUMPI PUSH2 0xADC DUP8 DUP6 DUP5 DUP2 MLOAD DUP2 LT PUSH2 0xA85 JUMPI PUSH2 0xA85 PUSH2 0x13F8 JUMP JUMPDEST PUSH1 0x20 MUL PUSH1 0x20 ADD ADD MLOAD DUP4 PUSH2 0xA98 SWAP2 SWAP1 PUSH2 0x13B8 JUMP JUMPDEST DUP9 DUP9 DUP7 DUP2 DUP2 LT PUSH2 0xAAA JUMPI PUSH2 0xAAA PUSH2 0x13F8 JUMP JUMPDEST SWAP1 POP PUSH1 0x20 MUL ADD PUSH1 0x20 DUP2 ADD SWAP1 PUSH2 0xABF SWAP2 SWAP1 PUSH2 0x1369 JUMP JUMPDEST PUSH20 0xFFFFFFFFFFFFFFFFFFFFFFFFFFFFFFFFFFFFFFFF AND SWAP2 SWAP1 PUSH2 0xC90 JUMP JUMPDEST POP PUSH1 0x1 ADD PUSH2 0x98E JUMP JUMPDEST POP SELFBALANCE DUP2 DUP2 GT ISZERO PUSH2 0xB02 JUMPI PUSH2 0xB02 DUP7 PUSH2 0xAFD DUP5 DUP5 PUSH2 0x13B8 JUMP JUMPDEST PUSH2 0xB5C JUMP JUMPDEST POP POP POP POP POP POP JUMP JUMPDEST PUSH0 SLOAD PUSH20 0xFFFFFFFFFFFFFFFFFFFFFFFFFFFFFFFFFFFFFFFF AND CALLER EQ PUSH2 0x271 JUMPI PUSH1 0x40 MLOAD PUSH32 0x118CDAA700000000000000000000000000000000000000000000000000000000 DUP2 MSTORE CALLER PUSH1 0x4 DUP3 ADD MSTORE PUSH1 0x24 ADD PUSH2 0x315 JUMP JUMPDEST DUP1 SELFBALANCE LT ISZERO PUSH2 0xB9F JUMPI PUSH1 0x40 MLOAD PUSH32 0xCF47918100000000000000000000000000000000000000000000000000000000 DUP2 MSTORE SELFBALANCE PUSH1 0x4 DUP3 ADD MSTORE PUSH1 0x24 DUP2 ADD DUP3 SWAP1 MSTORE PUSH1 0x44 ADD PUSH2 0x315 JUMP JUMPDEST PUSH0 DUP1 DUP4 PUSH20 0xFFFFFFFFFFFFFFFFFFFFFFFFFFFFFFFFFFFFFFFF AND DUP4 PUSH1 0x40 MLOAD PUSH0 PUSH1 0x40 MLOAD DUP1 DUP4 SUB DUP2 DUP6 DUP8 GAS CALL SWAP3 POP POP POP RETURNDATASIZE DUP1 PUSH0 DUP2 EQ PUSH2 0xBF6 JUMPI PUSH1 0x40 MLOAD SWAP2 POP PUSH1 0x1F NOT PUSH1 0x3F RETURNDATASIZE ADD AND DUP3 ADD PUSH1 0x40 MSTORE RETURNDATASIZE DUP3 MSTORE RETURNDATASIZE PUSH0 PUSH1 0x20 DUP5 ADD RETURNDATACOPY PUSH2 0xBFB JUMP JUMPDEST PUSH1 0x60 SWAP2 POP JUMPDEST POP SWAP2 POP SWAP2 POP DUP2 PUSH2 0xC0E JUMPI PUSH2 0xC0E DUP2 PUSH2 0xF10 JUMP JUMPDEST POP POP POP POP JUMP JUMPDEST PUSH2 0xC1C PUSH2 0xF51 JUMP JUMPDEST PUSH0 DUP1 SLOAD PUSH32 0xFFFFFFFFFFFFFFFFFFFFFF00FFFFFFFFFFFFFFFFFFFFFFFFFFFFFFFFFFFFFFFF AND SWAP1 SSTORE PUSH32 0x5DB9EE0A495BF2E6FF9C91A7834C1BA4FDD244A5E8AA4E537BD38AEAE4B073AA CALLER JUMPDEST PUSH1 0x40 MLOAD PUSH20 0xFFFFFFFFFFFFFFFFFFFFFFFFFFFFFFFFFFFFFFFF SWAP1 SWAP2 AND DUP2 MSTORE PUSH1 0x20 ADD PUSH1 0x40 MLOAD DUP1 SWAP2 SUB SWAP1 LOG1 JUMP JUMPDEST PUSH1 0x40 MLOAD PUSH20 0xFFFFFFFFFFFFFFFFFFFFFFFFFFFFFFFFFFFFFFFF DUP4 DUP2 AND PUSH1 0x24 DUP4 ADD MSTORE PUSH1 0x44 DUP3 ADD DUP4 SWAP1 MSTORE PUSH2 0x29C SWAP2 DUP6 SWAP2 DUP3 AND SWAP1 PUSH4 0xA9059CBB SWAP1 PUSH1 0x64 ADD JUMPDEST PUSH1 0x40 MLOAD PUSH1 0x20 DUP2 DUP4 SUB SUB DUP2 MSTORE SWAP1 PUSH1 0x40 MSTORE SWAP2 POP PUSH1 0xE0 SHL PUSH1 0x20 DUP3 ADD DUP1 MLOAD PUSH28 0xFFFFFFFFFFFFFFFFFFFFFFFFFFFFFFFFFFFFFFFFFFFFFFFFFFFFFFFF DUP4 DUP2 DUP4 AND OR DUP4 MSTORE POP POP POP POP PUSH2 0xFA4 JUMP JUMPDEST PUSH0 DUP1 SLOAD PUSH20 0xFFFFFFFFFFFFFFFFFFFFFFFFFFFFFFFFFFFFFFFF DUP4 DUP2 AND PUSH32 0xFFFFFFFFFFFFFFFFFFFFFFFF0000000000000000000000000000000000000000 DUP4 AND DUP2 OR DUP5 SSTORE PUSH1 0x40 MLOAD SWAP2 SWAP1 SWAP3 AND SWAP3 DUP4 SWAP2 PUSH32 0x8BE0079C531659141344CD1FD0A4F28419497F9722A3DAAFE3B4186F6B6457E0 SWAP2 SWAP1 LOG3 POP POP JUMP JUMPDEST PUSH2 0xD8D PUSH2 0x36D JUMP JUMPDEST PUSH0 DUP1 SLOAD PUSH32 0xFFFFFFFFFFFFFFFFFFFFFF00FFFFFFFFFFFFFFFFFFFFFFFFFFFFFFFFFFFFFFFF AND PUSH21 0x10000000000000000000000000000000000000000 OR SWAP1 SSTORE PUSH32 0x62E78CEA01BEE320CD4E420270B5EA74000D11B0C9F74754EBDBFC544B05A258 PUSH2 0xC66 CALLER SWAP1 JUMP JUMPDEST PUSH1 0x40 MLOAD PUSH20 0xFFFFFFFFFFFFFFFFFFFFFFFFFFFFFFFFFFFFFFFF DUP5 DUP2 AND PUSH1 0x24 DUP4 ADD MSTORE DUP4 DUP2 AND PUSH1 0x44 DUP4 ADD MSTORE PUSH1 0x64 DUP3 ADD DUP4 SWAP1 MSTORE PUSH2 0xC0E SWAP2 DUP7 SWAP2 DUP3 AND SWAP1 PUSH4 0x23B872DD SWAP1 PUSH1 0x84 ADD PUSH2 0xCCA JUMP JUMPDEST PUSH1 0x40 DUP1 MLOAD PUSH20 0xFFFFFFFFFFFFFFFFFFFFFFFFFFFFFFFFFFFFFFFF DUP5 AND PUSH1 0x24 DUP3 ADD MSTORE PUSH1 0x44 DUP1 DUP3 ADD DUP5 SWAP1 MSTORE DUP3 MLOAD DUP1 DUP4 SUB SWAP1 SWAP2 ADD DUP2 MSTORE PUSH1 0x64 SWAP1 SWAP2 ADD SWAP1 SWAP2 MSTORE PUSH1 0x20 DUP2 ADD DUP1 MLOAD PUSH28 0xFFFFFFFFFFFFFFFFFFFFFFFFFFFFFFFFFFFFFFFFFFFFFFFFFFFFFFFF AND PUSH32 0x95EA7B300000000000000000000000000000000000000000000000000000000 OR SWAP1 MSTORE PUSH2 0xEC5 DUP5 DUP3 PUSH2 0x1043 JUMP JUMPDEST PUSH2 0xC0E JUMPI PUSH1 0x40 MLOAD PUSH20 0xFFFFFFFFFFFFFFFFFFFFFFFFFFFFFFFFFFFFFFFF DUP5 DUP2 AND PUSH1 0x24 DUP4 ADD MSTORE PUSH0 PUSH1 0x44 DUP4 ADD MSTORE PUSH2 0xF06 SWAP2 DUP7 SWAP2 DUP3 AND SWAP1 PUSH4 0x95EA7B3 SWAP1 PUSH1 0x64 ADD PUSH2 0xCCA JUMP JUMPDEST PUSH2 0xC0E DUP5 DUP3 PUSH2 0xFA4 JUMP JUMPDEST DUP1 MLOAD ISZERO PUSH2 0xF1F JUMPI DUP1 MLOAD PUSH1 0x20 DUP3 ADD REVERT JUMPDEST PUSH1 0x40 MLOAD PUSH32 0xD6BDA27500000000000000000000000000000000000000000000000000000000 DUP2 MSTORE PUSH1 0x4 ADD PUSH1 0x40 MLOAD DUP1 SWAP2 SUB SWAP1 REVERT JUMPDEST PUSH0 SLOAD PUSH21 0x10000000000000000000000000000000000000000 SWAP1 DIV PUSH1 0xFF AND PUSH2 0x271 JUMPI PUSH1 0x40 MLOAD PUSH32 0x8DFC202B00000000000000000000000000000000000000000000000000000000 DUP2 MSTORE PUSH1 0x4 ADD PUSH1 0x40 MLOAD DUP1 SWAP2 SUB SWAP1 REVERT JUMPDEST PUSH0 DUP1 PUSH1 0x20 PUSH0 DUP5 MLOAD PUSH1 0x20 DUP7 ADD PUSH0 DUP9 GAS CALL DUP1 PUSH2 0xFC3 JUMPI PUSH1 0x40 MLOAD RETURNDATASIZE PUSH0 DUP3 RETURNDATACOPY RETURNDATASIZE DUP2 REVERT JUMPDEST POP POP PUSH0 MLOAD RETURNDATASIZE SWAP2 POP DUP2 ISZERO PUSH2 0xFDA JUMPI DUP1 PUSH1 0x1 EQ ISZERO PUSH2 0xFF4 JUMP JUMPDEST PUSH20 0xFFFFFFFFFFFFFFFFFFFFFFFFFFFFFFFFFFFFFFFF DUP5 AND EXTCODESIZE ISZERO JUMPDEST ISZERO PUSH2 0xC0E JUMPI PUSH1 0x40 MLOAD PUSH32 0x5274AFE700000000000000000000000000000000000000000000000000000000 DUP2 MSTORE PUSH20 0xFFFFFFFFFFFFFFFFFFFFFFFFFFFFFFFFFFFFFFFF DUP6 AND PUSH1 0x4 DUP3 ADD MSTORE PUSH1 0x24 ADD PUSH2 0x315 JUMP JUMPDEST PUSH0 DUP1 PUSH0 DUP1 PUSH1 0x20 PUSH0 DUP7 MLOAD PUSH1 0x20 DUP9 ADD PUSH0 DUP11 GAS CALL SWAP3 POP RETURNDATASIZE SWAP2 POP PUSH0 MLOAD SWAP1 POP DUP3 DUP1 ISZERO PUSH2 0x108F JUMPI POP DUP2 ISZERO PUSH2 0x1074 JUMPI DUP1 PUSH1 0x1 EQ PUSH2 0x108F JUMP JUMPDEST PUSH0 DUP7 PUSH20 0xFFFFFFFFFFFFFFFFFFFFFFFFFFFFFFFFFFFFFFFF AND EXTCODESIZE GT JUMPDEST SWAP4 POP POP POP POP JUMPDEST SWAP3 SWAP2 POP POP JUMP JUMPDEST PUSH0 DUP1 DUP4 PUSH1 0x1F DUP5 ADD SLT PUSH2 0x10AB JUMPI PUSH0 DUP1 REVERT JUMPDEST POP DUP2 CALLDATALOAD PUSH8 0xFFFFFFFFFFFFFFFF DUP2 GT ISZERO PUSH2 0x10C2 JUMPI PUSH0 DUP1 REVERT JUMPDEST PUSH1 0x20 DUP4 ADD SWAP2 POP DUP4 PUSH1 0x20 DUP3 PUSH1 0x7 SHL DUP6 ADD ADD GT ISZERO PUSH2 0x10DC JUMPI PUSH0 DUP1 REVERT JUMPDEST SWAP3 POP SWAP3 SWAP1 POP JUMP JUMPDEST PUSH0 DUP1 DUP4 PUSH1 0x1F DUP5 ADD SLT PUSH2 0x10F3 JUMPI PUSH0 DUP1 REVERT JUMPDEST POP DUP2 CALLDATALOAD PUSH8 0xFFFFFFFFFFFFFFFF DUP2 GT ISZERO PUSH2 0x110A JUMPI PUSH0 DUP1 REVERT JUMPDEST PUSH1 0x20 DUP4 ADD SWAP2 POP DUP4 PUSH1 0x20 DUP3 PUSH1 0x5 SHL DUP6 ADD ADD GT ISZERO PUSH2 0x10DC JUMPI PUSH0 DUP1 REVERT JUMPDEST PUSH0 DUP1 PUSH0 DUP1 PUSH0 DUP1 PUSH0 DUP1 PUSH1 0x80 DUP10 DUP12 SUB SLT ISZERO PUSH2 0x113B JUMPI PUSH0 DUP1 REVERT JUMPDEST DUP9 CALLDATALOAD PUSH8 0xFFFFFFFFFFFFFFFF DUP1 DUP3 GT ISZERO PUSH2 0x1152 JUMPI PUSH0 DUP1 REVERT JUMPDEST DUP2 DUP12 ADD SWAP2 POP DUP12 PUSH1 0x1F DUP4 ADD SLT PUSH2 0x1165 JUMPI PUSH0 DUP1 REVERT JUMPDEST DUP2 CALLDATALOAD DUP2 DUP2 GT ISZERO PUSH2 0x1173 JUMPI PUSH0 DUP1 REVERT JUMPDEST DUP13 PUSH1 0x20 DUP3 PUSH1 0x6 SHL DUP6 ADD ADD GT ISZERO PUSH2 0x1187 JUMPI PUSH0 DUP1 REVERT JUMPDEST PUSH1 0x20 SWAP3 DUP4 ADD SWAP11 POP SWAP9 POP SWAP1 DUP11 ADD CALLDATALOAD SWAP1 DUP1 DUP3 GT ISZERO PUSH2 0x11A1 JUMPI PUSH0 DUP1 REVERT JUMPDEST PUSH2 0x11AD DUP13 DUP4 DUP14 ADD PUSH2 0x109B JUMP JUMPDEST SWAP1 SWAP9 POP SWAP7 POP PUSH1 0x40 DUP12 ADD CALLDATALOAD SWAP2 POP DUP1 DUP3 GT ISZERO PUSH2 0x11C5 JUMPI PUSH0 DUP1 REVERT JUMPDEST PUSH2 0x11D1 DUP13 DUP4 DUP14 ADD PUSH2 0x10E3 JUMP JUMPDEST SWAP1 SWAP7 POP SWAP5 POP PUSH1 0x60 DUP12 ADD CALLDATALOAD SWAP2 POP DUP1 DUP3 GT ISZERO PUSH2 0x11E9 JUMPI PUSH0 DUP1 REVERT JUMPDEST POP PUSH2 0x11F6 DUP12 DUP3 DUP13 ADD PUSH2 0x10E3 JUMP JUMPDEST SWAP10 SWAP13 SWAP9 SWAP12 POP SWAP7 SWAP10 POP SWAP5 SWAP8 SWAP4 SWAP7 SWAP3 SWAP6 SWAP5 POP POP POP JUMP JUMPDEST PUSH0 JUMPDEST DUP4 DUP2 LT ISZERO PUSH2 0x1224 JUMPI DUP2 DUP2 ADD MLOAD DUP4 DUP3 ADD MSTORE PUSH1 0x20 ADD PUSH2 0x120C JUMP JUMPDEST POP POP PUSH0 SWAP2 ADD MSTORE JUMP JUMPDEST PUSH0 PUSH1 0x20 DUP1 DUP4 ADD DUP2 DUP5 MSTORE DUP1 DUP6 MLOAD DUP1 DUP4 MSTORE PUSH1 0x40 DUP7 ADD SWAP2 POP PUSH1 0x40 DUP2 PUSH1 0x5 SHL DUP8 ADD ADD SWAP3 POP DUP4 DUP8 ADD PUSH0 JUMPDEST DUP3 DUP2 LT ISZERO PUSH2 0x12D3 JUMPI PUSH32 0xFFFFFFFFFFFFFFFFFFFFFFFFFFFFFFFFFFFFFFFFFFFFFFFFFFFFFFFFFFFFFFC0 DUP9 DUP7 SUB ADD DUP5 MSTORE DUP2 MLOAD DUP1 MLOAD DUP1 DUP8 MSTORE PUSH2 0x1296 DUP2 DUP10 DUP10 ADD DUP11 DUP6 ADD PUSH2 0x120A JUMP JUMPDEST PUSH1 0x1F ADD PUSH32 0xFFFFFFFFFFFFFFFFFFFFFFFFFFFFFFFFFFFFFFFFFFFFFFFFFFFFFFFFFFFFFFE0 AND SWAP6 SWAP1 SWAP6 ADD DUP7 ADD SWAP5 POP SWAP3 DUP6 ADD SWAP3 SWAP1 DUP6 ADD SWAP1 PUSH1 0x1 ADD PUSH2 0x1251 JUMP JUMPDEST POP SWAP3 SWAP8 SWAP7 POP POP POP POP POP POP POP JUMP JUMPDEST PUSH20 0xFFFFFFFFFFFFFFFFFFFFFFFFFFFFFFFFFFFFFFFF DUP2 AND DUP2 EQ PUSH2 0x327 JUMPI PUSH0 DUP1 REVERT JUMPDEST PUSH0 DUP1 PUSH1 0x40 DUP4 DUP6 SUB SLT ISZERO PUSH2 0x1312 JUMPI PUSH0 DUP1 REVERT JUMPDEST DUP3 CALLDATALOAD PUSH2 0x131D DUP2 PUSH2 0x12E0 JUMP JUMPDEST SWAP5 PUSH1 0x20 SWAP4 SWAP1 SWAP4 ADD CALLDATALOAD SWAP4 POP POP POP JUMP JUMPDEST PUSH0 DUP1 PUSH0 PUSH1 0x60 DUP5 DUP7 SUB SLT ISZERO PUSH2 0x133D JUMPI PUSH0 DUP1 REVERT JUMPDEST DUP4 CALLDATALOAD PUSH2 0x1348 DUP2 PUSH2 0x12E0 JUMP JUMPDEST SWAP3 POP PUSH1 0x20 DUP5 ADD CALLDATALOAD PUSH2 0x1358 DUP2 PUSH2 0x12E0 JUMP JUMPDEST SWAP3 SWAP6 SWAP3 SWAP5 POP POP POP PUSH1 0x40 SWAP2 SWAP1 SWAP2 ADD CALLDATALOAD SWAP1 JUMP JUMPDEST PUSH0 PUSH1 0x20 DUP3 DUP5 SUB SLT ISZERO PUSH2 0x1379 JUMPI PUSH0 DUP1 REVERT JUMPDEST DUP2 CALLDATALOAD PUSH2 0x1384 DUP2 PUSH2 0x12E0 JUMP JUMPDEST SWAP4 SWAP3 POP POP POP JUMP JUMPDEST PUSH32 0x4E487B7100000000000000000000000000000000000000000000000000000000 PUSH0 MSTORE PUSH1 0x11 PUSH1 0x4 MSTORE PUSH1 0x24 PUSH0 REVERT JUMPDEST DUP2 DUP2 SUB DUP2 DUP2 GT ISZERO PUSH2 0x1095 JUMPI PUSH2 0x1095 PUSH2 0x138B JUMP JUMPDEST PUSH32 0x4E487B7100000000000000000000000000000000000000000000000000000000 PUSH0 MSTORE PUSH1 0x41 PUSH1 0x4 MSTORE PUSH1 0x24 PUSH0 REVERT JUMPDEST PUSH32 0x4E487B7100000000000000000000000000000000000000000000000000000000 PUSH0 MSTORE PUSH1 0x32 PUSH1 0x4 MSTORE PUSH1 0x24 PUSH0 REVERT JUMPDEST PUSH0 PUSH1 0x20 DUP3 DUP5 SUB SLT ISZERO PUSH2 0x1435 JUMPI PUSH0 DUP1 REVERT JUMPDEST POP MLOAD SWAP2 SWAP1 POP JUMP JUMPDEST PUSH0 DUP3 CALLDATALOAD PUSH32 0xFFFFFFFFFFFFFFFFFFFFFFFFFFFFFFFFFFFFFFFFFFFFFFFFFFFFFFFFFFFFFF61 DUP4 CALLDATASIZE SUB ADD DUP2 SLT PUSH2 0x146E JUMPI PUSH0 DUP1 REVERT JUMPDEST SWAP2 SWAP1 SWAP2 ADD SWAP3 SWAP2 POP POP JUMP JUMPDEST PUSH0 DUP1 DUP4 CALLDATALOAD PUSH32 0xFFFFFFFFFFFFFFFFFFFFFFFFFFFFFFFFFFFFFFFFFFFFFFFFFFFFFFFFFFFFFFE1 DUP5 CALLDATASIZE SUB ADD DUP2 SLT PUSH2 0x14AB JUMPI PUSH0 DUP1 REVERT JUMPDEST DUP4 ADD DUP1 CALLDATALOAD SWAP2 POP PUSH8 0xFFFFFFFFFFFFFFFF DUP3 GT ISZERO PUSH2 0x14C5 JUMPI PUSH0 DUP1 REVERT JUMPDEST PUSH1 0x20 ADD SWAP2 POP CALLDATASIZE DUP2 SWAP1 SUB DUP3 SGT ISZERO PUSH2 0x10DC JUMPI PUSH0 DUP1 REVERT JUMPDEST DUP1 DUP3 ADD DUP1 DUP3 GT ISZERO PUSH2 0x1095 JUMPI PUSH2 0x1095 PUSH2 0x138B JUMP JUMPDEST PUSH0 DUP3 MLOAD PUSH2 0x146E DUP2 DUP5 PUSH1 0x20 DUP8 ADD PUSH2 0x120A JUMP JUMPDEST PUSH0 PUSH1 0x20 DUP3 DUP5 SUB SLT ISZERO PUSH2 0x150D JUMPI PUSH0 DUP1 REVERT JUMPDEST DUP2 CALLDATALOAD DUP1 ISZERO ISZERO DUP2 EQ PUSH2 0x1384 JUMPI PUSH0 DUP1 REVERT INVALID LOG2 PUSH5 0x6970667358 0x22 SLT KECCAK256 CREATE 0xC5 SWAP13 ADDRESS PUSH27 0x57443ED7A243833EDDF18C05E24C4ADCFD694899B9CEEA06CF7B0F PUSH5 0x736F6C6343 STOP ADDMOD XOR STOP CALLER "},"methodIdentifiers":{"execute((address,uint256)[],(address,address,uint256,bool)[],(address,uint256,bytes,address,uint256)[],address[])":"05825102","owner()":"8da5cb5b","pause()":"8456cb59","paused()":"5c975abb","renounceOwnership()":"715018a6","rescueETH(address,uint256)":"099a04e5","rescueFunds(address,address,uint256)":"6ccae054","transferOwnership(address)":"f2fde38b","unpause()":"3f4ba83a"}}}}}