{"contracts/Lens.sol":{"Lens":{"abi":[{"inputs":[{"internalType":"address[]","name":"tokens","type":"address[]"},{"internalType":"address","name":"owner","type":"address"},{"internalType":"address","name":"spender","type":"address"}],"name":"batchCheckAllowances","outputs":[{"internalType":"uint256[]","name":"","type":"uint256[]"}],"stateMutability":"view","type":"function"},{"inputs":[{"internalType":"address[]","name":"tokens","type":"address[]"},{"internalType":"address","name":"account","type":"address"}],"name":"batchCheckTokenBalances","outputs":[{"internalType":"uint256[]","name":"","type":"uint256[]"}],"stateMutability":"view","type":"function"},{"inputs":[{"internalType":"address[]","name":"tokens","type":"address[]"}],"name":"batchGetTokenMetadata","outputs":[{"components":[{"internalType":"address","name":"token","type":"address"},{"internalType":"uint8","name":"decimals","type":"uint8"},{"internalType":"string","name":"symbol","type":"string"},{"internalType":"string","name":"name","type":"string"},{"internalType":"bool","name":"exists","type":"bool"}],"internalType":"struct Lens.TokenMetadata[]","name":"results","type":"tuple[]"}],"stateMutability":"view","type":"function"},{"inputs":[{"internalType":"address[]","name":"pools","type":"address[]"}],"name":"batchGetV2PoolData","outputs":[{"components":[{"internalType":"address","name":"pool","type":"address"},{"internalType":"uint112","name":"reserve0","type":"uint112"},{"internalType":"uint112","name":"reserve1","type":"uint112"},{"internalType":"address","name":"token0","type":"address"},{"internalType":"address","name":"token1","type":"address"},{"internalType":"bool","name":"exists","type":"bool"}],"internalType":"struct Lens.V2PoolData[]","name":"results","type":"tuple[]"}],"stateMutability":"view","type":"function"},{"inputs":[{"internalType":"address[]","name":"pools","type":"address[]"}],"name":"batchGetV3PoolData","outputs":[{"components":[{"internalType":"address","name":"pool","type":"address"},{"internalType":"uint160","name":"sqrtPriceX96","type":"uint160"},{"internalType":"int24","name":"tick","type":"int24"},{"internalType":"uint128","name":"liquidity","type":"uint128"},{"internalType":"address","name":"token0","type":"address"},{"internalType":"address","name":"token1","type":"address"},{"internalType":"uint24","name":"fee","type":"uint24"},{"internalType":"bool","name":"exists","type":"bool"}],"internalType":"struct Lens.V3PoolData[]","name":"results","type":"tuple[]"}],"stateMutability":"view","type":"function"},{"inputs":[{"internalType":"address","name":"token","type":"address"}],"name":"getTokenMetadataSingle","outputs":[{"components":[{"internalType":"address","name":"token","type":"address"},{"internalType":"uint8","name":"decimals","type":"uint8"},{"internalType":"string","name":"symbol","type":"string"},{"internalType":"string","name":"name","type":"string"},{"internalType":"bool","name":"exists","type":"bool"}],"internalType":"struct Lens.TokenMetadata","name":"data","type":"tuple"}],"stateMutability":"view","type":"function"},{"inputs":[{"internalType":"address","name":"pool","type":"address"}],"name":"getV2PoolDataSingle","outputs":[{"components":[{"internalType":"address","name":"pool","type":"address"},{"internalType":"uint112","name":"reserve0","type":"uint112"},{"internalType":"uint112","name":"reserve1","type":"uint112"},{"internalType":"address","name":"token0","type":"address"},{"internalType":"address","name":"token1","type":"address"},{"internalType":"bool","name":"exists","type":"bool"}],"internalType":"struct Lens.V2PoolData","name":"data","type":"tuple"}],"stateMutability":"view","type":"function"},{"inputs":[{"internalType":"address","name":"pool","type":"address"}],"name":"getV3PoolDataSingle","outputs":[{"components":[{"internalType":"address","name":"pool","type":"address"},{"internalType":"uint160","name":"sqrtPriceX96","type":"uint160"},{"internalType":"int24","name":"tick","type":"int24"},{"internalType":"uint128","name":"liquidity","type":"uint128"},{"internalType":"address","name":"token0","type":"address"},{"internalType":"address","name":"token1","type":"address"},{"internalType":"uint24","name":"fee","type":"uint24"},{"internalType":"bool","name":"exists","type":"bool"}],"internalType":"struct Lens.V3PoolData","name":"data","type":"tuple"}],"stateMutability":"view","type":"function"}],"evm":{"bytecode":{"linkReferences":{},"object":"608060405234801561000f575f80fd5b50611eb38061001d5f395ff3fe608060405234801561000f575f80fd5b5060043610610085575f3560e01c8063b35afa7f11610058578063b35afa7f14610112578063edf50b3014610132578063f7f2846614610152578063ff8f622a14610172575f80fd5b80633e82ae2214610089578063569a542f146100b25780637e5108e0146100d25780638c99c4d1146100f2575b5f80fd5b61009c61009736600461142b565b610185565b6040516100a9919061150d565b60405180910390f35b6100c56100c0366004611567565b61037e565b6040516100a991906115a6565b6100e56100e0366004611567565b6105e9565b6040516100a9919061165c565b6101056101003660046116dc565b61084e565b6040516100a99190611740565b610125610120366004611567565b610a0b565b6040516100a9919061180f565b61014561014036600461142b565b610c7f565b6040516100a99190611851565b61016561016036600461142b565b611011565b6040516100a99190611866565b6101056101803660046118dd565b611253565b6101cf6040518060a001604052805f73ffffffffffffffffffffffffffffffffffffffff1681526020015f60ff16815260200160608152602001606081526020015f151581525090565b73ffffffffffffffffffffffffffffffffffffffff8216808252604080517f313ce567000000000000000000000000000000000000000000000000000000008152905163313ce567916004808201926020929091908290030181865afa15801561023b573d5f803e3d5ffd5b505050506040513d601f19601f8201168201806040525081019061025f9190611945565b60ff166020820152604080517f95d89b41000000000000000000000000000000000000000000000000000000008152905173ffffffffffffffffffffffffffffffffffffffff8416916395d89b41916004808301925f9291908290030181865afa1580156102cf573d5f803e3d5ffd5b505050506040513d5f823e601f3d908101601f191682016040526102f69190810190611a39565b81604001819052508173ffffffffffffffffffffffffffffffffffffffff166306fdde036040518163ffffffff1660e01b81526004015f60405180830381865afa158015610346573d5f803e3d5ffd5b505050506040513d5f823e601f3d908101601f1916820160405261036d9190810190611a39565b606082015260016080820152919050565b60608167ffffffffffffffff8111156103995761039961195e565b60405190808252806020026020018201604052801561041657816020015b6040805160c0810182525f8082526020808301829052928201819052606082018190526080820181905260a082015282527fffffffffffffffffffffffffffffffffffffffffffffffffffffffffffffffff9092019101816103b75790505b5090505f5b828110156105e25783838281811061043557610435611a73565b905060200201602081019061044a919061142b565b82828151811061045c5761045c611a73565b602090810291909101015173ffffffffffffffffffffffffffffffffffffffff909116905283838281811061049357610493611a73565b90506020020160208101906104a8919061142b565b73ffffffffffffffffffffffffffffffffffffffff163b5f036104f1575f8282815181106104d8576104d8611a73565b602090810291909101015190151560a0909101526105da565b3063f7f2846685858481811061050957610509611a73565b905060200201602081019061051e919061142b565b6040517fffffffff0000000000000000000000000000000000000000000000000000000060e084901b16815273ffffffffffffffffffffffffffffffffffffffff909116600482015260240160c060405180830381865afa9250505080156105a3575060408051601f3d908101601f191682019092526105a091810190611ad7565b60015b6105ba575f8282815181106104d8576104d8611a73565b808383815181106105cd576105cd611a73565b6020026020010181905250505b60010161041b565b5092915050565b60608167ffffffffffffffff8111156106045761060461195e565b60405190808252806020026020018201604052801561067f57816020015b61066c6040518060a001604052805f73ffffffffffffffffffffffffffffffffffffffff1681526020015f60ff16815260200160608152602001606081526020015f151581525090565b8152602001906001900390816106225790505b5090505f5b828110156105e25783838281811061069e5761069e611a73565b90506020020160208101906106b3919061142b565b8282815181106106c5576106c5611a73565b602090810291909101015173ffffffffffffffffffffffffffffffffffffffff90911690528383828181106106fc576106fc611a73565b9050602002016020810190610711919061142b565b73ffffffffffffffffffffffffffffffffffffffff163b5f0361075a575f82828151811061074157610741611a73565b6020908102919091010151901515608090910152610846565b30633e82ae2285858481811061077257610772611a73565b9050602002016020810190610787919061142b565b6040517fffffffff0000000000000000000000000000000000000000000000000000000060e084901b16815273ffffffffffffffffffffffffffffffffffffffff90911660048201526024015f60405180830381865afa92505050801561080f57506040513d5f823e601f3d908101601f1916820160405261080c9190810190611b7a565b60015b610826575f82828151811061074157610741611a73565b8083838151811061083957610839611a73565b6020026020010181905250505b600101610684565b60605f8467ffffffffffffffff81111561086a5761086a61195e565b604051908082528060200260200182016040528015610893578160200160208202803683370190505b5090505f5b85811015610a01578686828181106108b2576108b2611a73565b90506020020160208101906108c7919061142b565b73ffffffffffffffffffffffffffffffffffffffff163b5f03610908575f8282815181106108f7576108f7611a73565b6020026020010181815250506109f9565b86868281811061091a5761091a611a73565b905060200201602081019061092f919061142b565b6040517fdd62ed3e00000000000000000000000000000000000000000000000000000000815273ffffffffffffffffffffffffffffffffffffffff87811660048301528681166024830152919091169063dd62ed3e90604401602060405180830381865afa9250505080156109c1575060408051601f3d908101601f191682019092526109be91810190611c3a565b60015b6109d8575f8282815181106108f7576108f7611a73565b808383815181106109eb576109eb611a73565b602002602001018181525050505b600101610898565b5095945050505050565b60608167ffffffffffffffff811115610a2657610a2661195e565b604051908082528060200260200182016040528015610ab257816020015b60408051610100810182525f8082526020808301829052928201819052606082018190526080820181905260a0820181905260c0820181905260e082015282527fffffffffffffffffffffffffffffffffffffffffffffffffffffffffffffffff909201910181610a445790505b5090505f5b828110156105e257838382818110610ad157610ad1611a73565b9050602002016020810190610ae6919061142b565b828281518110610af857610af8611a73565b602090810291909101015173ffffffffffffffffffffffffffffffffffffffff9091169052838382818110610b2f57610b2f611a73565b9050602002016020810190610b44919061142b565b73ffffffffffffffffffffffffffffffffffffffff163b5f03610b8d575f828281518110610b7457610b74611a73565b602090810291909101015190151560e090910152610c77565b3063edf50b30858584818110610ba557610ba5611a73565b9050602002016020810190610bba919061142b565b6040517fffffffff0000000000000000000000000000000000000000000000000000000060e084901b16815273ffffffffffffffffffffffffffffffffffffffff909116600482015260240161010060405180830381865afa925050508015610c40575060408051601f3d908101601f19168201909252610c3d91810190611c93565b60015b610c57575f828281518110610b7457610b74611a73565b80838381518110610c6a57610c6a611a73565b6020026020010181905250505b600101610ab7565b60408051610100810182525f60208201819052818301819052606082018190526080820181905260a0820181905260c0820181905260e080830182905273ffffffffffffffffffffffffffffffffffffffff851680845284517f3850c7bd00000000000000000000000000000000000000000000000000000000815294519394929384939192633850c7bd92600480820193918290030181865afa158015610d29573d5f803e3d5ffd5b505050506040513d601f19601f82011682018060405250810190610d4d9190611d6c565b50505050509150915081836020019073ffffffffffffffffffffffffffffffffffffffff16908173ffffffffffffffffffffffffffffffffffffffff168152505080836040019060020b908160020b815250508373ffffffffffffffffffffffffffffffffffffffff16631a6865026040518163ffffffff1660e01b8152600401602060405180830381865afa158015610de9573d5f803e3d5ffd5b505050506040513d601f19601f82011682018060405250810190610e0d9190611def565b6fffffffffffffffffffffffffffffffff166060840152604080517f0dfe1681000000000000000000000000000000000000000000000000000000008152905173ffffffffffffffffffffffffffffffffffffffff861691630dfe16819160048083019260209291908290030181865afa158015610e8d573d5f803e3d5ffd5b505050506040513d601f19601f82011682018060405250810190610eb19190611e08565b836080019073ffffffffffffffffffffffffffffffffffffffff16908173ffffffffffffffffffffffffffffffffffffffff16815250508373ffffffffffffffffffffffffffffffffffffffff1663d21220a76040518163ffffffff1660e01b8152600401602060405180830381865afa158015610f31573d5f803e3d5ffd5b505050506040513d601f19601f82011682018060405250810190610f559190611e08565b8360a0019073ffffffffffffffffffffffffffffffffffffffff16908173ffffffffffffffffffffffffffffffffffffffff16815250508373ffffffffffffffffffffffffffffffffffffffff1663ddca3f436040518163ffffffff1660e01b8152600401602060405180830381865afa158015610fd5573d5f803e3d5ffd5b505050506040513d601f19601f82011682018060405250810190610ff99190611e23565b62ffffff1660c08401525050600160e0820152919050565b6040805160c0810182525f6020820181905281830181905260608083018290526080830182905260a0830182905273ffffffffffffffffffffffffffffffffffffffff851680845284517f0902f1ac00000000000000000000000000000000000000000000000000000000815294519394929384939192630902f1ac92600480820193918290030181865afa1580156110ac573d5f803e3d5ffd5b505050506040513d601f19601f820116820180604052508101906110d09190611e3c565b506dffffffffffffffffffffffffffff80831660208088019190915290821660408088019190915280517f0dfe1681000000000000000000000000000000000000000000000000000000008152905193955091935073ffffffffffffffffffffffffffffffffffffffff871692630dfe16819260048082019392918290030181865afa158015611162573d5f803e3d5ffd5b505050506040513d601f19601f820116820180604052508101906111869190611e08565b836060019073ffffffffffffffffffffffffffffffffffffffff16908173ffffffffffffffffffffffffffffffffffffffff16815250508373ffffffffffffffffffffffffffffffffffffffff1663d21220a76040518163ffffffff1660e01b8152600401602060405180830381865afa158015611206573d5f803e3d5ffd5b505050506040513d601f19601f8201168201806040525081019061122a9190611e08565b73ffffffffffffffffffffffffffffffffffffffff1660808401525050600160a0820152919050565b60605f8367ffffffffffffffff81111561126f5761126f61195e565b604051908082528060200260200182016040528015611298578160200160208202803683370190505b5090505f5b848110156113fe578585828181106112b7576112b7611a73565b90506020020160208101906112cc919061142b565b73ffffffffffffffffffffffffffffffffffffffff163b5f0361130d575f8282815181106112fc576112fc611a73565b6020026020010181815250506113f6565b85858281811061131f5761131f611a73565b9050602002016020810190611334919061142b565b6040517f70a0823100000000000000000000000000000000000000000000000000000000815273ffffffffffffffffffffffffffffffffffffffff868116600483015291909116906370a0823190602401602060405180830381865afa9250505080156113be575060408051601f3d908101601f191682019092526113bb91810190611c3a565b60015b6113d5575f8282815181106112fc576112fc611a73565b808383815181106113e8576113e8611a73565b602002602001018181525050505b60010161129d565b50949350505050565b73ffffffffffffffffffffffffffffffffffffffff81168114611428575f80fd5b50565b5f6020828403121561143b575f80fd5b813561144681611407565b9392505050565b5f5b8381101561146757818101518382015260200161144f565b50505f910152565b5f815180845261148681602086016020860161144d565b601f01601f19169290920160200192915050565b73ffffffffffffffffffffffffffffffffffffffff815116825260ff60208201511660208301525f604082015160a060408501526114db60a085018261146f565b9050606083015184820360608601526114f4828261146f565b9150506080830151151560808501528091505092915050565b602081525f611446602083018461149a565b5f8083601f84011261152f575f80fd5b50813567ffffffffffffffff811115611546575f80fd5b6020830191508360208260051b8501011115611560575f80fd5b9250929050565b5f8060208385031215611578575f80fd5b823567ffffffffffffffff81111561158e575f80fd5b61159a8582860161151f565b90969095509350505050565b602080825282518282018190525f9190848201906040850190845b818110156116505761163d83855173ffffffffffffffffffffffffffffffffffffffff80825116835260208201516dffffffffffffffffffffffffffff808216602086015280604085015116604086015250508060608301511660608401528060808301511660808401525060a0810151151560a08301525050565b9284019260c092909201916001016115c1565b50909695505050505050565b5f60208083016020845280855180835260408601915060408160051b8701019250602087015f5b828110156116cf577fffffffffffffffffffffffffffffffffffffffffffffffffffffffffffffffc08886030184526116bd85835161149a565b94509285019290850190600101611683565b5092979650505050505050565b5f805f80606085870312156116ef575f80fd5b843567ffffffffffffffff811115611705575f80fd5b6117118782880161151f565b909550935050602085013561172581611407565b9150604085013561173581611407565b939692955090935050565b602080825282518282018190525f9190848201906040850190845b818110156116505783518352928401929184019160010161175b565b73ffffffffffffffffffffffffffffffffffffffff808251168352806020830151166020840152604082015160020b60408401526fffffffffffffffffffffffffffffffff60608301511660608401528060808301511660808401528060a08301511660a08401525060c08101516117f660c084018262ffffff169052565b5060e081015161180a60e084018215159052565b505050565b602080825282518282018190525f9190848201906040850190845b818110156116505761183d838551611777565b92840192610100929092019160010161182a565b61010081016118608284611777565b92915050565b60c08101611860828473ffffffffffffffffffffffffffffffffffffffff80825116835260208201516dffffffffffffffffffffffffffff808216602086015280604085015116604086015250508060608301511660608401528060808301511660808401525060a0810151151560a08301525050565b5f805f604084860312156118ef575f80fd5b833567ffffffffffffffff811115611905575f80fd5b6119118682870161151f565b909450925050602084013561192581611407565b809150509250925092565b805160ff81168114611940575f80fd5b919050565b5f60208284031215611955575f80fd5b61144682611930565b7f4e487b71000000000000000000000000000000000000000000000000000000005f52604160045260245ffd5b60405160a0810167ffffffffffffffff811182821017156119ae576119ae61195e565b60405290565b5f82601f8301126119c3575f80fd5b815167ffffffffffffffff808211156119de576119de61195e565b604051601f8301601f19908116603f01168101908282118183101715611a0657611a0661195e565b81604052838152866020858801011115611a1e575f80fd5b611a2f84602083016020890161144d565b9695505050505050565b5f60208284031215611a49575f80fd5b815167ffffffffffffffff811115611a5f575f80fd5b611a6b848285016119b4565b949350505050565b7f4e487b71000000000000000000000000000000000000000000000000000000005f52603260045260245ffd5b805161194081611407565b80516dffffffffffffffffffffffffffff81168114611940575f80fd5b80518015158114611940575f80fd5b5f60c08284031215611ae7575f80fd5b60405160c0810181811067ffffffffffffffff82111715611b0a57611b0a61195e565b6040528251611b1881611407565b8152611b2660208401611aab565b6020820152611b3760408401611aab565b60408201526060830151611b4a81611407565b60608201526080830151611b5d81611407565b6080820152611b6e60a08401611ac8565b60a08201529392505050565b5f60208284031215611b8a575f80fd5b815167ffffffffffffffff80821115611ba1575f80fd5b9083019060a08286031215611bb4575f80fd5b611bbc61198b565b8251611bc781611407565b8152611bd560208401611930565b6020820152604083015182811115611beb575f80fd5b611bf7878286016119b4565b604083015250606083015182811115611c0e575f80fd5b611c1a878286016119b4565b606083015250611c2c60808401611ac8565b608082015295945050505050565b5f60208284031215611c4a575f80fd5b5051919050565b8051600281900b8114611940575f80fd5b80516fffffffffffffffffffffffffffffffff81168114611940575f80fd5b805162ffffff81168114611940575f80fd5b5f610100808385031215611ca5575f80fd5b6040519081019067ffffffffffffffff82118183101715611cc857611cc861195e565b8160405283519150611cd982611407565b818152611ce860208501611aa0565b6020820152611cf960408501611c51565b6040820152611d0a60608501611c62565b6060820152611d1b60808501611aa0565b6080820152611d2c60a08501611aa0565b60a0820152611d3d60c08501611c81565b60c0820152611d4e60e08501611ac8565b60e0820152949350505050565b805161ffff81168114611940575f80fd5b5f805f805f805f60e0888a031215611d82575f80fd5b8751611d8d81611407565b9650611d9b60208901611c51565b9550611da960408901611d5b565b9450611db760608901611d5b565b9350611dc560808901611d5b565b9250611dd360a08901611930565b9150611de160c08901611ac8565b905092959891949750929550565b5f60208284031215611dff575f80fd5b61144682611c62565b5f60208284031215611e18575f80fd5b815161144681611407565b5f60208284031215611e33575f80fd5b61144682611c81565b5f805f60608486031215611e4e575f80fd5b611e5784611aab565b9250611e6560208501611aab565b9150604084015163ffffffff81168114611925575f80fdfea26469706673582212204574ae5173f7a6c85f52ef07b4e20ac4688bc6e0e8640fa2c860c28843d0390b64736f6c63430008180033","opcodes":"PUSH1 0x80 PUSH1 0x40 MSTORE CALLVALUE DUP1 ISZERO PUSH2 0xF JUMPI PUSH0 DUP1 REVERT JUMPDEST POP PUSH2 0x1EB3 DUP1 PUSH2 0x1D PUSH0 CODECOPY PUSH0 RETURN INVALID PUSH1 0x80 PUSH1 0x40 MSTORE CALLVALUE DUP1 ISZERO PUSH2 0xF JUMPI PUSH0 DUP1 REVERT JUMPDEST POP PUSH1 0x4 CALLDATASIZE LT PUSH2 0x85 JUMPI PUSH0 CALLDATALOAD PUSH1 0xE0 SHR DUP1 PUSH4 0xB35AFA7F GT PUSH2 0x58 JUMPI DUP1 PUSH4 0xB35AFA7F EQ PUSH2 0x112 JUMPI DUP1 PUSH4 0xEDF50B30 EQ PUSH2 0x132 JUMPI DUP1 PUSH4 0xF7F28466 EQ PUSH2 0x152 JUMPI DUP1 PUSH4 0xFF8F622A EQ PUSH2 0x172 JUMPI PUSH0 DUP1 REVERT JUMPDEST DUP1 PUSH4 0x3E82AE22 EQ PUSH2 0x89 JUMPI DUP1 PUSH4 0x569A542F EQ PUSH2 0xB2 JUMPI DUP1 PUSH4 0x7E5108E0 EQ PUSH2 0xD2 JUMPI DUP1 PUSH4 0x8C99C4D1 EQ PUSH2 0xF2 JUMPI JUMPDEST PUSH0 DUP1 REVERT JUMPDEST PUSH2 0x9C PUSH2 0x97 CALLDATASIZE PUSH1 0x4 PUSH2 0x142B JUMP JUMPDEST PUSH2 0x185 JUMP JUMPDEST PUSH1 0x40 MLOAD PUSH2 0xA9 SWAP2 SWAP1 PUSH2 0x150D JUMP JUMPDEST PUSH1 0x40 MLOAD DUP1 SWAP2 SUB SWAP1 RETURN JUMPDEST PUSH2 0xC5 PUSH2 0xC0 CALLDATASIZE PUSH1 0x4 PUSH2 0x1567 JUMP JUMPDEST PUSH2 0x37E JUMP JUMPDEST PUSH1 0x40 MLOAD PUSH2 0xA9 SWAP2 SWAP1 PUSH2 0x15A6 JUMP JUMPDEST PUSH2 0xE5 PUSH2 0xE0 CALLDATASIZE PUSH1 0x4 PUSH2 0x1567 JUMP JUMPDEST PUSH2 0x5E9 JUMP JUMPDEST PUSH1 0x40 MLOAD PUSH2 0xA9 SWAP2 SWAP1 PUSH2 0x165C JUMP JUMPDEST PUSH2 0x105 PUSH2 0x100 CALLDATASIZE PUSH1 0x4 PUSH2 0x16DC JUMP JUMPDEST PUSH2 0x84E JUMP JUMPDEST PUSH1 0x40 MLOAD PUSH2 0xA9 SWAP2 SWAP1 PUSH2 0x1740 JUMP JUMPDEST PUSH2 0x125 PUSH2 0x120 CALLDATASIZE PUSH1 0x4 PUSH2 0x1567 JUMP JUMPDEST PUSH2 0xA0B JUMP JUMPDEST PUSH1 0x40 MLOAD PUSH2 0xA9 SWAP2 SWAP1 PUSH2 0x180F JUMP JUMPDEST PUSH2 0x145 PUSH2 0x140 CALLDATASIZE PUSH1 0x4 PUSH2 0x142B JUMP JUMPDEST PUSH2 0xC7F JUMP JUMPDEST PUSH1 0x40 MLOAD PUSH2 0xA9 SWAP2 SWAP1 PUSH2 0x1851 JUMP JUMPDEST PUSH2 0x165 PUSH2 0x160 CALLDATASIZE PUSH1 0x4 PUSH2 0x142B JUMP JUMPDEST PUSH2 0x1011 JUMP JUMPDEST PUSH1 0x40 MLOAD PUSH2 0xA9 SWAP2 SWAP1 PUSH2 0x1866 JUMP JUMPDEST PUSH2 0x105 PUSH2 0x180 CALLDATASIZE PUSH1 0x4 PUSH2 0x18DD JUMP JUMPDEST PUSH2 0x1253 JUMP JUMPDEST PUSH2 0x1CF PUSH1 0x40 MLOAD DUP1 PUSH1 0xA0 ADD PUSH1 0x40 MSTORE DUP1 PUSH0 PUSH20 0xFFFFFFFFFFFFFFFFFFFFFFFFFFFFFFFFFFFFFFFF AND DUP2 MSTORE PUSH1 0x20 ADD PUSH0 PUSH1 0xFF AND DUP2 MSTORE PUSH1 0x20 ADD PUSH1 0x60 DUP2 MSTORE PUSH1 0x20 ADD PUSH1 0x60 DUP2 MSTORE PUSH1 0x20 ADD PUSH0 ISZERO ISZERO DUP2 MSTORE POP SWAP1 JUMP JUMPDEST PUSH20 0xFFFFFFFFFFFFFFFFFFFFFFFFFFFFFFFFFFFFFFFF DUP3 AND DUP1 DUP3 MSTORE PUSH1 0x40 DUP1 MLOAD PUSH32 0x313CE56700000000000000000000000000000000000000000000000000000000 DUP2 MSTORE SWAP1 MLOAD PUSH4 0x313CE567 SWAP2 PUSH1 0x4 DUP1 DUP3 ADD SWAP3 PUSH1 0x20 SWAP3 SWAP1 SWAP2 SWAP1 DUP3 SWAP1 SUB ADD DUP2 DUP7 GAS STATICCALL ISZERO DUP1 ISZERO PUSH2 0x23B JUMPI RETURNDATASIZE PUSH0 DUP1 RETURNDATACOPY RETURNDATASIZE PUSH0 REVERT JUMPDEST POP POP POP POP PUSH1 0x40 MLOAD RETURNDATASIZE PUSH1 0x1F NOT PUSH1 0x1F DUP3 ADD AND DUP3 ADD DUP1 PUSH1 0x40 MSTORE POP DUP2 ADD SWAP1 PUSH2 0x25F SWAP2 SWAP1 PUSH2 0x1945 JUMP JUMPDEST PUSH1 0xFF AND PUSH1 0x20 DUP3 ADD MSTORE PUSH1 0x40 DUP1 MLOAD PUSH32 0x95D89B4100000000000000000000000000000000000000000000000000000000 DUP2 MSTORE SWAP1 MLOAD PUSH20 0xFFFFFFFFFFFFFFFFFFFFFFFFFFFFFFFFFFFFFFFF DUP5 AND SWAP2 PUSH4 0x95D89B41 SWAP2 PUSH1 0x4 DUP1 DUP4 ADD SWAP3 PUSH0 SWAP3 SWAP2 SWAP1 DUP3 SWAP1 SUB ADD DUP2 DUP7 GAS STATICCALL ISZERO DUP1 ISZERO PUSH2 0x2CF JUMPI RETURNDATASIZE PUSH0 DUP1 RETURNDATACOPY RETURNDATASIZE PUSH0 REVERT JUMPDEST POP POP POP POP PUSH1 0x40 MLOAD RETURNDATASIZE PUSH0 DUP3 RETURNDATACOPY PUSH1 0x1F RETURNDATASIZE SWAP1 DUP2 ADD PUSH1 0x1F NOT AND DUP3 ADD PUSH1 0x40 MSTORE PUSH2 0x2F6 SWAP2 SWAP1 DUP2 ADD SWAP1 PUSH2 0x1A39 JUMP JUMPDEST DUP2 PUSH1 0x40 ADD DUP2 SWAP1 MSTORE POP DUP2 PUSH20 0xFFFFFFFFFFFFFFFFFFFFFFFFFFFFFFFFFFFFFFFF AND PUSH4 0x6FDDE03 PUSH1 0x40 MLOAD DUP2 PUSH4 0xFFFFFFFF AND PUSH1 0xE0 SHL DUP2 MSTORE PUSH1 0x4 ADD PUSH0 PUSH1 0x40 MLOAD DUP1 DUP4 SUB DUP2 DUP7 GAS STATICCALL ISZERO DUP1 ISZERO PUSH2 0x346 JUMPI RETURNDATASIZE PUSH0 DUP1 RETURNDATACOPY RETURNDATASIZE PUSH0 REVERT JUMPDEST POP POP POP POP PUSH1 0x40 MLOAD RETURNDATASIZE PUSH0 DUP3 RETURNDATACOPY PUSH1 0x1F RETURNDATASIZE SWAP1 DUP2 ADD PUSH1 0x1F NOT AND DUP3 ADD PUSH1 0x40 MSTORE PUSH2 0x36D SWAP2 SWAP1 DUP2 ADD SWAP1 PUSH2 0x1A39 JUMP JUMPDEST PUSH1 0x60 DUP3 ADD MSTORE PUSH1 0x1 PUSH1 0x80 DUP3 ADD MSTORE SWAP2 SWAP1 POP JUMP JUMPDEST PUSH1 0x60 DUP2 PUSH8 0xFFFFFFFFFFFFFFFF DUP2 GT ISZERO PUSH2 0x399 JUMPI PUSH2 0x399 PUSH2 0x195E JUMP JUMPDEST PUSH1 0x40 MLOAD SWAP1 DUP1 DUP3 MSTORE DUP1 PUSH1 0x20 MUL PUSH1 0x20 ADD DUP3 ADD PUSH1 0x40 MSTORE DUP1 ISZERO PUSH2 0x416 JUMPI DUP2 PUSH1 0x20 ADD JUMPDEST PUSH1 0x40 DUP1 MLOAD PUSH1 0xC0 DUP2 ADD DUP3 MSTORE PUSH0 DUP1 DUP3 MSTORE PUSH1 0x20 DUP1 DUP4 ADD DUP3 SWAP1 MSTORE SWAP3 DUP3 ADD DUP2 SWAP1 MSTORE PUSH1 0x60 DUP3 ADD DUP2 SWAP1 MSTORE PUSH1 0x80 DUP3 ADD DUP2 SWAP1 MSTORE PUSH1 0xA0 DUP3 ADD MSTORE DUP3 MSTORE PUSH32 0xFFFFFFFFFFFFFFFFFFFFFFFFFFFFFFFFFFFFFFFFFFFFFFFFFFFFFFFFFFFFFFFF SWAP1 SWAP3 ADD SWAP2 ADD DUP2 PUSH2 0x3B7 JUMPI SWAP1 POP JUMPDEST POP SWAP1 POP PUSH0 JUMPDEST DUP3 DUP2 LT ISZERO PUSH2 0x5E2 JUMPI DUP4 DUP4 DUP3 DUP2 DUP2 LT PUSH2 0x435 JUMPI PUSH2 0x435 PUSH2 0x1A73 JUMP JUMPDEST SWAP1 POP PUSH1 0x20 MUL ADD PUSH1 0x20 DUP2 ADD SWAP1 PUSH2 0x44A SWAP2 SWAP1 PUSH2 0x142B JUMP JUMPDEST DUP3 DUP3 DUP2 MLOAD DUP2 LT PUSH2 0x45C JUMPI PUSH2 0x45C PUSH2 0x1A73 JUMP JUMPDEST PUSH1 0x20 SWAP1 DUP2 MUL SWAP2 SWAP1 SWAP2 ADD ADD MLOAD PUSH20 0xFFFFFFFFFFFFFFFFFFFFFFFFFFFFFFFFFFFFFFFF SWAP1 SWAP2 AND SWAP1 MSTORE DUP4 DUP4 DUP3 DUP2 DUP2 LT PUSH2 0x493 JUMPI PUSH2 0x493 PUSH2 0x1A73 JUMP JUMPDEST SWAP1 POP PUSH1 0x20 MUL ADD PUSH1 0x20 DUP2 ADD SWAP1 PUSH2 0x4A8 SWAP2 SWAP1 PUSH2 0x142B JUMP JUMPDEST PUSH20 0xFFFFFFFFFFFFFFFFFFFFFFFFFFFFFFFFFFFFFFFF AND EXTCODESIZE PUSH0 SUB PUSH2 0x4F1 JUMPI PUSH0 DUP3 DUP3 DUP2 MLOAD DUP2 LT PUSH2 0x4D8 JUMPI PUSH2 0x4D8 PUSH2 0x1A73 JUMP JUMPDEST PUSH1 0x20 SWAP1 DUP2 MUL SWAP2 SWAP1 SWAP2 ADD ADD MLOAD SWAP1 ISZERO ISZERO PUSH1 0xA0 SWAP1 SWAP2 ADD MSTORE PUSH2 0x5DA JUMP JUMPDEST ADDRESS PUSH4 0xF7F28466 DUP6 DUP6 DUP5 DUP2 DUP2 LT PUSH2 0x509 JUMPI PUSH2 0x509 PUSH2 0x1A73 JUMP JUMPDEST SWAP1 POP PUSH1 0x20 MUL ADD PUSH1 0x20 DUP2 ADD SWAP1 PUSH2 0x51E SWAP2 SWAP1 PUSH2 0x142B JUMP JUMPDEST PUSH1 0x40 MLOAD PUSH32 0xFFFFFFFF00000000000000000000000000000000000000000000000000000000 PUSH1 0xE0 DUP5 SWAP1 SHL AND DUP2 MSTORE PUSH20 0xFFFFFFFFFFFFFFFFFFFFFFFFFFFFFFFFFFFFFFFF SWAP1 SWAP2 AND PUSH1 0x4 DUP3 ADD MSTORE PUSH1 0x24 ADD PUSH1 0xC0 PUSH1 0x40 MLOAD DUP1 DUP4 SUB DUP2 DUP7 GAS STATICCALL SWAP3 POP POP POP DUP1 ISZERO PUSH2 0x5A3 JUMPI POP PUSH1 0x40 DUP1 MLOAD PUSH1 0x1F RETURNDATASIZE SWAP1 DUP2 ADD PUSH1 0x1F NOT AND DUP3 ADD SWAP1 SWAP3 MSTORE PUSH2 0x5A0 SWAP2 DUP2 ADD SWAP1 PUSH2 0x1AD7 JUMP JUMPDEST PUSH1 0x1 JUMPDEST PUSH2 0x5BA JUMPI PUSH0 DUP3 DUP3 DUP2 MLOAD DUP2 LT PUSH2 0x4D8 JUMPI PUSH2 0x4D8 PUSH2 0x1A73 JUMP JUMPDEST DUP1 DUP4 DUP4 DUP2 MLOAD DUP2 LT PUSH2 0x5CD JUMPI PUSH2 0x5CD PUSH2 0x1A73 JUMP JUMPDEST PUSH1 0x20 MUL PUSH1 0x20 ADD ADD DUP2 SWAP1 MSTORE POP POP JUMPDEST PUSH1 0x1 ADD PUSH2 0x41B JUMP JUMPDEST POP SWAP3 SWAP2 POP POP JUMP JUMPDEST PUSH1 0x60 DUP2 PUSH8 0xFFFFFFFFFFFFFFFF DUP2 GT ISZERO PUSH2 0x604 JUMPI PUSH2 0x604 PUSH2 0x195E JUMP JUMPDEST PUSH1 0x40 MLOAD SWAP1 DUP1 DUP3 MSTORE DUP1 PUSH1 0x20 MUL PUSH1 0x20 ADD DUP3 ADD PUSH1 0x40 MSTORE DUP1 ISZERO PUSH2 0x67F JUMPI DUP2 PUSH1 0x20 ADD JUMPDEST PUSH2 0x66C PUSH1 0x40 MLOAD DUP1 PUSH1 0xA0 ADD PUSH1 0x40 MSTORE DUP1 PUSH0 PUSH20 0xFFFFFFFFFFFFFFFFFFFFFFFFFFFFFFFFFFFFFFFF AND DUP2 MSTORE PUSH1 0x20 ADD PUSH0 PUSH1 0xFF AND DUP2 MSTORE PUSH1 0x20 ADD PUSH1 0x60 DUP2 MSTORE PUSH1 0x20 ADD PUSH1 0x60 DUP2 MSTORE PUSH1 0x20 ADD PUSH0 ISZERO ISZERO DUP2 MSTORE POP SWAP1 JUMP JUMPDEST DUP2 MSTORE PUSH1 0x20 ADD SWAP1 PUSH1 0x1 SWAP1 SUB SWAP1 DUP2 PUSH2 0x622 JUMPI SWAP1 POP JUMPDEST POP SWAP1 POP PUSH0 JUMPDEST DUP3 DUP2 LT ISZERO PUSH2 0x5E2 JUMPI DUP4 DUP4 DUP3 DUP2 DUP2 LT PUSH2 0x69E JUMPI PUSH2 0x69E PUSH2 0x1A73 JUMP JUMPDEST SWAP1 POP PUSH1 0x20 MUL ADD PUSH1 0x20 DUP2 ADD SWAP1 PUSH2 0x6B3 SWAP2 SWAP1 PUSH2 0x142B JUMP JUMPDEST DUP3 DUP3 DUP2 MLOAD DUP2 LT PUSH2 0x6C5 JUMPI PUSH2 0x6C5 PUSH2 0x1A73 JUMP JUMPDEST PUSH1 0x20 SWAP1 DUP2 MUL SWAP2 SWAP1 SWAP2 ADD ADD MLOAD PUSH20 0xFFFFFFFFFFFFFFFFFFFFFFFFFFFFFFFFFFFFFFFF SWAP1 SWAP2 AND SWAP1 MSTORE DUP4 DUP4 DUP3 DUP2 DUP2 LT PUSH2 0x6FC JUMPI PUSH2 0x6FC PUSH2 0x1A73 JUMP JUMPDEST SWAP1 POP PUSH1 0x20 MUL ADD PUSH1 0x20 DUP2 ADD SWAP1 PUSH2 0x711 SWAP2 SWAP1 PUSH2 0x142B JUMP JUMPDEST PUSH20 0xFFFFFFFFFFFFFFFFFFFFFFFFFFFFFFFFFFFFFFFF AND EXTCODESIZE PUSH0 SUB PUSH2 0x75A JUMPI PUSH0 DUP3 DUP3 DUP2 MLOAD DUP2 LT PUSH2 0x741 JUMPI PUSH2 0x741 PUSH2 0x1A73 JUMP JUMPDEST PUSH1 0x20 SWAP1 DUP2 MUL SWAP2 SWAP1 SWAP2 ADD ADD MLOAD SWAP1 ISZERO ISZERO PUSH1 0x80 SWAP1 SWAP2 ADD MSTORE PUSH2 0x846 JUMP JUMPDEST ADDRESS PUSH4 0x3E82AE22 DUP6 DUP6 DUP5 DUP2 DUP2 LT PUSH2 0x772 JUMPI PUSH2 0x772 PUSH2 0x1A73 JUMP JUMPDEST SWAP1 POP PUSH1 0x20 MUL ADD PUSH1 0x20 DUP2 ADD SWAP1 PUSH2 0x787 SWAP2 SWAP1 PUSH2 0x142B JUMP JUMPDEST PUSH1 0x40 MLOAD PUSH32 0xFFFFFFFF00000000000000000000000000000000000000000000000000000000 PUSH1 0xE0 DUP5 SWAP1 SHL AND DUP2 MSTORE PUSH20 0xFFFFFFFFFFFFFFFFFFFFFFFFFFFFFFFFFFFFFFFF SWAP1 SWAP2 AND PUSH1 0x4 DUP3 ADD MSTORE PUSH1 0x24 ADD PUSH0 PUSH1 0x40 MLOAD DUP1 DUP4 SUB DUP2 DUP7 GAS STATICCALL SWAP3 POP POP POP DUP1 ISZERO PUSH2 0x80F JUMPI POP PUSH1 0x40 MLOAD RETURNDATASIZE PUSH0 DUP3 RETURNDATACOPY PUSH1 0x1F RETURNDATASIZE SWAP1 DUP2 ADD PUSH1 0x1F NOT AND DUP3 ADD PUSH1 0x40 MSTORE PUSH2 0x80C SWAP2 SWAP1 DUP2 ADD SWAP1 PUSH2 0x1B7A JUMP JUMPDEST PUSH1 0x1 JUMPDEST PUSH2 0x826 JUMPI PUSH0 DUP3 DUP3 DUP2 MLOAD DUP2 LT PUSH2 0x741 JUMPI PUSH2 0x741 PUSH2 0x1A73 JUMP JUMPDEST DUP1 DUP4 DUP4 DUP2 MLOAD DUP2 LT PUSH2 0x839 JUMPI PUSH2 0x839 PUSH2 0x1A73 JUMP JUMPDEST PUSH1 0x20 MUL PUSH1 0x20 ADD ADD DUP2 SWAP1 MSTORE POP POP JUMPDEST PUSH1 0x1 ADD PUSH2 0x684 JUMP JUMPDEST PUSH1 0x60 PUSH0 DUP5 PUSH8 0xFFFFFFFFFFFFFFFF DUP2 GT ISZERO PUSH2 0x86A JUMPI PUSH2 0x86A PUSH2 0x195E JUMP JUMPDEST PUSH1 0x40 MLOAD SWAP1 DUP1 DUP3 MSTORE DUP1 PUSH1 0x20 MUL PUSH1 0x20 ADD DUP3 ADD PUSH1 0x40 MSTORE DUP1 ISZERO PUSH2 0x893 JUMPI DUP2 PUSH1 0x20 ADD PUSH1 0x20 DUP3 MUL DUP1 CALLDATASIZE DUP4 CALLDATACOPY ADD SWAP1 POP JUMPDEST POP SWAP1 POP PUSH0 JUMPDEST DUP6 DUP2 LT ISZERO PUSH2 0xA01 JUMPI DUP7 DUP7 DUP3 DUP2 DUP2 LT PUSH2 0x8B2 JUMPI PUSH2 0x8B2 PUSH2 0x1A73 JUMP JUMPDEST SWAP1 POP PUSH1 0x20 MUL ADD PUSH1 0x20 DUP2 ADD SWAP1 PUSH2 0x8C7 SWAP2 SWAP1 PUSH2 0x142B JUMP JUMPDEST PUSH20 0xFFFFFFFFFFFFFFFFFFFFFFFFFFFFFFFFFFFFFFFF AND EXTCODESIZE PUSH0 SUB PUSH2 0x908 JUMPI PUSH0 DUP3 DUP3 DUP2 MLOAD DUP2 LT PUSH2 0x8F7 JUMPI PUSH2 0x8F7 PUSH2 0x1A73 JUMP JUMPDEST PUSH1 0x20 MUL PUSH1 0x20 ADD ADD DUP2 DUP2 MSTORE POP POP PUSH2 0x9F9 JUMP JUMPDEST DUP7 DUP7 DUP3 DUP2 DUP2 LT PUSH2 0x91A JUMPI PUSH2 0x91A PUSH2 0x1A73 JUMP JUMPDEST SWAP1 POP PUSH1 0x20 MUL ADD PUSH1 0x20 DUP2 ADD SWAP1 PUSH2 0x92F SWAP2 SWAP1 PUSH2 0x142B JUMP JUMPDEST PUSH1 0x40 MLOAD PUSH32 0xDD62ED3E00000000000000000000000000000000000000000000000000000000 DUP2 MSTORE PUSH20 0xFFFFFFFFFFFFFFFFFFFFFFFFFFFFFFFFFFFFFFFF DUP8 DUP2 AND PUSH1 0x4 DUP4 ADD MSTORE DUP7 DUP2 AND PUSH1 0x24 DUP4 ADD MSTORE SWAP2 SWAP1 SWAP2 AND SWAP1 PUSH4 0xDD62ED3E SWAP1 PUSH1 0x44 ADD PUSH1 0x20 PUSH1 0x40 MLOAD DUP1 DUP4 SUB DUP2 DUP7 GAS STATICCALL SWAP3 POP POP POP DUP1 ISZERO PUSH2 0x9C1 JUMPI POP PUSH1 0x40 DUP1 MLOAD PUSH1 0x1F RETURNDATASIZE SWAP1 DUP2 ADD PUSH1 0x1F NOT AND DUP3 ADD SWAP1 SWAP3 MSTORE PUSH2 0x9BE SWAP2 DUP2 ADD SWAP1 PUSH2 0x1C3A JUMP JUMPDEST PUSH1 0x1 JUMPDEST PUSH2 0x9D8 JUMPI PUSH0 DUP3 DUP3 DUP2 MLOAD DUP2 LT PUSH2 0x8F7 JUMPI PUSH2 0x8F7 PUSH2 0x1A73 JUMP JUMPDEST DUP1 DUP4 DUP4 DUP2 MLOAD DUP2 LT PUSH2 0x9EB JUMPI PUSH2 0x9EB PUSH2 0x1A73 JUMP JUMPDEST PUSH1 0x20 MUL PUSH1 0x20 ADD ADD DUP2 DUP2 MSTORE POP POP POP JUMPDEST PUSH1 0x1 ADD PUSH2 0x898 JUMP JUMPDEST POP SWAP6 SWAP5 POP POP POP POP POP JUMP JUMPDEST PUSH1 0x60 DUP2 PUSH8 0xFFFFFFFFFFFFFFFF DUP2 GT ISZERO PUSH2 0xA26 JUMPI PUSH2 0xA26 PUSH2 0x195E JUMP JUMPDEST PUSH1 0x40 MLOAD SWAP1 DUP1 DUP3 MSTORE DUP1 PUSH1 0x20 MUL PUSH1 0x20 ADD DUP3 ADD PUSH1 0x40 MSTORE DUP1 ISZERO PUSH2 0xAB2 JUMPI DUP2 PUSH1 0x20 ADD JUMPDEST PUSH1 0x40 DUP1 MLOAD PUSH2 0x100 DUP2 ADD DUP3 MSTORE PUSH0 DUP1 DUP3 MSTORE PUSH1 0x20 DUP1 DUP4 ADD DUP3 SWAP1 MSTORE SWAP3 DUP3 ADD DUP2 SWAP1 MSTORE PUSH1 0x60 DUP3 ADD DUP2 SWAP1 MSTORE PUSH1 0x80 DUP3 ADD DUP2 SWAP1 MSTORE PUSH1 0xA0 DUP3 ADD DUP2 SWAP1 MSTORE PUSH1 0xC0 DUP3 ADD DUP2 SWAP1 MSTORE PUSH1 0xE0 DUP3 ADD MSTORE DUP3 MSTORE PUSH32 0xFFFFFFFFFFFFFFFFFFFFFFFFFFFFFFFFFFFFFFFFFFFFFFFFFFFFFFFFFFFFFFFF SWAP1 SWAP3 ADD SWAP2 ADD DUP2 PUSH2 0xA44 JUMPI SWAP1 POP JUMPDEST POP SWAP1 POP PUSH0 JUMPDEST DUP3 DUP2 LT ISZERO PUSH2 0x5E2 JUMPI DUP4 DUP4 DUP3 DUP2 DUP2 LT PUSH2 0xAD1 JUMPI PUSH2 0xAD1 PUSH2 0x1A73 JUMP JUMPDEST SWAP1 POP PUSH1 0x20 MUL ADD PUSH1 0x20 DUP2 ADD SWAP1 PUSH2 0xAE6 SWAP2 SWAP1 PUSH2 0x142B JUMP JUMPDEST DUP3 DUP3 DUP2 MLOAD DUP2 LT PUSH2 0xAF8 JUMPI PUSH2 0xAF8 PUSH2 0x1A73 JUMP JUMPDEST PUSH1 0x20 SWAP1 DUP2 MUL SWAP2 SWAP1 SWAP2 ADD ADD MLOAD PUSH20 0xFFFFFFFFFFFFFFFFFFFFFFFFFFFFFFFFFFFFFFFF SWAP1 SWAP2 AND SWAP1 MSTORE DUP4 DUP4 DUP3 DUP2 DUP2 LT PUSH2 0xB2F JUMPI PUSH2 0xB2F PUSH2 0x1A73 JUMP JUMPDEST SWAP1 POP PUSH1 0x20 MUL ADD PUSH1 0x20 DUP2 ADD SWAP1 PUSH2 0xB44 SWAP2 SWAP1 PUSH2 0x142B JUMP JUMPDEST PUSH20 0xFFFFFFFFFFFFFFFFFFFFFFFFFFFFFFFFFFFFFFFF AND EXTCODESIZE PUSH0 SUB PUSH2 0xB8D JUMPI PUSH0 DUP3 DUP3 DUP2 MLOAD DUP2 LT PUSH2 0xB74 JUMPI PUSH2 0xB74 PUSH2 0x1A73 JUMP JUMPDEST PUSH1 0x20 SWAP1 DUP2 MUL SWAP2 SWAP1 SWAP2 ADD ADD MLOAD SWAP1 ISZERO ISZERO PUSH1 0xE0 SWAP1 SWAP2 ADD MSTORE PUSH2 0xC77 JUMP JUMPDEST ADDRESS PUSH4 0xEDF50B30 DUP6 DUP6 DUP5 DUP2 DUP2 LT PUSH2 0xBA5 JUMPI PUSH2 0xBA5 PUSH2 0x1A73 JUMP JUMPDEST SWAP1 POP PUSH1 0x20 MUL ADD PUSH1 0x20 DUP2 ADD SWAP1 PUSH2 0xBBA SWAP2 SWAP1 PUSH2 0x142B JUMP JUMPDEST PUSH1 0x40 MLOAD PUSH32 0xFFFFFFFF00000000000000000000000000000000000000000000000000000000 PUSH1 0xE0 DUP5 SWAP1 SHL AND DUP2 MSTORE PUSH20 0xFFFFFFFFFFFFFFFFFFFFFFFFFFFFFFFFFFFFFFFF SWAP1 SWAP2 AND PUSH1 0x4 DUP3 ADD MSTORE PUSH1 0x24 ADD PUSH2 0x100 PUSH1 0x40 MLOAD DUP1 DUP4 SUB DUP2 DUP7 GAS STATICCALL SWAP3 POP POP POP DUP1 ISZERO PUSH2 0xC40 JUMPI POP PUSH1 0x40 DUP1 MLOAD PUSH1 0x1F RETURNDATASIZE SWAP1 DUP2 ADD PUSH1 0x1F NOT AND DUP3 ADD SWAP1 SWAP3 MSTORE PUSH2 0xC3D SWAP2 DUP2 ADD SWAP1 PUSH2 0x1C93 JUMP JUMPDEST PUSH1 0x1 JUMPDEST PUSH2 0xC57 JUMPI PUSH0 DUP3 DUP3 DUP2 MLOAD DUP2 LT PUSH2 0xB74 JUMPI PUSH2 0xB74 PUSH2 0x1A73 JUMP JUMPDEST DUP1 DUP4 DUP4 DUP2 MLOAD DUP2 LT PUSH2 0xC6A JUMPI PUSH2 0xC6A PUSH2 0x1A73 JUMP JUMPDEST PUSH1 0x20 MUL PUSH1 0x20 ADD ADD DUP2 SWAP1 MSTORE POP POP JUMPDEST PUSH1 0x1 ADD PUSH2 0xAB7 JUMP JUMPDEST PUSH1 0x40 DUP1 MLOAD PUSH2 0x100 DUP2 ADD DUP3 MSTORE PUSH0 PUSH1 0x20 DUP3 ADD DUP2 SWAP1 MSTORE DUP2 DUP4 ADD DUP2 SWAP1 MSTORE PUSH1 0x60 DUP3 ADD DUP2 SWAP1 MSTORE PUSH1 0x80 DUP3 ADD DUP2 SWAP1 MSTORE PUSH1 0xA0 DUP3 ADD DUP2 SWAP1 MSTORE PUSH1 0xC0 DUP3 ADD DUP2 SWAP1 MSTORE PUSH1 0xE0 DUP1 DUP4 ADD DUP3 SWAP1 MSTORE PUSH20 0xFFFFFFFFFFFFFFFFFFFFFFFFFFFFFFFFFFFFFFFF DUP6 AND DUP1 DUP5 MSTORE DUP5 MLOAD PUSH32 0x3850C7BD00000000000000000000000000000000000000000000000000000000 DUP2 MSTORE SWAP5 MLOAD SWAP4 SWAP5 SWAP3 SWAP4 DUP5 SWAP4 SWAP2 SWAP3 PUSH4 0x3850C7BD SWAP3 PUSH1 0x4 DUP1 DUP3 ADD SWAP4 SWAP2 DUP3 SWAP1 SUB ADD DUP2 DUP7 GAS STATICCALL ISZERO DUP1 ISZERO PUSH2 0xD29 JUMPI RETURNDATASIZE PUSH0 DUP1 RETURNDATACOPY RETURNDATASIZE PUSH0 REVERT JUMPDEST POP POP POP POP PUSH1 0x40 MLOAD RETURNDATASIZE PUSH1 0x1F NOT PUSH1 0x1F DUP3 ADD AND DUP3 ADD DUP1 PUSH1 0x40 MSTORE POP DUP2 ADD SWAP1 PUSH2 0xD4D SWAP2 SWAP1 PUSH2 0x1D6C JUMP JUMPDEST POP POP POP POP POP SWAP2 POP SWAP2 POP DUP2 DUP4 PUSH1 0x20 ADD SWAP1 PUSH20 0xFFFFFFFFFFFFFFFFFFFFFFFFFFFFFFFFFFFFFFFF AND SWAP1 DUP2 PUSH20 0xFFFFFFFFFFFFFFFFFFFFFFFFFFFFFFFFFFFFFFFF AND DUP2 MSTORE POP POP DUP1 DUP4 PUSH1 0x40 ADD SWAP1 PUSH1 0x2 SIGNEXTEND SWAP1 DUP2 PUSH1 0x2 SIGNEXTEND DUP2 MSTORE POP POP DUP4 PUSH20 0xFFFFFFFFFFFFFFFFFFFFFFFFFFFFFFFFFFFFFFFF AND PUSH4 0x1A686502 PUSH1 0x40 MLOAD DUP2 PUSH4 0xFFFFFFFF AND PUSH1 0xE0 SHL DUP2 MSTORE PUSH1 0x4 ADD PUSH1 0x20 PUSH1 0x40 MLOAD DUP1 DUP4 SUB DUP2 DUP7 GAS STATICCALL ISZERO DUP1 ISZERO PUSH2 0xDE9 JUMPI RETURNDATASIZE PUSH0 DUP1 RETURNDATACOPY RETURNDATASIZE PUSH0 REVERT JUMPDEST POP POP POP POP PUSH1 0x40 MLOAD RETURNDATASIZE PUSH1 0x1F NOT PUSH1 0x1F DUP3 ADD AND DUP3 ADD DUP1 PUSH1 0x40 MSTORE POP DUP2 ADD SWAP1 PUSH2 0xE0D SWAP2 SWAP1 PUSH2 0x1DEF JUMP JUMPDEST PUSH16 0xFFFFFFFFFFFFFFFFFFFFFFFFFFFFFFFF AND PUSH1 0x60 DUP5 ADD MSTORE PUSH1 0x40 DUP1 MLOAD PUSH32 0xDFE168100000000000000000000000000000000000000000000000000000000 DUP2 MSTORE SWAP1 MLOAD PUSH20 0xFFFFFFFFFFFFFFFFFFFFFFFFFFFFFFFFFFFFFFFF DUP7 AND SWAP2 PUSH4 0xDFE1681 SWAP2 PUSH1 0x4 DUP1 DUP4 ADD SWAP3 PUSH1 0x20 SWAP3 SWAP2 SWAP1 DUP3 SWAP1 SUB ADD DUP2 DUP7 GAS STATICCALL ISZERO DUP1 ISZERO PUSH2 0xE8D JUMPI RETURNDATASIZE PUSH0 DUP1 RETURNDATACOPY RETURNDATASIZE PUSH0 REVERT JUMPDEST POP POP POP POP PUSH1 0x40 MLOAD RETURNDATASIZE PUSH1 0x1F NOT PUSH1 0x1F DUP3 ADD AND DUP3 ADD DUP1 PUSH1 0x40 MSTORE POP DUP2 ADD SWAP1 PUSH2 0xEB1 SWAP2 SWAP1 PUSH2 0x1E08 JUMP JUMPDEST DUP4 PUSH1 0x80 ADD SWAP1 PUSH20 0xFFFFFFFFFFFFFFFFFFFFFFFFFFFFFFFFFFFFFFFF AND SWAP1 DUP2 PUSH20 0xFFFFFFFFFFFFFFFFFFFFFFFFFFFFFFFFFFFFFFFF AND DUP2 MSTORE POP POP DUP4 PUSH20 0xFFFFFFFFFFFFFFFFFFFFFFFFFFFFFFFFFFFFFFFF AND PUSH4 0xD21220A7 PUSH1 0x40 MLOAD DUP2 PUSH4 0xFFFFFFFF AND PUSH1 0xE0 SHL DUP2 MSTORE PUSH1 0x4 ADD PUSH1 0x20 PUSH1 0x40 MLOAD DUP1 DUP4 SUB DUP2 DUP7 GAS STATICCALL ISZERO DUP1 ISZERO PUSH2 0xF31 JUMPI RETURNDATASIZE PUSH0 DUP1 RETURNDATACOPY RETURNDATASIZE PUSH0 REVERT JUMPDEST POP POP POP POP PUSH1 0x40 MLOAD RETURNDATASIZE PUSH1 0x1F NOT PUSH1 0x1F DUP3 ADD AND DUP3 ADD DUP1 PUSH1 0x40 MSTORE POP DUP2 ADD SWAP1 PUSH2 0xF55 SWAP2 SWAP1 PUSH2 0x1E08 JUMP JUMPDEST DUP4 PUSH1 0xA0 ADD SWAP1 PUSH20 0xFFFFFFFFFFFFFFFFFFFFFFFFFFFFFFFFFFFFFFFF AND SWAP1 DUP2 PUSH20 0xFFFFFFFFFFFFFFFFFFFFFFFFFFFFFFFFFFFFFFFF AND DUP2 MSTORE POP POP DUP4 PUSH20 0xFFFFFFFFFFFFFFFFFFFFFFFFFFFFFFFFFFFFFFFF AND PUSH4 0xDDCA3F43 PUSH1 0x40 MLOAD DUP2 PUSH4 0xFFFFFFFF AND PUSH1 0xE0 SHL DUP2 MSTORE PUSH1 0x4 ADD PUSH1 0x20 PUSH1 0x40 MLOAD DUP1 DUP4 SUB DUP2 DUP7 GAS STATICCALL ISZERO DUP1 ISZERO PUSH2 0xFD5 JUMPI RETURNDATASIZE PUSH0 DUP1 RETURNDATACOPY RETURNDATASIZE PUSH0 REVERT JUMPDEST POP POP POP POP PUSH1 0x40 MLOAD RETURNDATASIZE PUSH1 0x1F NOT PUSH1 0x1F DUP3 ADD AND DUP3 ADD DUP1 PUSH1 0x40 MSTORE POP DUP2 ADD SWAP1 PUSH2 0xFF9 SWAP2 SWAP1 PUSH2 0x1E23 JUMP JUMPDEST PUSH3 0xFFFFFF AND PUSH1 0xC0 DUP5 ADD MSTORE POP POP PUSH1 0x1 PUSH1 0xE0 DUP3 ADD MSTORE SWAP2 SWAP1 POP JUMP JUMPDEST PUSH1 0x40 DUP1 MLOAD PUSH1 0xC0 DUP2 ADD DUP3 MSTORE PUSH0 PUSH1 0x20 DUP3 ADD DUP2 SWAP1 MSTORE DUP2 DUP4 ADD DUP2 SWAP1 MSTORE PUSH1 0x60 DUP1 DUP4 ADD DUP3 SWAP1 MSTORE PUSH1 0x80 DUP4 ADD DUP3 SWAP1 MSTORE PUSH1 0xA0 DUP4 ADD DUP3 SWAP1 MSTORE PUSH20 0xFFFFFFFFFFFFFFFFFFFFFFFFFFFFFFFFFFFFFFFF DUP6 AND DUP1 DUP5 MSTORE DUP5 MLOAD PUSH32 0x902F1AC00000000000000000000000000000000000000000000000000000000 DUP2 MSTORE SWAP5 MLOAD SWAP4 SWAP5 SWAP3 SWAP4 DUP5 SWAP4 SWAP2 SWAP3 PUSH4 0x902F1AC SWAP3 PUSH1 0x4 DUP1 DUP3 ADD SWAP4 SWAP2 DUP3 SWAP1 SUB ADD DUP2 DUP7 GAS STATICCALL ISZERO DUP1 ISZERO PUSH2 0x10AC JUMPI RETURNDATASIZE PUSH0 DUP1 RETURNDATACOPY RETURNDATASIZE PUSH0 REVERT JUMPDEST POP POP POP POP PUSH1 0x40 MLOAD RETURNDATASIZE PUSH1 0x1F NOT PUSH1 0x1F DUP3 ADD AND DUP3 ADD DUP1 PUSH1 0x40 MSTORE POP DUP2 ADD SWAP1 PUSH2 0x10D0 SWAP2 SWAP1 PUSH2 0x1E3C JUMP JUMPDEST POP PUSH14 0xFFFFFFFFFFFFFFFFFFFFFFFFFFFF DUP1 DUP4 AND PUSH1 0x20 DUP1 DUP9 ADD SWAP2 SWAP1 SWAP2 MSTORE SWAP1 DUP3 AND PUSH1 0x40 DUP1 DUP9 ADD SWAP2 SWAP1 SWAP2 MSTORE DUP1 MLOAD PUSH32 0xDFE168100000000000000000000000000000000000000000000000000000000 DUP2 MSTORE SWAP1 MLOAD SWAP4 SWAP6 POP SWAP2 SWAP4 POP PUSH20 0xFFFFFFFFFFFFFFFFFFFFFFFFFFFFFFFFFFFFFFFF DUP8 AND SWAP3 PUSH4 0xDFE1681 SWAP3 PUSH1 0x4 DUP1 DUP3 ADD SWAP4 SWAP3 SWAP2 DUP3 SWAP1 SUB ADD DUP2 DUP7 GAS STATICCALL ISZERO DUP1 ISZERO PUSH2 0x1162 JUMPI RETURNDATASIZE PUSH0 DUP1 RETURNDATACOPY RETURNDATASIZE PUSH0 REVERT JUMPDEST POP POP POP POP PUSH1 0x40 MLOAD RETURNDATASIZE PUSH1 0x1F NOT PUSH1 0x1F DUP3 ADD AND DUP3 ADD DUP1 PUSH1 0x40 MSTORE POP DUP2 ADD SWAP1 PUSH2 0x1186 SWAP2 SWAP1 PUSH2 0x1E08 JUMP JUMPDEST DUP4 PUSH1 0x60 ADD SWAP1 PUSH20 0xFFFFFFFFFFFFFFFFFFFFFFFFFFFFFFFFFFFFFFFF AND SWAP1 DUP2 PUSH20 0xFFFFFFFFFFFFFFFFFFFFFFFFFFFFFFFFFFFFFFFF AND DUP2 MSTORE POP POP DUP4 PUSH20 0xFFFFFFFFFFFFFFFFFFFFFFFFFFFFFFFFFFFFFFFF AND PUSH4 0xD21220A7 PUSH1 0x40 MLOAD DUP2 PUSH4 0xFFFFFFFF AND PUSH1 0xE0 SHL DUP2 MSTORE PUSH1 0x4 ADD PUSH1 0x20 PUSH1 0x40 MLOAD DUP1 DUP4 SUB DUP2 DUP7 GAS STATICCALL ISZERO DUP1 ISZERO PUSH2 0x1206 JUMPI RETURNDATASIZE PUSH0 DUP1 RETURNDATACOPY RETURNDATASIZE PUSH0 REVERT JUMPDEST POP POP POP POP PUSH1 0x40 MLOAD RETURNDATASIZE PUSH1 0x1F NOT PUSH1 0x1F DUP3 ADD AND DUP3 ADD DUP1 PUSH1 0x40 MSTORE POP DUP2 ADD SWAP1 PUSH2 0x122A SWAP2 SWAP1 PUSH2 0x1E08 JUMP JUMPDEST PUSH20 0xFFFFFFFFFFFFFFFFFFFFFFFFFFFFFFFFFFFFFFFF AND PUSH1 0x80 DUP5 ADD MSTORE POP POP PUSH1 0x1 PUSH1 0xA0 DUP3 ADD MSTORE SWAP2 SWAP1 POP JUMP JUMPDEST PUSH1 0x60 PUSH0 DUP4 PUSH8 0xFFFFFFFFFFFFFFFF DUP2 GT ISZERO PUSH2 0x126F JUMPI PUSH2 0x126F PUSH2 0x195E JUMP JUMPDEST PUSH1 0x40 MLOAD SWAP1 DUP1 DUP3 MSTORE DUP1 PUSH1 0x20 MUL PUSH1 0x20 ADD DUP3 ADD PUSH1 0x40 MSTORE DUP1 ISZERO PUSH2 0x1298 JUMPI DUP2 PUSH1 0x20 ADD PUSH1 0x20 DUP3 MUL DUP1 CALLDATASIZE DUP4 CALLDATACOPY ADD SWAP1 POP JUMPDEST POP SWAP1 POP PUSH0 JUMPDEST DUP5 DUP2 LT ISZERO PUSH2 0x13FE JUMPI DUP6 DUP6 DUP3 DUP2 DUP2 LT PUSH2 0x12B7 JUMPI PUSH2 0x12B7 PUSH2 0x1A73 JUMP JUMPDEST SWAP1 POP PUSH1 0x20 MUL ADD PUSH1 0x20 DUP2 ADD SWAP1 PUSH2 0x12CC SWAP2 SWAP1 PUSH2 0x142B JUMP JUMPDEST PUSH20 0xFFFFFFFFFFFFFFFFFFFFFFFFFFFFFFFFFFFFFFFF AND EXTCODESIZE PUSH0 SUB PUSH2 0x130D JUMPI PUSH0 DUP3 DUP3 DUP2 MLOAD DUP2 LT PUSH2 0x12FC JUMPI PUSH2 0x12FC PUSH2 0x1A73 JUMP JUMPDEST PUSH1 0x20 MUL PUSH1 0x20 ADD ADD DUP2 DUP2 MSTORE POP POP PUSH2 0x13F6 JUMP JUMPDEST DUP6 DUP6 DUP3 DUP2 DUP2 LT PUSH2 0x131F JUMPI PUSH2 0x131F PUSH2 0x1A73 JUMP JUMPDEST SWAP1 POP PUSH1 0x20 MUL ADD PUSH1 0x20 DUP2 ADD SWAP1 PUSH2 0x1334 SWAP2 SWAP1 PUSH2 0x142B JUMP JUMPDEST PUSH1 0x40 MLOAD PUSH32 0x70A0823100000000000000000000000000000000000000000000000000000000 DUP2 MSTORE PUSH20 0xFFFFFFFFFFFFFFFFFFFFFFFFFFFFFFFFFFFFFFFF DUP7 DUP2 AND PUSH1 0x4 DUP4 ADD MSTORE SWAP2 SWAP1 SWAP2 AND SWAP1 PUSH4 0x70A08231 SWAP1 PUSH1 0x24 ADD PUSH1 0x20 PUSH1 0x40 MLOAD DUP1 DUP4 SUB DUP2 DUP7 GAS STATICCALL SWAP3 POP POP POP DUP1 ISZERO PUSH2 0x13BE JUMPI POP PUSH1 0x40 DUP1 MLOAD PUSH1 0x1F RETURNDATASIZE SWAP1 DUP2 ADD PUSH1 0x1F NOT AND DUP3 ADD SWAP1 SWAP3 MSTORE PUSH2 0x13BB SWAP2 DUP2 ADD SWAP1 PUSH2 0x1C3A JUMP JUMPDEST PUSH1 0x1 JUMPDEST PUSH2 0x13D5 JUMPI PUSH0 DUP3 DUP3 DUP2 MLOAD DUP2 LT PUSH2 0x12FC JUMPI PUSH2 0x12FC PUSH2 0x1A73 JUMP JUMPDEST DUP1 DUP4 DUP4 DUP2 MLOAD DUP2 LT PUSH2 0x13E8 JUMPI PUSH2 0x13E8 PUSH2 0x1A73 JUMP JUMPDEST PUSH1 0x20 MUL PUSH1 0x20 ADD ADD DUP2 DUP2 MSTORE POP POP POP JUMPDEST PUSH1 0x1 ADD PUSH2 0x129D JUMP JUMPDEST POP SWAP5 SWAP4 POP POP POP POP JUMP JUMPDEST PUSH20 0xFFFFFFFFFFFFFFFFFFFFFFFFFFFFFFFFFFFFFFFF DUP2 AND DUP2 EQ PUSH2 0x1428 JUMPI PUSH0 DUP1 REVERT JUMPDEST POP JUMP JUMPDEST PUSH0 PUSH1 0x20 DUP3 DUP5 SUB SLT ISZERO PUSH2 0x143B JUMPI PUSH0 DUP1 REVERT JUMPDEST DUP2 CALLDATALOAD PUSH2 0x1446 DUP2 PUSH2 0x1407 JUMP JUMPDEST SWAP4 SWAP3 POP POP POP JUMP JUMPDEST PUSH0 JUMPDEST DUP4 DUP2 LT ISZERO PUSH2 0x1467 JUMPI DUP2 DUP2 ADD MLOAD DUP4 DUP3 ADD MSTORE PUSH1 0x20 ADD PUSH2 0x144F JUMP JUMPDEST POP POP PUSH0 SWAP2 ADD MSTORE JUMP JUMPDEST PUSH0 DUP2 MLOAD DUP1 DUP5 MSTORE PUSH2 0x1486 DUP2 PUSH1 0x20 DUP7 ADD PUSH1 0x20 DUP7 ADD PUSH2 0x144D JUMP JUMPDEST PUSH1 0x1F ADD PUSH1 0x1F NOT AND SWAP3 SWAP1 SWAP3 ADD PUSH1 0x20 ADD SWAP3 SWAP2 POP POP JUMP JUMPDEST PUSH20 0xFFFFFFFFFFFFFFFFFFFFFFFFFFFFFFFFFFFFFFFF DUP2 MLOAD AND DUP3 MSTORE PUSH1 0xFF PUSH1 0x20 DUP3 ADD MLOAD AND PUSH1 0x20 DUP4 ADD MSTORE PUSH0 PUSH1 0x40 DUP3 ADD MLOAD PUSH1 0xA0 PUSH1 0x40 DUP6 ADD MSTORE PUSH2 0x14DB PUSH1 0xA0 DUP6 ADD DUP3 PUSH2 0x146F JUMP JUMPDEST SWAP1 POP PUSH1 0x60 DUP4 ADD MLOAD DUP5 DUP3 SUB PUSH1 0x60 DUP7 ADD MSTORE PUSH2 0x14F4 DUP3 DUP3 PUSH2 0x146F JUMP JUMPDEST SWAP2 POP POP PUSH1 0x80 DUP4 ADD MLOAD ISZERO ISZERO PUSH1 0x80 DUP6 ADD MSTORE DUP1 SWAP2 POP POP SWAP3 SWAP2 POP POP JUMP JUMPDEST PUSH1 0x20 DUP2 MSTORE PUSH0 PUSH2 0x1446 PUSH1 0x20 DUP4 ADD DUP5 PUSH2 0x149A JUMP JUMPDEST PUSH0 DUP1 DUP4 PUSH1 0x1F DUP5 ADD SLT PUSH2 0x152F JUMPI PUSH0 DUP1 REVERT JUMPDEST POP DUP2 CALLDATALOAD PUSH8 0xFFFFFFFFFFFFFFFF DUP2 GT ISZERO PUSH2 0x1546 JUMPI PUSH0 DUP1 REVERT JUMPDEST PUSH1 0x20 DUP4 ADD SWAP2 POP DUP4 PUSH1 0x20 DUP3 PUSH1 0x5 SHL DUP6 ADD ADD GT ISZERO PUSH2 0x1560 JUMPI PUSH0 DUP1 REVERT JUMPDEST SWAP3 POP SWAP3 SWAP1 POP JUMP JUMPDEST PUSH0 DUP1 PUSH1 0x20 DUP4 DUP6 SUB SLT ISZERO PUSH2 0x1578 JUMPI PUSH0 DUP1 REVERT JUMPDEST DUP3 CALLDATALOAD PUSH8 0xFFFFFFFFFFFFFFFF DUP2 GT ISZERO PUSH2 0x158E JUMPI PUSH0 DUP1 REVERT JUMPDEST PUSH2 0x159A DUP6 DUP3 DUP7 ADD PUSH2 0x151F JUMP JUMPDEST SWAP1 SWAP7 SWAP1 SWAP6 POP SWAP4 POP POP POP POP JUMP JUMPDEST PUSH1 0x20 DUP1 DUP3 MSTORE DUP3 MLOAD DUP3 DUP3 ADD DUP2 SWAP1 MSTORE PUSH0 SWAP2 SWAP1 DUP5 DUP3 ADD SWAP1 PUSH1 0x40 DUP6 ADD SWAP1 DUP5 JUMPDEST DUP2 DUP2 LT ISZERO PUSH2 0x1650 JUMPI PUSH2 0x163D DUP4 DUP6 MLOAD PUSH20 0xFFFFFFFFFFFFFFFFFFFFFFFFFFFFFFFFFFFFFFFF DUP1 DUP3 MLOAD AND DUP4 MSTORE PUSH1 0x20 DUP3 ADD MLOAD PUSH14 0xFFFFFFFFFFFFFFFFFFFFFFFFFFFF DUP1 DUP3 AND PUSH1 0x20 DUP7 ADD MSTORE DUP1 PUSH1 0x40 DUP6 ADD MLOAD AND PUSH1 0x40 DUP7 ADD MSTORE POP POP DUP1 PUSH1 0x60 DUP4 ADD MLOAD AND PUSH1 0x60 DUP5 ADD MSTORE DUP1 PUSH1 0x80 DUP4 ADD MLOAD AND PUSH1 0x80 DUP5 ADD MSTORE POP PUSH1 0xA0 DUP2 ADD MLOAD ISZERO ISZERO PUSH1 0xA0 DUP4 ADD MSTORE POP POP JUMP JUMPDEST SWAP3 DUP5 ADD SWAP3 PUSH1 0xC0 SWAP3 SWAP1 SWAP3 ADD SWAP2 PUSH1 0x1 ADD PUSH2 0x15C1 JUMP JUMPDEST POP SWAP1 SWAP7 SWAP6 POP POP POP POP POP POP JUMP JUMPDEST PUSH0 PUSH1 0x20 DUP1 DUP4 ADD PUSH1 0x20 DUP5 MSTORE DUP1 DUP6 MLOAD DUP1 DUP4 MSTORE PUSH1 0x40 DUP7 ADD SWAP2 POP PUSH1 0x40 DUP2 PUSH1 0x5 SHL DUP8 ADD ADD SWAP3 POP PUSH1 0x20 DUP8 ADD PUSH0 JUMPDEST DUP3 DUP2 LT ISZERO PUSH2 0x16CF JUMPI PUSH32 0xFFFFFFFFFFFFFFFFFFFFFFFFFFFFFFFFFFFFFFFFFFFFFFFFFFFFFFFFFFFFFFC0 DUP9 DUP7 SUB ADD DUP5 MSTORE PUSH2 0x16BD DUP6 DUP4 MLOAD PUSH2 0x149A JUMP JUMPDEST SWAP5 POP SWAP3 DUP6 ADD SWAP3 SWAP1 DUP6 ADD SWAP1 PUSH1 0x1 ADD PUSH2 0x1683 JUMP JUMPDEST POP SWAP3 SWAP8 SWAP7 POP POP POP POP POP POP POP JUMP JUMPDEST PUSH0 DUP1 PUSH0 DUP1 PUSH1 0x60 DUP6 DUP8 SUB SLT ISZERO PUSH2 0x16EF JUMPI PUSH0 DUP1 REVERT JUMPDEST DUP5 CALLDATALOAD PUSH8 0xFFFFFFFFFFFFFFFF DUP2 GT ISZERO PUSH2 0x1705 JUMPI PUSH0 DUP1 REVERT JUMPDEST PUSH2 0x1711 DUP8 DUP3 DUP9 ADD PUSH2 0x151F JUMP JUMPDEST SWAP1 SWAP6 POP SWAP4 POP POP PUSH1 0x20 DUP6 ADD CALLDATALOAD PUSH2 0x1725 DUP2 PUSH2 0x1407 JUMP JUMPDEST SWAP2 POP PUSH1 0x40 DUP6 ADD CALLDATALOAD PUSH2 0x1735 DUP2 PUSH2 0x1407 JUMP JUMPDEST SWAP4 SWAP7 SWAP3 SWAP6 POP SWAP1 SWAP4 POP POP JUMP JUMPDEST PUSH1 0x20 DUP1 DUP3 MSTORE DUP3 MLOAD DUP3 DUP3 ADD DUP2 SWAP1 MSTORE PUSH0 SWAP2 SWAP1 DUP5 DUP3 ADD SWAP1 PUSH1 0x40 DUP6 ADD SWAP1 DUP5 JUMPDEST DUP2 DUP2 LT ISZERO PUSH2 0x1650 JUMPI DUP4 MLOAD DUP4 MSTORE SWAP3 DUP5 ADD SWAP3 SWAP2 DUP5 ADD SWAP2 PUSH1 0x1 ADD PUSH2 0x175B JUMP JUMPDEST PUSH20 0xFFFFFFFFFFFFFFFFFFFFFFFFFFFFFFFFFFFFFFFF DUP1 DUP3 MLOAD AND DUP4 MSTORE DUP1 PUSH1 0x20 DUP4 ADD MLOAD AND PUSH1 0x20 DUP5 ADD MSTORE PUSH1 0x40 DUP3 ADD MLOAD PUSH1 0x2 SIGNEXTEND PUSH1 0x40 DUP5 ADD MSTORE PUSH16 0xFFFFFFFFFFFFFFFFFFFFFFFFFFFFFFFF PUSH1 0x60 DUP4 ADD MLOAD AND PUSH1 0x60 DUP5 ADD MSTORE DUP1 PUSH1 0x80 DUP4 ADD MLOAD AND PUSH1 0x80 DUP5 ADD MSTORE DUP1 PUSH1 0xA0 DUP4 ADD MLOAD AND PUSH1 0xA0 DUP5 ADD MSTORE POP PUSH1 0xC0 DUP2 ADD MLOAD PUSH2 0x17F6 PUSH1 0xC0 DUP5 ADD DUP3 PUSH3 0xFFFFFF AND SWAP1 MSTORE JUMP JUMPDEST POP PUSH1 0xE0 DUP2 ADD MLOAD PUSH2 0x180A PUSH1 0xE0 DUP5 ADD DUP3 ISZERO ISZERO SWAP1 MSTORE JUMP JUMPDEST POP POP POP JUMP JUMPDEST PUSH1 0x20 DUP1 DUP3 MSTORE DUP3 MLOAD DUP3 DUP3 ADD DUP2 SWAP1 MSTORE PUSH0 SWAP2 SWAP1 DUP5 DUP3 ADD SWAP1 PUSH1 0x40 DUP6 ADD SWAP1 DUP5 JUMPDEST DUP2 DUP2 LT ISZERO PUSH2 0x1650 JUMPI PUSH2 0x183D DUP4 DUP6 MLOAD PUSH2 0x1777 JUMP JUMPDEST SWAP3 DUP5 ADD SWAP3 PUSH2 0x100 SWAP3 SWAP1 SWAP3 ADD SWAP2 PUSH1 0x1 ADD PUSH2 0x182A JUMP JUMPDEST PUSH2 0x100 DUP2 ADD PUSH2 0x1860 DUP3 DUP5 PUSH2 0x1777 JUMP JUMPDEST SWAP3 SWAP2 POP POP JUMP JUMPDEST PUSH1 0xC0 DUP2 ADD PUSH2 0x1860 DUP3 DUP5 PUSH20 0xFFFFFFFFFFFFFFFFFFFFFFFFFFFFFFFFFFFFFFFF DUP1 DUP3 MLOAD AND DUP4 MSTORE PUSH1 0x20 DUP3 ADD MLOAD PUSH14 0xFFFFFFFFFFFFFFFFFFFFFFFFFFFF DUP1 DUP3 AND PUSH1 0x20 DUP7 ADD MSTORE DUP1 PUSH1 0x40 DUP6 ADD MLOAD AND PUSH1 0x40 DUP7 ADD MSTORE POP POP DUP1 PUSH1 0x60 DUP4 ADD MLOAD AND PUSH1 0x60 DUP5 ADD MSTORE DUP1 PUSH1 0x80 DUP4 ADD MLOAD AND PUSH1 0x80 DUP5 ADD MSTORE POP PUSH1 0xA0 DUP2 ADD MLOAD ISZERO ISZERO PUSH1 0xA0 DUP4 ADD MSTORE POP POP JUMP JUMPDEST PUSH0 DUP1 PUSH0 PUSH1 0x40 DUP5 DUP7 SUB SLT ISZERO PUSH2 0x18EF JUMPI PUSH0 DUP1 REVERT JUMPDEST DUP4 CALLDATALOAD PUSH8 0xFFFFFFFFFFFFFFFF DUP2 GT ISZERO PUSH2 0x1905 JUMPI PUSH0 DUP1 REVERT JUMPDEST PUSH2 0x1911 DUP7 DUP3 DUP8 ADD PUSH2 0x151F JUMP JUMPDEST SWAP1 SWAP5 POP SWAP3 POP POP PUSH1 0x20 DUP5 ADD CALLDATALOAD PUSH2 0x1925 DUP2 PUSH2 0x1407 JUMP JUMPDEST DUP1 SWAP2 POP POP SWAP3 POP SWAP3 POP SWAP3 JUMP JUMPDEST DUP1 MLOAD PUSH1 0xFF DUP2 AND DUP2 EQ PUSH2 0x1940 JUMPI PUSH0 DUP1 REVERT JUMPDEST SWAP2 SWAP1 POP JUMP JUMPDEST PUSH0 PUSH1 0x20 DUP3 DUP5 SUB SLT ISZERO PUSH2 0x1955 JUMPI PUSH0 DUP1 REVERT JUMPDEST PUSH2 0x1446 DUP3 PUSH2 0x1930 JUMP JUMPDEST PUSH32 0x4E487B7100000000000000000000000000000000000000000000000000000000 PUSH0 MSTORE PUSH1 0x41 PUSH1 0x4 MSTORE PUSH1 0x24 PUSH0 REVERT JUMPDEST PUSH1 0x40 MLOAD PUSH1 0xA0 DUP2 ADD PUSH8 0xFFFFFFFFFFFFFFFF DUP2 GT DUP3 DUP3 LT OR ISZERO PUSH2 0x19AE JUMPI PUSH2 0x19AE PUSH2 0x195E JUMP JUMPDEST PUSH1 0x40 MSTORE SWAP1 JUMP JUMPDEST PUSH0 DUP3 PUSH1 0x1F DUP4 ADD SLT PUSH2 0x19C3 JUMPI PUSH0 DUP1 REVERT JUMPDEST DUP2 MLOAD PUSH8 0xFFFFFFFFFFFFFFFF DUP1 DUP3 GT ISZERO PUSH2 0x19DE JUMPI PUSH2 0x19DE PUSH2 0x195E JUMP JUMPDEST PUSH1 0x40 MLOAD PUSH1 0x1F DUP4 ADD PUSH1 0x1F NOT SWAP1 DUP2 AND PUSH1 0x3F ADD AND DUP2 ADD SWAP1 DUP3 DUP3 GT DUP2 DUP4 LT OR ISZERO PUSH2 0x1A06 JUMPI PUSH2 0x1A06 PUSH2 0x195E JUMP JUMPDEST DUP2 PUSH1 0x40 MSTORE DUP4 DUP2 MSTORE DUP7 PUSH1 0x20 DUP6 DUP9 ADD ADD GT ISZERO PUSH2 0x1A1E JUMPI PUSH0 DUP1 REVERT JUMPDEST PUSH2 0x1A2F DUP5 PUSH1 0x20 DUP4 ADD PUSH1 0x20 DUP10 ADD PUSH2 0x144D JUMP JUMPDEST SWAP7 SWAP6 POP POP POP POP POP POP JUMP JUMPDEST PUSH0 PUSH1 0x20 DUP3 DUP5 SUB SLT ISZERO PUSH2 0x1A49 JUMPI PUSH0 DUP1 REVERT JUMPDEST DUP2 MLOAD PUSH8 0xFFFFFFFFFFFFFFFF DUP2 GT ISZERO PUSH2 0x1A5F JUMPI PUSH0 DUP1 REVERT JUMPDEST PUSH2 0x1A6B DUP5 DUP3 DUP6 ADD PUSH2 0x19B4 JUMP JUMPDEST SWAP5 SWAP4 POP POP POP POP JUMP JUMPDEST PUSH32 0x4E487B7100000000000000000000000000000000000000000000000000000000 PUSH0 MSTORE PUSH1 0x32 PUSH1 0x4 MSTORE PUSH1 0x24 PUSH0 REVERT JUMPDEST DUP1 MLOAD PUSH2 0x1940 DUP2 PUSH2 0x1407 JUMP JUMPDEST DUP1 MLOAD PUSH14 0xFFFFFFFFFFFFFFFFFFFFFFFFFFFF DUP2 AND DUP2 EQ PUSH2 0x1940 JUMPI PUSH0 DUP1 REVERT JUMPDEST DUP1 MLOAD DUP1 ISZERO ISZERO DUP2 EQ PUSH2 0x1940 JUMPI PUSH0 DUP1 REVERT JUMPDEST PUSH0 PUSH1 0xC0 DUP3 DUP5 SUB SLT ISZERO PUSH2 0x1AE7 JUMPI PUSH0 DUP1 REVERT JUMPDEST PUSH1 0x40 MLOAD PUSH1 0xC0 DUP2 ADD DUP2 DUP2 LT PUSH8 0xFFFFFFFFFFFFFFFF DUP3 GT OR ISZERO PUSH2 0x1B0A JUMPI PUSH2 0x1B0A PUSH2 0x195E JUMP JUMPDEST PUSH1 0x40 MSTORE DUP3 MLOAD PUSH2 0x1B18 DUP2 PUSH2 0x1407 JUMP JUMPDEST DUP2 MSTORE PUSH2 0x1B26 PUSH1 0x20 DUP5 ADD PUSH2 0x1AAB JUMP JUMPDEST PUSH1 0x20 DUP3 ADD MSTORE PUSH2 0x1B37 PUSH1 0x40 DUP5 ADD PUSH2 0x1AAB JUMP JUMPDEST PUSH1 0x40 DUP3 ADD MSTORE PUSH1 0x60 DUP4 ADD MLOAD PUSH2 0x1B4A DUP2 PUSH2 0x1407 JUMP JUMPDEST PUSH1 0x60 DUP3 ADD MSTORE PUSH1 0x80 DUP4 ADD MLOAD PUSH2 0x1B5D DUP2 PUSH2 0x1407 JUMP JUMPDEST PUSH1 0x80 DUP3 ADD MSTORE PUSH2 0x1B6E PUSH1 0xA0 DUP5 ADD PUSH2 0x1AC8 JUMP JUMPDEST PUSH1 0xA0 DUP3 ADD MSTORE SWAP4 SWAP3 POP POP POP JUMP JUMPDEST PUSH0 PUSH1 0x20 DUP3 DUP5 SUB SLT ISZERO PUSH2 0x1B8A JUMPI PUSH0 DUP1 REVERT JUMPDEST DUP2 MLOAD PUSH8 0xFFFFFFFFFFFFFFFF DUP1 DUP3 GT ISZERO PUSH2 0x1BA1 JUMPI PUSH0 DUP1 REVERT JUMPDEST SWAP1 DUP4 ADD SWAP1 PUSH1 0xA0 DUP3 DUP7 SUB SLT ISZERO PUSH2 0x1BB4 JUMPI PUSH0 DUP1 REVERT JUMPDEST PUSH2 0x1BBC PUSH2 0x198B JUMP JUMPDEST DUP3 MLOAD PUSH2 0x1BC7 DUP2 PUSH2 0x1407 JUMP JUMPDEST DUP2 MSTORE PUSH2 0x1BD5 PUSH1 0x20 DUP5 ADD PUSH2 0x1930 JUMP JUMPDEST PUSH1 0x20 DUP3 ADD MSTORE PUSH1 0x40 DUP4 ADD MLOAD DUP3 DUP2 GT ISZERO PUSH2 0x1BEB JUMPI PUSH0 DUP1 REVERT JUMPDEST PUSH2 0x1BF7 DUP8 DUP3 DUP7 ADD PUSH2 0x19B4 JUMP JUMPDEST PUSH1 0x40 DUP4 ADD MSTORE POP PUSH1 0x60 DUP4 ADD MLOAD DUP3 DUP2 GT ISZERO PUSH2 0x1C0E JUMPI PUSH0 DUP1 REVERT JUMPDEST PUSH2 0x1C1A DUP8 DUP3 DUP7 ADD PUSH2 0x19B4 JUMP JUMPDEST PUSH1 0x60 DUP4 ADD MSTORE POP PUSH2 0x1C2C PUSH1 0x80 DUP5 ADD PUSH2 0x1AC8 JUMP JUMPDEST PUSH1 0x80 DUP3 ADD MSTORE SWAP6 SWAP5 POP POP POP POP POP JUMP JUMPDEST PUSH0 PUSH1 0x20 DUP3 DUP5 SUB SLT ISZERO PUSH2 0x1C4A JUMPI PUSH0 DUP1 REVERT JUMPDEST POP MLOAD SWAP2 SWAP1 POP JUMP JUMPDEST DUP1 MLOAD PUSH1 0x2 DUP2 SWAP1 SIGNEXTEND DUP2 EQ PUSH2 0x1940 JUMPI PUSH0 DUP1 REVERT JUMPDEST DUP1 MLOAD PUSH16 0xFFFFFFFFFFFFFFFFFFFFFFFFFFFFFFFF DUP2 AND DUP2 EQ PUSH2 0x1940 JUMPI PUSH0 DUP1 REVERT JUMPDEST DUP1 MLOAD PUSH3 0xFFFFFF DUP2 AND DUP2 EQ PUSH2 0x1940 JUMPI PUSH0 DUP1 REVERT JUMPDEST PUSH0 PUSH2 0x100 DUP1 DUP4 DUP6 SUB SLT ISZERO PUSH2 0x1CA5 JUMPI PUSH0 DUP1 REVERT JUMPDEST PUSH1 0x40 MLOAD SWAP1 DUP2 ADD SWAP1 PUSH8 0xFFFFFFFFFFFFFFFF DUP3 GT DUP2 DUP4 LT OR ISZERO PUSH2 0x1CC8 JUMPI PUSH2 0x1CC8 PUSH2 0x195E JUMP JUMPDEST DUP2 PUSH1 0x40 MSTORE DUP4 MLOAD SWAP2 POP PUSH2 0x1CD9 DUP3 PUSH2 0x1407 JUMP JUMPDEST DUP2 DUP2 MSTORE PUSH2 0x1CE8 PUSH1 0x20 DUP6 ADD PUSH2 0x1AA0 JUMP JUMPDEST PUSH1 0x20 DUP3 ADD MSTORE PUSH2 0x1CF9 PUSH1 0x40 DUP6 ADD PUSH2 0x1C51 JUMP JUMPDEST PUSH1 0x40 DUP3 ADD MSTORE PUSH2 0x1D0A PUSH1 0x60 DUP6 ADD PUSH2 0x1C62 JUMP JUMPDEST PUSH1 0x60 DUP3 ADD MSTORE PUSH2 0x1D1B PUSH1 0x80 DUP6 ADD PUSH2 0x1AA0 JUMP JUMPDEST PUSH1 0x80 DUP3 ADD MSTORE PUSH2 0x1D2C PUSH1 0xA0 DUP6 ADD PUSH2 0x1AA0 JUMP JUMPDEST PUSH1 0xA0 DUP3 ADD MSTORE PUSH2 0x1D3D PUSH1 0xC0 DUP6 ADD PUSH2 0x1C81 JUMP JUMPDEST PUSH1 0xC0 DUP3 ADD MSTORE PUSH2 0x1D4E PUSH1 0xE0 DUP6 ADD PUSH2 0x1AC8 JUMP JUMPDEST PUSH1 0xE0 DUP3 ADD MSTORE SWAP5 SWAP4 POP POP POP POP JUMP JUMPDEST DUP1 MLOAD PUSH2 0xFFFF DUP2 AND DUP2 EQ PUSH2 0x1940 JUMPI PUSH0 DUP1 REVERT JUMPDEST PUSH0 DUP1 PUSH0 DUP1 PUSH0 DUP1 PUSH0 PUSH1 0xE0 DUP9 DUP11 SUB SLT ISZERO PUSH2 0x1D82 JUMPI PUSH0 DUP1 REVERT JUMPDEST DUP8 MLOAD PUSH2 0x1D8D DUP2 PUSH2 0x1407 JUMP JUMPDEST SWAP7 POP PUSH2 0x1D9B PUSH1 0x20 DUP10 ADD PUSH2 0x1C51 JUMP JUMPDEST SWAP6 POP PUSH2 0x1DA9 PUSH1 0x40 DUP10 ADD PUSH2 0x1D5B JUMP JUMPDEST SWAP5 POP PUSH2 0x1DB7 PUSH1 0x60 DUP10 ADD PUSH2 0x1D5B JUMP JUMPDEST SWAP4 POP PUSH2 0x1DC5 PUSH1 0x80 DUP10 ADD PUSH2 0x1D5B JUMP JUMPDEST SWAP3 POP PUSH2 0x1DD3 PUSH1 0xA0 DUP10 ADD PUSH2 0x1930 JUMP JUMPDEST SWAP2 POP PUSH2 0x1DE1 PUSH1 0xC0 DUP10 ADD PUSH2 0x1AC8 JUMP JUMPDEST SWAP1 POP SWAP3 SWAP6 SWAP9 SWAP2 SWAP5 SWAP8 POP SWAP3 SWAP6 POP JUMP JUMPDEST PUSH0 PUSH1 0x20 DUP3 DUP5 SUB SLT ISZERO PUSH2 0x1DFF JUMPI PUSH0 DUP1 REVERT JUMPDEST PUSH2 0x1446 DUP3 PUSH2 0x1C62 JUMP JUMPDEST PUSH0 PUSH1 0x20 DUP3 DUP5 SUB SLT ISZERO PUSH2 0x1E18 JUMPI PUSH0 DUP1 REVERT JUMPDEST DUP2 MLOAD PUSH2 0x1446 DUP2 PUSH2 0x1407 JUMP JUMPDEST PUSH0 PUSH1 0x20 DUP3 DUP5 SUB SLT ISZERO PUSH2 0x1E33 JUMPI PUSH0 DUP1 REVERT JUMPDEST PUSH2 0x1446 DUP3 PUSH2 0x1C81 JUMP JUMPDEST PUSH0 DUP1 PUSH0 PUSH1 0x60 DUP5 DUP7 SUB SLT ISZERO PUSH2 0x1E4E JUMPI PUSH0 DUP1 REVERT JUMPDEST PUSH2 0x1E57 DUP5 PUSH2 0x1AAB JUMP JUMPDEST SWAP3 POP PUSH2 0x1E65 PUSH1 0x20 DUP6 ADD PUSH2 0x1AAB JUMP JUMPDEST SWAP2 POP PUSH1 0x40 DUP5 ADD MLOAD PUSH4 0xFFFFFFFF DUP2 AND DUP2 EQ PUSH2 0x1925 JUMPI PUSH0 DUP1 REVERT INVALID LOG2 PUSH5 0x6970667358 0x22 SLT KECCAK256 GASLIMIT PUSH21 0xAE5173F7A6C85F52EF07B4E20AC4688BC6E0E8640F LOG2 0xC8 PUSH1 0xC2 DUP9 NUMBER 0xD0 CODECOPY SIGNEXTEND PUSH5 0x736F6C6343 STOP ADDMOD XOR STOP CALLER "},"methodIdentifiers":{"batchCheckAllowances(address[],address,address)":"8c99c4d1","batchCheckTokenBalances(address[],address)":"ff8f622a","batchGetTokenMetadata(address[])":"7e5108e0","batchGetV2PoolData(address[])":"569a542f","batchGetV3PoolData(address[])":"b35afa7f","getTokenMetadataSingle(address)":"3e82ae22","getV2PoolDataSingle(address)":"f7f28466","getV3PoolDataSingle(address)":"edf50b30"}}}}}