{
  "_format": "hh-sol-artifact-1",
  "contractName": "MockRouter",
  "sourceName": "contracts/test/MockRouter.sol",
  "abi": [
    {
      "anonymous": false,
      "inputs": [
        {
          "indexed": false,
          "internalType": "address",
          "name": "tokenIn",
          "type": "address"
        },
        {
          "indexed": false,
          "internalType": "address",
          "name": "tokenOut",
          "type": "address"
        },
        {
          "indexed": false,
          "internalType": "uint256",
          "name": "amountIn",
          "type": "uint256"
        },
        {
          "indexed": false,
          "internalType": "uint256",
          "name": "amountOut",
          "type": "uint256"
        },
        {
          "indexed": false,
          "internalType": "address",
          "name": "recipient",
          "type": "address"
        }
      ],
      "name": "Swap",
      "type": "event"
    },
    {
      "inputs": [
        {
          "internalType": "address",
          "name": "tokenIn",
          "type": "address"
        },
        {
          "internalType": "address",
          "name": "tokenOut",
          "type": "address"
        },
        {
          "internalType": "uint256",
          "name": "amountIn",
          "type": "uint256"
        },
        {
          "internalType": "uint256",
          "name": "amountOut",
          "type": "uint256"
        },
        {
          "internalType": "address",
          "name": "recipient",
          "type": "address"
        }
      ],
      "name": "swap",
      "outputs": [],
      "stateMutability": "nonpayable",
      "type": "function"
    }
  ],
  "bytecode": "0x608060405234801561000f575f80fd5b506102b88061001d5f395ff3fe608060405234801561000f575f80fd5b5060043610610029575f3560e01c8063d5bcb9b51461002d575b5f80fd5b61004061003b366004610209565b610042565b005b6040517f23b872dd0000000000000000000000000000000000000000000000000000000081523360048201523060248201526044810184905273ffffffffffffffffffffffffffffffffffffffff8616906323b872dd906064016020604051808303815f875af11580156100b8573d5f803e3d5ffd5b505050506040513d601f19601f820116820180604052508101906100dc919061025c565b506040517fa9059cbb00000000000000000000000000000000000000000000000000000000815273ffffffffffffffffffffffffffffffffffffffff82811660048301526024820184905285169063a9059cbb906044016020604051808303815f875af115801561014f573d5f803e3d5ffd5b505050506040513d601f19601f82011682018060405250810190610173919061025c565b506040805173ffffffffffffffffffffffffffffffffffffffff87811682528681166020830152818301869052606082018590528316608082015290517fb39c9bc43f811e1a7ce159c5f147458fdb80266bf23c17322013316e27e086d09181900360a00190a15050505050565b803573ffffffffffffffffffffffffffffffffffffffff81168114610204575f80fd5b919050565b5f805f805f60a0868803121561021d575f80fd5b610226866101e1565b9450610234602087016101e1565b93506040860135925060608601359150610250608087016101e1565b90509295509295909350565b5f6020828403121561026c575f80fd5b8151801515811461027b575f80fd5b939250505056fea26469706673582212207440de3c63086ee05b05efee24638a2eca86a1261faf21c7afafbef1b66d34b164736f6c63430008180033",
  "linkReferences": {},
  "deployedLinkReferences": {}
}