{
  "_format": "hh-sol-artifact-1",
  "contractName": "Executor",
  "sourceName": "contracts/Executor.sol",
  "abi": [
    {
      "inputs": [
        {
          "internalType": "address",
          "name": "initialOwner",
          "type": "address"
        }
      ],
      "stateMutability": "nonpayable",
      "type": "constructor"
    },
    {
      "inputs": [],
      "name": "EnforcedPause",
      "type": "error"
    },
    {
      "inputs": [
        {
          "internalType": "uint256",
          "name": "index",
          "type": "uint256"
        },
        {
          "internalType": "address",
          "name": "target",
          "type": "address"
        },
        {
          "internalType": "bytes",
          "name": "reason",
          "type": "bytes"
        }
      ],
      "name": "ExecutionFailed",
      "type": "error"
    },
    {
      "inputs": [],
      "name": "ExpectedPause",
      "type": "error"
    },
    {
      "inputs": [],
      "name": "FailedCall",
      "type": "error"
    },
    {
      "inputs": [
        {
          "internalType": "uint256",
          "name": "balance",
          "type": "uint256"
        },
        {
          "internalType": "uint256",
          "name": "needed",
          "type": "uint256"
        }
      ],
      "name": "InsufficientBalance",
      "type": "error"
    },
    {
      "inputs": [
        {
          "internalType": "uint256",
          "name": "offset",
          "type": "uint256"
        },
        {
          "internalType": "uint256",
          "name": "length",
          "type": "uint256"
        }
      ],
      "name": "InvalidInjectionOffset",
      "type": "error"
    },
    {
      "inputs": [
        {
          "internalType": "address",
          "name": "owner",
          "type": "address"
        }
      ],
      "name": "OwnableInvalidOwner",
      "type": "error"
    },
    {
      "inputs": [
        {
          "internalType": "address",
          "name": "account",
          "type": "address"
        }
      ],
      "name": "OwnableUnauthorizedAccount",
      "type": "error"
    },
    {
      "inputs": [],
      "name": "ReentrancyGuardReentrantCall",
      "type": "error"
    },
    {
      "inputs": [
        {
          "internalType": "address",
          "name": "token",
          "type": "address"
        }
      ],
      "name": "SafeERC20FailedOperation",
      "type": "error"
    },
    {
      "inputs": [],
      "name": "ZeroAmountInjection",
      "type": "error"
    },
    {
      "anonymous": false,
      "inputs": [
        {
          "indexed": true,
          "internalType": "address",
          "name": "previousOwner",
          "type": "address"
        },
        {
          "indexed": true,
          "internalType": "address",
          "name": "newOwner",
          "type": "address"
        }
      ],
      "name": "OwnershipTransferred",
      "type": "event"
    },
    {
      "anonymous": false,
      "inputs": [
        {
          "indexed": false,
          "internalType": "address",
          "name": "account",
          "type": "address"
        }
      ],
      "name": "Paused",
      "type": "event"
    },
    {
      "anonymous": false,
      "inputs": [
        {
          "indexed": false,
          "internalType": "address",
          "name": "account",
          "type": "address"
        }
      ],
      "name": "Unpaused",
      "type": "event"
    },
    {
      "inputs": [
        {
          "components": [
            {
              "internalType": "address",
              "name": "token",
              "type": "address"
            },
            {
              "internalType": "uint256",
              "name": "amount",
              "type": "uint256"
            }
          ],
          "internalType": "struct Executor.TokenPull[]",
          "name": "pulls",
          "type": "tuple[]"
        },
        {
          "components": [
            {
              "internalType": "address",
              "name": "token",
              "type": "address"
            },
            {
              "internalType": "address",
              "name": "spender",
              "type": "address"
            },
            {
              "internalType": "uint256",
              "name": "amount",
              "type": "uint256"
            }
          ],
          "internalType": "struct Executor.Approval[]",
          "name": "approvals",
          "type": "tuple[]"
        },
        {
          "components": [
            {
              "internalType": "address",
              "name": "target",
              "type": "address"
            },
            {
              "internalType": "uint256",
              "name": "value",
              "type": "uint256"
            },
            {
              "internalType": "bytes",
              "name": "data",
              "type": "bytes"
            },
            {
              "internalType": "address",
              "name": "injectToken",
              "type": "address"
            },
            {
              "internalType": "uint256",
              "name": "injectOffset",
              "type": "uint256"
            }
          ],
          "internalType": "struct Executor.Call[]",
          "name": "calls",
          "type": "tuple[]"
        },
        {
          "internalType": "address[]",
          "name": "tokensToFlush",
          "type": "address[]"
        }
      ],
      "name": "execute",
      "outputs": [
        {
          "internalType": "bytes[]",
          "name": "results",
          "type": "bytes[]"
        }
      ],
      "stateMutability": "payable",
      "type": "function"
    },
    {
      "inputs": [],
      "name": "owner",
      "outputs": [
        {
          "internalType": "address",
          "name": "",
          "type": "address"
        }
      ],
      "stateMutability": "view",
      "type": "function"
    },
    {
      "inputs": [],
      "name": "pause",
      "outputs": [],
      "stateMutability": "nonpayable",
      "type": "function"
    },
    {
      "inputs": [],
      "name": "paused",
      "outputs": [
        {
          "internalType": "bool",
          "name": "",
          "type": "bool"
        }
      ],
      "stateMutability": "view",
      "type": "function"
    },
    {
      "inputs": [],
      "name": "renounceOwnership",
      "outputs": [],
      "stateMutability": "nonpayable",
      "type": "function"
    },
    {
      "inputs": [
        {
          "internalType": "address payable",
          "name": "to",
          "type": "address"
        },
        {
          "internalType": "uint256",
          "name": "amount",
          "type": "uint256"
        }
      ],
      "name": "rescueETH",
      "outputs": [],
      "stateMutability": "nonpayable",
      "type": "function"
    },
    {
      "inputs": [
        {
          "internalType": "address",
          "name": "token",
          "type": "address"
        },
        {
          "internalType": "address",
          "name": "to",
          "type": "address"
        },
        {
          "internalType": "uint256",
          "name": "amount",
          "type": "uint256"
        }
      ],
      "name": "rescueFunds",
      "outputs": [],
      "stateMutability": "nonpayable",
      "type": "function"
    },
    {
      "inputs": [
        {
          "internalType": "address",
          "name": "newOwner",
          "type": "address"
        }
      ],
      "name": "transferOwnership",
      "outputs": [],
      "stateMutability": "nonpayable",
      "type": "function"
    },
    {
      "inputs": [],
      "name": "unpause",
      "outputs": [],
      "stateMutability": "nonpayable",
      "type": "function"
    },
    {
      "stateMutability": "payable",
      "type": "receive"
    }
  ],
  "bytecode": "0x608060405234801561000f575f80fd5b506040516115aa3803806115aa83398101604081905261002e916100bf565b806001600160a01b03811661005c57604051631e4fbdf760e01b81525f600482015260240160405180910390fd5b61006581610070565b5050600180556100ec565b5f80546001600160a01b038381166001600160a01b0319831681178455604051919092169283917f8be0079c531659141344cd1fd0a4f28419497f9722a3daafe3b4186f6b6457e09190a35050565b5f602082840312156100cf575f80fd5b81516001600160a01b03811681146100e5575f80fd5b9392505050565b6114b1806100f95f395ff3fe608060405260043610610096575f3560e01c8063715018a6116100665780638456cb591161004c5780638456cb59146101675780638da5cb5b1461017b578063f2fde38b146101ae575f80fd5b8063715018a61461013357806383fcf4b714610147575f80fd5b8063099a04e5146100a15780633f4ba83a146100c25780635c975abb146100d65780636ccae05414610114575f80fd5b3661009d57005b5f80fd5b3480156100ac575f80fd5b506100c06100bb36600461103a565b6101cd565b005b3480156100cd575f80fd5b506100c06101e3565b3480156100e1575f80fd5b505f5474010000000000000000000000000000000000000000900460ff1660405190151581526020015b60405180910390f35b34801561011f575f80fd5b506100c061012e366004611064565b6101f5565b34801561013e575f80fd5b506100c0610223565b61015a61015536600461112b565b610234565b60405161010b9190611233565b348015610172575f80fd5b506100c06102a4565b348015610186575f80fd5b505f5460405173ffffffffffffffffffffffffffffffffffffffff909116815260200161010b565b3480156101b9575f80fd5b506100c06101c83660046112e7565b6102b4565b6101d561031c565b6101df828261036e565b5050565b6101eb61031c565b6101f3610426565b565b6101fd61031c565b61021e73ffffffffffffffffffffffffffffffffffffffff841683836104a2565b505050565b61022b61031c565b6101f35f610523565b606061023e610597565b6102466105da565b5f6102513447611336565b90505f61025e858561062e565b905061026a8b8b610760565b61027489896107b8565b61027e878761082b565b925061028d3386868486610b85565b505061029860018055565b98975050505050505050565b6102ac61031c565b6101f3610d03565b6102bc61031c565b73ffffffffffffffffffffffffffffffffffffffff8116610310576040517f1e4fbdf70000000000000000000000000000000000000000000000000000000081525f60048201526024015b60405180910390fd5b61031981610523565b50565b5f5473ffffffffffffffffffffffffffffffffffffffff1633146101f3576040517f118cdaa7000000000000000000000000000000000000000000000000000000008152336004820152602401610307565b804710156103b1576040517fcf47918100000000000000000000000000000000000000000000000000000000815247600482015260248101829052604401610307565b5f808373ffffffffffffffffffffffffffffffffffffffff16836040515f6040518083038185875af1925050503d805f8114610408576040519150601f19603f3d011682016040523d82523d5f602084013e61040d565b606091505b5091509150816104205761042081610d71565b50505050565b61042e610db2565b5f80547fffffffffffffffffffffff00ffffffffffffffffffffffffffffffffffffffff1690557f5db9ee0a495bf2e6ff9c91a7834c1ba4fdd244a5e8aa4e537bd38aeae4b073aa335b60405173ffffffffffffffffffffffffffffffffffffffff909116815260200160405180910390a1565b60405173ffffffffffffffffffffffffffffffffffffffff83811660248301526044820183905261021e91859182169063a9059cbb906064015b604051602081830303815290604052915060e01b6020820180517bffffffffffffffffffffffffffffffffffffffffffffffffffffffff8381831617835250505050610e05565b5f805473ffffffffffffffffffffffffffffffffffffffff8381167fffffffffffffffffffffffff0000000000000000000000000000000000000000831681178455604051919092169283917f8be0079c531659141344cd1fd0a4f28419497f9722a3daafe3b4186f6b6457e09190a35050565b6002600154036105d3576040517f3ee5aeb500000000000000000000000000000000000000000000000000000000815260040160405180910390fd5b6002600155565b5f5474010000000000000000000000000000000000000000900460ff16156101f3576040517fd93c066500000000000000000000000000000000000000000000000000000000815260040160405180910390fd5b60608167ffffffffffffffff81111561064957610649611349565b604051908082528060200260200182016040528015610672578160200160208202803683370190505b5090505f5b828110156107595783838281811061069157610691611376565b90506020020160208101906106a691906112e7565b6040517f70a0823100000000000000000000000000000000000000000000000000000000815230600482015273ffffffffffffffffffffffffffffffffffffffff91909116906370a0823190602401602060405180830381865afa158015610710573d5f803e3d5ffd5b505050506040513d601f19601f8201168201806040525081019061073491906113a3565b82828151811061074657610746611376565b6020908102919091010152600101610677565b5092915050565b80156101df573682825f81811061077957610779611376565b60400291909101915061021e905033306020840180359061079a90866112e7565b73ffffffffffffffffffffffffffffffffffffffff16929190610ea4565b5f5b8181101561021e57368383838181106107d5576107d5611376565b90506060020190506108228160200160208101906107f391906112e7565b604083013561080560208501856112e7565b73ffffffffffffffffffffffffffffffffffffffff169190610eea565b506001016107ba565b60608167ffffffffffffffff81111561084657610846611349565b60405190808252806020026020018201604052801561087957816020015b60608152602001906001900390816108645790505b5090505f5b82811015610759573684848381811061089957610899611376565b90506020028101906108ab91906113ba565b90505f6108bb60408301836113f6565b8080601f0160208091040260200160405190810160405280939291908181526020018383808284375f9201829052509394506109019250505060808401606085016112e7565b73ffffffffffffffffffffffffffffffffffffffff1614610a5b575f61092d60808401606085016112e7565b6040517f70a0823100000000000000000000000000000000000000000000000000000000815230600482015273ffffffffffffffffffffffffffffffffffffffff91909116906370a0823190602401602060405180830381865afa158015610997573d5f803e3d5ffd5b505050506040513d601f19601f820116820180604052508101906109bb91906113a3565b9050805f036109f6576040517f8f348c7b00000000000000000000000000000000000000000000000000000000815260040160405180910390fd5b8151610a0760808501356020611457565b1115610a4f5781516040517fce1957cf000000000000000000000000000000000000000000000000000000008152608085013560048201526024810191909152604401610307565b60808301358201602001525b5f80610a6a60208501856112e7565b73ffffffffffffffffffffffffffffffffffffffff16846020013584604051610a93919061146a565b5f6040518083038185875af1925050503d805f8114610acd576040519150601f19603f3d011682016040523d82523d5f602084013e610ad2565b606091505b509150915081610b5857805115610aec5780518082602001fd5b84610afa60208601866112e7565b6040517fbe44d5fa000000000000000000000000000000000000000000000000000000008152600481019290925273ffffffffffffffffffffffffffffffffffffffff166024820152606060448201525f6064820152608401610307565b80868681518110610b6b57610b6b611376565b60200260200101819052508460010194505050505061087e565b5f5b83811015610cde575f858583818110610ba257610ba2611376565b9050602002016020810190610bb791906112e7565b6040517f70a0823100000000000000000000000000000000000000000000000000000000815230600482015273ffffffffffffffffffffffffffffffffffffffff91909116906370a0823190602401602060405180830381865afa158015610c21573d5f803e3d5ffd5b505050506040513d601f19601f82011682018060405250810190610c4591906113a3565b9050838281518110610c5957610c59611376565b6020026020010151811115610cd557610cd587858481518110610c7e57610c7e611376565b602002602001015183610c919190611336565b888886818110610ca357610ca3611376565b9050602002016020810190610cb891906112e7565b73ffffffffffffffffffffffffffffffffffffffff1691906104a2565b50600101610b87565b504781811115610cfb57610cfb86610cf68484611336565b61036e565b505050505050565b610d0b6105da565b5f80547fffffffffffffffffffffff00ffffffffffffffffffffffffffffffffffffffff16740100000000000000000000000000000000000000001790557f62e78cea01bee320cd4e420270b5ea74000d11b0c9f74754ebdbfc544b05a2586104783390565b805115610d8057805160208201fd5b6040517fd6bda27500000000000000000000000000000000000000000000000000000000815260040160405180910390fd5b5f5474010000000000000000000000000000000000000000900460ff166101f3576040517f8dfc202b00000000000000000000000000000000000000000000000000000000815260040160405180910390fd5b5f8060205f8451602086015f885af180610e24576040513d5f823e3d81fd5b50505f513d91508115610e3b578060011415610e55565b73ffffffffffffffffffffffffffffffffffffffff84163b155b15610420576040517f5274afe700000000000000000000000000000000000000000000000000000000815273ffffffffffffffffffffffffffffffffffffffff85166004820152602401610307565b60405173ffffffffffffffffffffffffffffffffffffffff84811660248301528381166044830152606482018390526104209186918216906323b872dd906084016104dc565b6040805173ffffffffffffffffffffffffffffffffffffffff8416602482015260448082018490528251808303909101815260649091019091526020810180517bffffffffffffffffffffffffffffffffffffffffffffffffffffffff167f095ea7b300000000000000000000000000000000000000000000000000000000179052610f768482610fc1565b6104205760405173ffffffffffffffffffffffffffffffffffffffff84811660248301525f6044830152610fb791869182169063095ea7b3906064016104dc565b6104208482610e05565b5f805f8060205f8651602088015f8a5af192503d91505f51905082801561100d57508115610ff2578060011461100d565b5f8673ffffffffffffffffffffffffffffffffffffffff163b115b93505050505b92915050565b73ffffffffffffffffffffffffffffffffffffffff81168114610319575f80fd5b5f806040838503121561104b575f80fd5b823561105681611019565b946020939093013593505050565b5f805f60608486031215611076575f80fd5b833561108181611019565b9250602084013561109181611019565b929592945050506040919091013590565b5f8083601f8401126110b2575f80fd5b50813567ffffffffffffffff8111156110c9575f80fd5b6020830191508360206060830285010111156110e3575f80fd5b9250929050565b5f8083601f8401126110fa575f80fd5b50813567ffffffffffffffff811115611111575f80fd5b6020830191508360208260051b85010111156110e3575f80fd5b5f805f805f805f806080898b031215611142575f80fd5b883567ffffffffffffffff80821115611159575f80fd5b818b0191508b601f83011261116c575f80fd5b81358181111561117a575f80fd5b8c60208260061b850101111561118e575f80fd5b60209283019a509850908a013590808211156111a8575f80fd5b6111b48c838d016110a2565b909850965060408b01359150808211156111cc575f80fd5b6111d88c838d016110ea565b909650945060608b01359150808211156111f0575f80fd5b506111fd8b828c016110ea565b999c989b5096995094979396929594505050565b5f5b8381101561122b578181015183820152602001611213565b50505f910152565b5f602080830181845280855180835260408601915060408160051b87010192508387015f5b828110156112da577fffffffffffffffffffffffffffffffffffffffffffffffffffffffffffffffc08886030184528151805180875261129d818989018a8501611211565b601f017fffffffffffffffffffffffffffffffffffffffffffffffffffffffffffffffe01695909501860194509285019290850190600101611258565b5092979650505050505050565b5f602082840312156112f7575f80fd5b813561130281611019565b9392505050565b7f4e487b71000000000000000000000000000000000000000000000000000000005f52601160045260245ffd5b8181038181111561101357611013611309565b7f4e487b71000000000000000000000000000000000000000000000000000000005f52604160045260245ffd5b7f4e487b71000000000000000000000000000000000000000000000000000000005f52603260045260245ffd5b5f602082840312156113b3575f80fd5b5051919050565b5f82357fffffffffffffffffffffffffffffffffffffffffffffffffffffffffffffff618336030181126113ec575f80fd5b9190910192915050565b5f8083357fffffffffffffffffffffffffffffffffffffffffffffffffffffffffffffffe1843603018112611429575f80fd5b83018035915067ffffffffffffffff821115611443575f80fd5b6020019150368190038213156110e3575f80fd5b8082018082111561101357611013611309565b5f82516113ec81846020870161121156fea2646970667358221220ed928d16a6949766e8186482ccddf0f48fe883c842f7c22f38c9b0b0a44d096364736f6c63430008180033",
  "linkReferences": {},
  "deployedLinkReferences": {}
}